{
  "_format": "hh-sol-artifact-1",
  "contractName": "Cartas",
  "sourceName": "contracts/Cartas.sol",
  "abi": [
    {
      "inputs": [],
      "stateMutability": "nonpayable",
      "type": "constructor"
    },
    {
      "inputs": [],
      "name": "ERC721EnumerableForbiddenBatchMint",
      "type": "error"
    },
    {
      "inputs": [
        {
          "internalType": "address",
          "name": "sender",
          "type": "address"
        },
        {
          "internalType": "uint256",
          "name": "tokenId",
          "type": "uint256"
        },
        {
          "internalType": "address",
          "name": "owner",
          "type": "address"
        }
      ],
      "name": "ERC721IncorrectOwner",
      "type": "error"
    },
    {
      "inputs": [
        {
          "internalType": "address",
          "name": "operator",
          "type": "address"
        },
        {
          "internalType": "uint256",
          "name": "tokenId",
          "type": "uint256"
        }
      ],
      "name": "ERC721InsufficientApproval",
      "type": "error"
    },
    {
      "inputs": [
        {
          "internalType": "address",
          "name": "approver",
          "type": "address"
        }
      ],
      "name": "ERC721InvalidApprover",
      "type": "error"
    },
    {
      "inputs": [
        {
          "internalType": "address",
          "name": "operator",
          "type": "address"
        }
      ],
      "name": "ERC721InvalidOperator",
      "type": "error"
    },
    {
      "inputs": [
        {
          "internalType": "address",
          "name": "owner",
          "type": "address"
        }
      ],
      "name": "ERC721InvalidOwner",
      "type": "error"
    },
    {
      "inputs": [
        {
          "internalType": "address",
          "name": "receiver",
          "type": "address"
        }
      ],
      "name": "ERC721InvalidReceiver",
      "type": "error"
    },
    {
      "inputs": [
        {
          "internalType": "address",
          "name": "sender",
          "type": "address"
        }
      ],
      "name": "ERC721InvalidSender",
      "type": "error"
    },
    {
      "inputs": [
        {
          "internalType": "uint256",
          "name": "tokenId",
          "type": "uint256"
        }
      ],
      "name": "ERC721NonexistentToken",
      "type": "error"
    },
    {
      "inputs": [
        {
          "internalType": "address",
          "name": "owner",
          "type": "address"
        },
        {
          "internalType": "uint256",
          "name": "index",
          "type": "uint256"
        }
      ],
      "name": "ERC721OutOfBoundsIndex",
      "type": "error"
    },
    {
      "inputs": [
        {
          "internalType": "address",
          "name": "owner",
          "type": "address"
        }
      ],
      "name": "OwnableInvalidOwner",
      "type": "error"
    },
    {
      "inputs": [
        {
          "internalType": "address",
          "name": "account",
          "type": "address"
        }
      ],
      "name": "OwnableUnauthorizedAccount",
      "type": "error"
    },
    {
      "anonymous": false,
      "inputs": [
        {
          "indexed": true,
          "internalType": "address",
          "name": "owner",
          "type": "address"
        },
        {
          "indexed": true,
          "internalType": "address",
          "name": "approved",
          "type": "address"
        },
        {
          "indexed": true,
          "internalType": "uint256",
          "name": "tokenId",
          "type": "uint256"
        }
      ],
      "name": "Approval",
      "type": "event"
    },
    {
      "anonymous": false,
      "inputs": [
        {
          "indexed": true,
          "internalType": "address",
          "name": "owner",
          "type": "address"
        },
        {
          "indexed": true,
          "internalType": "address",
          "name": "operator",
          "type": "address"
        },
        {
          "indexed": false,
          "internalType": "bool",
          "name": "approved",
          "type": "bool"
        }
      ],
      "name": "ApprovalForAll",
      "type": "event"
    },
    {
      "anonymous": false,
      "inputs": [
        {
          "indexed": true,
          "internalType": "address",
          "name": "previousOwner",
          "type": "address"
        },
        {
          "indexed": true,
          "internalType": "address",
          "name": "newOwner",
          "type": "address"
        }
      ],
      "name": "OwnershipTransferred",
      "type": "event"
    },
    {
      "anonymous": false,
      "inputs": [
        {
          "indexed": true,
          "internalType": "address",
          "name": "from",
          "type": "address"
        },
        {
          "indexed": true,
          "internalType": "address",
          "name": "to",
          "type": "address"
        },
        {
          "indexed": true,
          "internalType": "uint256",
          "name": "tokenId",
          "type": "uint256"
        }
      ],
      "name": "Transfer",
      "type": "event"
    },
    {
      "inputs": [
        {
          "internalType": "address",
          "name": "to",
          "type": "address"
        },
        {
          "internalType": "uint256",
          "name": "tokenId",
          "type": "uint256"
        }
      ],
      "name": "approve",
      "outputs": [],
      "stateMutability": "nonpayable",
      "type": "function"
    },
    {
      "inputs": [
        {
          "internalType": "address",
          "name": "owner",
          "type": "address"
        }
      ],
      "name": "balanceOf",
      "outputs": [
        {
          "internalType": "uint256",
          "name": "",
          "type": "uint256"
        }
      ],
      "stateMutability": "view",
      "type": "function"
    },
    {
      "inputs": [
        {
          "internalType": "uint256",
          "name": "",
          "type": "uint256"
        }
      ],
      "name": "bichoAsignado",
      "outputs": [
        {
          "internalType": "uint256",
          "name": "",
          "type": "uint256"
        }
      ],
      "stateMutability": "view",
      "type": "function"
    },
    {
      "inputs": [
        {
          "internalType": "address",
          "name": "jugador",
          "type": "address"
        }
      ],
      "name": "ganarCarta",
      "outputs": [],
      "stateMutability": "nonpayable",
      "type": "function"
    },
    {
      "inputs": [
        {
          "internalType": "uint256",
          "name": "tokenId",
          "type": "uint256"
        }
      ],
      "name": "getApproved",
      "outputs": [
        {
          "internalType": "address",
          "name": "",
          "type": "address"
        }
      ],
      "stateMutability": "view",
      "type": "function"
    },
    {
      "inputs": [
        {
          "internalType": "address",
          "name": "owner",
          "type": "address"
        },
        {
          "internalType": "address",
          "name": "operator",
          "type": "address"
        }
      ],
      "name": "isApprovedForAll",
      "outputs": [
        {
          "internalType": "bool",
          "name": "",
          "type": "bool"
        }
      ],
      "stateMutability": "view",
      "type": "function"
    },
    {
      "inputs": [],
      "name": "name",
      "outputs": [
        {
          "internalType": "string",
          "name": "",
          "type": "string"
        }
      ],
      "stateMutability": "view",
      "type": "function"
    },
    {
      "inputs": [],
      "name": "nextTokenId",
      "outputs": [
        {
          "internalType": "uint256",
          "name": "",
          "type": "uint256"
        }
      ],
      "stateMutability": "view",
      "type": "function"
    },
    {
      "inputs": [],
      "name": "owner",
      "outputs": [
        {
          "internalType": "address",
          "name": "",
          "type": "address"
        }
      ],
      "stateMutability": "view",
      "type": "function"
    },
    {
      "inputs": [
        {
          "internalType": "uint256",
          "name": "tokenId",
          "type": "uint256"
        }
      ],
      "name": "ownerOf",
      "outputs": [
        {
          "internalType": "address",
          "name": "",
          "type": "address"
        }
      ],
      "stateMutability": "view",
      "type": "function"
    },
    {
      "inputs": [
        {
          "internalType": "uint256",
          "name": "tokenId",
          "type": "uint256"
        }
      ],
      "name": "quemarCarta",
      "outputs": [],
      "stateMutability": "nonpayable",
      "type": "function"
    },
    {
      "inputs": [],
      "name": "renounceOwnership",
      "outputs": [],
      "stateMutability": "nonpayable",
      "type": "function"
    },
    {
      "inputs": [
        {
          "internalType": "address",
          "name": "from",
          "type": "address"
        },
        {
          "internalType": "address",
          "name": "to",
          "type": "address"
        },
        {
          "internalType": "uint256",
          "name": "tokenId",
          "type": "uint256"
        }
      ],
      "name": "safeTransferFrom",
      "outputs": [],
      "stateMutability": "nonpayable",
      "type": "function"
    },
    {
      "inputs": [
        {
          "internalType": "address",
          "name": "from",
          "type": "address"
        },
        {
          "internalType": "address",
          "name": "to",
          "type": "address"
        },
        {
          "internalType": "uint256",
          "name": "tokenId",
          "type": "uint256"
        },
        {
          "internalType": "bytes",
          "name": "data",
          "type": "bytes"
        }
      ],
      "name": "safeTransferFrom",
      "outputs": [],
      "stateMutability": "nonpayable",
      "type": "function"
    },
    {
      "inputs": [
        {
          "internalType": "address",
          "name": "operator",
          "type": "address"
        },
        {
          "internalType": "bool",
          "name": "approved",
          "type": "bool"
        }
      ],
      "name": "setApprovalForAll",
      "outputs": [],
      "stateMutability": "nonpayable",
      "type": "function"
    },
    {
      "inputs": [
        {
          "internalType": "string",
          "name": "nuevaURI",
          "type": "string"
        }
      ],
      "name": "setBaseURI",
      "outputs": [],
      "stateMutability": "nonpayable",
      "type": "function"
    },
    {
      "inputs": [
        {
          "internalType": "bytes4",
          "name": "interfaceId",
          "type": "bytes4"
        }
      ],
      "name": "supportsInterface",
      "outputs": [
        {
          "internalType": "bool",
          "name": "",
          "type": "bool"
        }
      ],
      "stateMutability": "view",
      "type": "function"
    },
    {
      "inputs": [],
      "name": "symbol",
      "outputs": [
        {
          "internalType": "string",
          "name": "",
          "type": "string"
        }
      ],
      "stateMutability": "view",
      "type": "function"
    },
    {
      "inputs": [
        {
          "internalType": "uint256",
          "name": "index",
          "type": "uint256"
        }
      ],
      "name": "tokenByIndex",
      "outputs": [
        {
          "internalType": "uint256",
          "name": "",
          "type": "uint256"
        }
      ],
      "stateMutability": "view",
      "type": "function"
    },
    {
      "inputs": [
        {
          "internalType": "address",
          "name": "owner",
          "type": "address"
        },
        {
          "internalType": "uint256",
          "name": "index",
          "type": "uint256"
        }
      ],
      "name": "tokenOfOwnerByIndex",
      "outputs": [
        {
          "internalType": "uint256",
          "name": "",
          "type": "uint256"
        }
      ],
      "stateMutability": "view",
      "type": "function"
    },
    {
      "inputs": [
        {
          "internalType": "uint256",
          "name": "tokenId",
          "type": "uint256"
        }
      ],
      "name": "tokenURI",
      "outputs": [
        {
          "internalType": "string",
          "name": "",
          "type": "string"
        }
      ],
      "stateMutability": "view",
      "type": "function"
    },
    {
      "inputs": [],
      "name": "totalSupply",
      "outputs": [
        {
          "internalType": "uint256",
          "name": "",
          "type": "uint256"
        }
      ],
      "stateMutability": "view",
      "type": "function"
    },
    {
      "inputs": [
        {
          "internalType": "address",
          "name": "from",
          "type": "address"
        },
        {
          "internalType": "address",
          "name": "to",
          "type": "address"
        },
        {
          "internalType": "uint256",
          "name": "tokenId",
          "type": "uint256"
        }
      ],
      "name": "transferFrom",
      "outputs": [],
      "stateMutability": "nonpayable",
      "type": "function"
    },
    {
      "inputs": [
        {
          "internalType": "address",
          "name": "newOwner",
          "type": "address"
        }
      ],
      "name": "transferOwnership",
      "outputs": [],
      "stateMutability": "nonpayable",
      "type": "function"
    }
  ],
  "bytecode": "0x60806040523480156200001157600080fd5b50336040518060400160405280600b81526020017f45746865724265617374730000000000000000000000000000000000000000008152506040518060400160405280600481526020017f454253540000000000000000000000000000000000000000000000000000000081525081600090816200009091906200049d565b508060019081620000a291906200049d565b505050600073ffffffffffffffffffffffffffffffffffffffff168173ffffffffffffffffffffffffffffffffffffffff16036200011a5760006040517f1e4fbdf7000000000000000000000000000000000000000000000000000000008152600401620001119190620005c9565b60405180910390fd5b6200012b816200015d60201b60201c565b506040518060800160405280604381526020016200353860439139600c90816200015691906200049d565b50620005e6565b6000600a60009054906101000a900473ffffffffffffffffffffffffffffffffffffffff16905081600a60006101000a81548173ffffffffffffffffffffffffffffffffffffffff021916908373ffffffffffffffffffffffffffffffffffffffff1602179055508173ffffffffffffffffffffffffffffffffffffffff168173ffffffffffffffffffffffffffffffffffffffff167f8be0079c531659141344cd1fd0a4f28419497f9722a3daafe3b4186f6b6457e060405160405180910390a35050565b600081519050919050565b7f4e487b7100000000000000000000000000000000000000000000000000000000600052604160045260246000fd5b7f4e487b7100000000000000000000000000000000000000000000000000000000600052602260045260246000fd5b60006002820490506001821680620002a557607f821691505b602082108103620002bb57620002ba6200025d565b5b50919050565b60008190508160005260206000209050919050565b60006020601f8301049050919050565b600082821b905092915050565b600060088302620003257fffffffffffffffffffffffffffffffffffffffffffffffffffffffffffffffff82620002e6565b620003318683620002e6565b95508019841693508086168417925050509392505050565b6000819050919050565b6000819050919050565b60006200037e62000378620003728462000349565b62000353565b62000349565b9050919050565b6000819050919050565b6200039a836200035d565b620003b2620003a98262000385565b848454620002f3565b825550505050565b600090565b620003c9620003ba565b620003d68184846200038f565b505050565b5b81811015620003fe57620003f2600082620003bf565b600181019050620003dc565b5050565b601f8211156200044d576200041781620002c1565b6200042284620002d6565b8101602085101562000432578190505b6200044a6200044185620002d6565b830182620003db565b50505b505050565b600082821c905092915050565b6000620004726000198460080262000452565b1980831691505092915050565b60006200048d83836200045f565b9150826002028217905092915050565b620004a88262000223565b67ffffffffffffffff811115620004c457620004c36200022e565b5b620004d082546200028c565b620004dd82828562000402565b600060209050601f83116001811462000515576000841562000500578287015190505b6200050c85826200047f565b8655506200057c565b601f1984166200052586620002c1565b60005b828110156200054f5784890151825560018201915060208501945060208101905062000528565b868310156200056f57848901516200056b601f8916826200045f565b8355505b6001600288020188555050505b505050505050565b600073ffffffffffffffffffffffffffffffffffffffff82169050919050565b6000620005b18262000584565b9050919050565b620005c381620005a4565b82525050565b6000602082019050620005e06000830184620005b8565b92915050565b612f4280620005f66000396000f3fe608060405234801561001057600080fd5b50600436106101585760003560e01c80636352211e116100c357806395d89b411161007c57806395d89b41146103d7578063a22cb465146103f5578063b88d4fde14610411578063c87b56dd1461042d578063e985e9c51461045d578063f2fde38b1461048d57610158565b80636352211e14610301578063652550af1461033157806370a0823114610361578063715018a61461039157806375794a3c1461039b5780638da5cb5b146103b957610158565b806323b872dd1161011557806323b872dd146102315780632f745c591461024d57806342842e0e1461027d5780634f6ccce71461029957806355f804b3146102c9578063576c52fe146102e557610158565b806301ffc9a71461015d57806306fdde031461018d578063081812fc146101ab578063095ea7b3146101db578063129f016d146101f757806318160ddd14610213575b600080fd5b61017760048036038101906101729190612127565b6104a9565b604051610184919061216f565b60405180910390f35b610195610523565b6040516101a2919061221a565b60405180910390f35b6101c560048036038101906101c09190612272565b6105b5565b6040516101d291906122e0565b60405180910390f35b6101f560048036038101906101f09190612327565b6105d1565b005b610211600480360381019061020c9190612367565b6105e7565b005b61021b610675565b60405161022891906123a3565b60405180910390f35b61024b600480360381019061024691906123be565b610682565b005b61026760048036038101906102629190612327565b610784565b60405161027491906123a3565b60405180910390f35b610297600480360381019061029291906123be565b61082d565b005b6102b360048036038101906102ae9190612272565b61084d565b6040516102c091906123a3565b60405180910390f35b6102e360048036038101906102de9190612546565b6108c3565b005b6102ff60048036038101906102fa9190612272565b6108de565b005b61031b60048036038101906103169190612272565b61097b565b60405161032891906122e0565b60405180910390f35b61034b60048036038101906103469190612272565b61098d565b60405161035891906123a3565b60405180910390f35b61037b60048036038101906103769190612367565b6109a5565b60405161038891906123a3565b60405180910390f35b610399610a5f565b005b6103a3610a73565b6040516103b091906123a3565b60405180910390f35b6103c1610a79565b6040516103ce91906122e0565b60405180910390f35b6103df610aa3565b6040516103ec919061221a565b60405180910390f35b61040f600480360381019061040a91906125bb565b610b35565b005b61042b6004803603810190610426919061269c565b610b4b565b005b61044760048036038101906104429190612272565b610b70565b604051610454919061221a565b60405180910390f35b6104776004803603810190610472919061271f565b610bcd565b604051610484919061216f565b60405180910390f35b6104a760048036038101906104a29190612367565b610c61565b005b60007f780e9d63000000000000000000000000000000000000000000000000000000007bffffffffffffffffffffffffffffffffffffffffffffffffffffffff1916827bffffffffffffffffffffffffffffffffffffffffffffffffffffffff1916148061051c575061051b82610ce7565b5b9050919050565b6060600080546105329061278e565b80601f016020809104026020016040519081016040528092919081815260200182805461055e9061278e565b80156105ab5780601f10610580576101008083540402835291602001916105ab565b820191906000526020600020905b81548152906001019060200180831161058e57829003601f168201915b5050505050905090565b60006105c082610dc9565b506105ca82610e51565b9050919050565b6105e382826105de610e8e565b610e96565b5050565b6000600160104233600b5460405160200161060493929190612828565b6040516020818303038152906040528051906020012060001c6106279190612894565b61063191906128f4565b905080600d6000600b5481526020019081526020016000208190555061065982600b54610ea8565b600b600081548092919061066c90612928565b91905055505050565b6000600880549050905090565b600073ffffffffffffffffffffffffffffffffffffffff168273ffffffffffffffffffffffffffffffffffffffff16036106f45760006040517f64a0ae920000000000000000000000000000000000000000000000000000000081526004016106eb91906122e0565b60405180910390fd5b60006107088383610703610e8e565b610ec6565b90508373ffffffffffffffffffffffffffffffffffffffff168173ffffffffffffffffffffffffffffffffffffffff161461077e578382826040517f64283d7b00000000000000000000000000000000000000000000000000000000815260040161077593929190612970565b60405180910390fd5b50505050565b600061078f836109a5565b82106107d45782826040517fa57d13dc0000000000000000000000000000000000000000000000000000000081526004016107cb9291906129a7565b60405180910390fd5b600660008473ffffffffffffffffffffffffffffffffffffffff1673ffffffffffffffffffffffffffffffffffffffff168152602001908152602001600020600083815260200190815260200160002054905092915050565b61084883838360405180602001604052806000815250610b4b565b505050565b6000610857610675565b821061089d576000826040517fa57d13dc0000000000000000000000000000000000000000000000000000000081526004016108949291906129a7565b60405180910390fd5b600882815481106108b1576108b06129d0565b5b90600052602060002001549050919050565b6108cb610fe3565b80600c90816108da9190612bab565b5050565b3373ffffffffffffffffffffffffffffffffffffffff166108fe8261097b565b73ffffffffffffffffffffffffffffffffffffffff1614610954576040517f08c379a000000000000000000000000000000000000000000000000000000000815260040161094b90612cef565b60405180910390fd5b600d60008281526020019081526020016000206000905561097760008233610ec6565b5050565b600061098682610dc9565b9050919050565b600d6020528060005260406000206000915090505481565b60008073ffffffffffffffffffffffffffffffffffffffff168273ffffffffffffffffffffffffffffffffffffffff1603610a185760006040517f89c62b64000000000000000000000000000000000000000000000000000000008152600401610a0f91906122e0565b60405180910390fd5b600360008373ffffffffffffffffffffffffffffffffffffffff1673ffffffffffffffffffffffffffffffffffffffff168152602001908152602001600020549050919050565b610a67610fe3565b610a71600061106a565b565b600b5481565b6000600a60009054906101000a900473ffffffffffffffffffffffffffffffffffffffff16905090565b606060018054610ab29061278e565b80601f0160208091040260200160405190810160405280929190818152602001828054610ade9061278e565b8015610b2b5780601f10610b0057610100808354040283529160200191610b2b565b820191906000526020600020905b815481529060010190602001808311610b0e57829003601f168201915b5050505050905090565b610b47610b40610e8e565b8383611130565b5050565b610b56848484610682565b610b6a610b61610e8e565b8585858561129f565b50505050565b6060610b7b82610dc9565b506000600d6000848152602001908152602001600020549050610b9c611450565b610ba5826114e2565b604051602001610bb6929190612d97565b604051602081830303815290604052915050919050565b6000600560008473ffffffffffffffffffffffffffffffffffffffff1673ffffffffffffffffffffffffffffffffffffffff16815260200190815260200160002060008373ffffffffffffffffffffffffffffffffffffffff1673ffffffffffffffffffffffffffffffffffffffff16815260200190815260200160002060009054906101000a900460ff16905092915050565b610c69610fe3565b600073ffffffffffffffffffffffffffffffffffffffff168173ffffffffffffffffffffffffffffffffffffffff1603610cdb5760006040517f1e4fbdf7000000000000000000000000000000000000000000000000000000008152600401610cd291906122e0565b60405180910390fd5b610ce48161106a565b50565b60007f80ac58cd000000000000000000000000000000000000000000000000000000007bffffffffffffffffffffffffffffffffffffffffffffffffffffffff1916827bffffffffffffffffffffffffffffffffffffffffffffffffffffffff19161480610db257507f5b5e139f000000000000000000000000000000000000000000000000000000007bffffffffffffffffffffffffffffffffffffffffffffffffffffffff1916827bffffffffffffffffffffffffffffffffffffffffffffffffffffffff1916145b80610dc25750610dc1826115b0565b5b9050919050565b600080610dd58361161a565b9050600073ffffffffffffffffffffffffffffffffffffffff168173ffffffffffffffffffffffffffffffffffffffff1603610e4857826040517f7e273289000000000000000000000000000000000000000000000000000000008152600401610e3f91906123a3565b60405180910390fd5b80915050919050565b60006004600083815260200190815260200160002060009054906101000a900473ffffffffffffffffffffffffffffffffffffffff169050919050565b600033905090565b610ea38383836001611657565b505050565b610ec282826040518060200160405280600081525061181c565b5050565b600080610ed4858585611840565b9050600073ffffffffffffffffffffffffffffffffffffffff168173ffffffffffffffffffffffffffffffffffffffff1603610f1857610f1384611a5a565b610f57565b8473ffffffffffffffffffffffffffffffffffffffff168173ffffffffffffffffffffffffffffffffffffffff1614610f5657610f558185611aa3565b5b5b600073ffffffffffffffffffffffffffffffffffffffff168573ffffffffffffffffffffffffffffffffffffffff1603610f9957610f9484611b8e565b610fd8565b8473ffffffffffffffffffffffffffffffffffffffff168173ffffffffffffffffffffffffffffffffffffffff1614610fd757610fd68585611c5f565b5b5b809150509392505050565b610feb610e8e565b73ffffffffffffffffffffffffffffffffffffffff16611009610a79565b73ffffffffffffffffffffffffffffffffffffffff16146110685761102c610e8e565b6040517f118cdaa700000000000000000000000000000000000000000000000000000000815260040161105f91906122e0565b60405180910390fd5b565b6000600a60009054906101000a900473ffffffffffffffffffffffffffffffffffffffff16905081600a60006101000a81548173ffffffffffffffffffffffffffffffffffffffff021916908373ffffffffffffffffffffffffffffffffffffffff1602179055508173ffffffffffffffffffffffffffffffffffffffff168173ffffffffffffffffffffffffffffffffffffffff167f8be0079c531659141344cd1fd0a4f28419497f9722a3daafe3b4186f6b6457e060405160405180910390a35050565b600073ffffffffffffffffffffffffffffffffffffffff168273ffffffffffffffffffffffffffffffffffffffff16036111a157816040517f5b08ba1800000000000000000000000000000000000000000000000000000000815260040161119891906122e0565b60405180910390fd5b80600560008573ffffffffffffffffffffffffffffffffffffffff1673ffffffffffffffffffffffffffffffffffffffff16815260200190815260200160002060008473ffffffffffffffffffffffffffffffffffffffff1673ffffffffffffffffffffffffffffffffffffffff16815260200190815260200160002060006101000a81548160ff0219169083151502179055508173ffffffffffffffffffffffffffffffffffffffff168373ffffffffffffffffffffffffffffffffffffffff167f17307eab39ab6107e8899845ad3d59bd9653f200f220920489ca2b5937696c3183604051611292919061216f565b60405180910390a3505050565b60008373ffffffffffffffffffffffffffffffffffffffff163b1115611449578273ffffffffffffffffffffffffffffffffffffffff1663150b7a02868685856040518563ffffffff1660e01b81526004016112fe9493929190612e1b565b6020604051808303816000875af192505050801561133a57506040513d601f19601f820116820180604052508101906113379190612e7c565b60015b6113be573d806000811461136a576040519150601f19603f3d011682016040523d82523d6000602084013e61136f565b606091505b5060008151036113b657836040517f64a0ae920000000000000000000000000000000000000000000000000000000081526004016113ad91906122e0565b60405180910390fd5b805160208201fd5b63150b7a0260e01b7bffffffffffffffffffffffffffffffffffffffffffffffffffffffff1916817bffffffffffffffffffffffffffffffffffffffffffffffffffffffff19161461144757836040517f64a0ae9200000000000000000000000000000000000000000000000000000000815260040161143e91906122e0565b60405180910390fd5b505b5050505050565b6060600c805461145f9061278e565b80601f016020809104026020016040519081016040528092919081815260200182805461148b9061278e565b80156114d85780601f106114ad576101008083540402835291602001916114d8565b820191906000526020600020905b8154815290600101906020018083116114bb57829003601f168201915b5050505050905090565b6060600060016114f184611cea565b01905060008167ffffffffffffffff8111156115105761150f61241b565b5b6040519080825280601f01601f1916602001820160405280156115425781602001600182028036833780820191505090505b509050600082602083010190505b6001156115a5578080600190039150507f3031323334353637383961626364656600000000000000000000000000000000600a86061a8153600a858161159957611598612865565b5b04945060008503611550575b819350505050919050565b60007f01ffc9a7000000000000000000000000000000000000000000000000000000007bffffffffffffffffffffffffffffffffffffffffffffffffffffffff1916827bffffffffffffffffffffffffffffffffffffffffffffffffffffffff1916149050919050565b60006002600083815260200190815260200160002060009054906101000a900473ffffffffffffffffffffffffffffffffffffffff169050919050565b80806116905750600073ffffffffffffffffffffffffffffffffffffffff168273ffffffffffffffffffffffffffffffffffffffff1614155b156117c45760006116a084610dc9565b9050600073ffffffffffffffffffffffffffffffffffffffff168373ffffffffffffffffffffffffffffffffffffffff161415801561170b57508273ffffffffffffffffffffffffffffffffffffffff168173ffffffffffffffffffffffffffffffffffffffff1614155b801561171e575061171c8184610bcd565b155b1561176057826040517fa9fbf51f00000000000000000000000000000000000000000000000000000000815260040161175791906122e0565b60405180910390fd5b81156117c257838573ffffffffffffffffffffffffffffffffffffffff168273ffffffffffffffffffffffffffffffffffffffff167f8c5be1e5ebec7d5bd14f71427d1e84f3dd0314c0f7b2291e5b200ac8c7c3b92560405160405180910390a45b505b836004600085815260200190815260200160002060006101000a81548173ffffffffffffffffffffffffffffffffffffffff021916908373ffffffffffffffffffffffffffffffffffffffff16021790555050505050565b6118268383611e3d565b61183b611831610e8e565b600085858561129f565b505050565b60008061184c8461161a565b9050600073ffffffffffffffffffffffffffffffffffffffff168373ffffffffffffffffffffffffffffffffffffffff161461188e5761188d818486611f36565b5b600073ffffffffffffffffffffffffffffffffffffffff168173ffffffffffffffffffffffffffffffffffffffff161461191f576118d0600085600080611657565b6001600360008373ffffffffffffffffffffffffffffffffffffffff1673ffffffffffffffffffffffffffffffffffffffff168152602001908152602001600020600082825403925050819055505b600073ffffffffffffffffffffffffffffffffffffffff168573ffffffffffffffffffffffffffffffffffffffff16146119a2576001600360008773ffffffffffffffffffffffffffffffffffffffff1673ffffffffffffffffffffffffffffffffffffffff168152602001908152602001600020600082825401925050819055505b846002600086815260200190815260200160002060006101000a81548173ffffffffffffffffffffffffffffffffffffffff021916908373ffffffffffffffffffffffffffffffffffffffff160217905550838573ffffffffffffffffffffffffffffffffffffffff168273ffffffffffffffffffffffffffffffffffffffff167fddf252ad1be2c89b69c2b068fc378daa952ba7f163c4a11628f55a4df523b3ef60405160405180910390a4809150509392505050565b6008805490506009600083815260200190815260200160002081905550600881908060018154018082558091505060019003906000526020600020016000909190919091505550565b6000611aae836109a5565b90506000600760008481526020019081526020016000205490506000600660008673ffffffffffffffffffffffffffffffffffffffff1673ffffffffffffffffffffffffffffffffffffffff1681526020019081526020016000209050828214611b5a5760008160008581526020019081526020016000205490508082600085815260200190815260200160002081905550826007600083815260200190815260200160002081905550505b6007600085815260200190815260200160002060009055806000848152602001908152602001600020600090555050505050565b60006001600880549050611ba29190612ea9565b9050600060096000848152602001908152602001600020549050600060088381548110611bd257611bd16129d0565b5b906000526020600020015490508060088381548110611bf457611bf36129d0565b5b906000526020600020018190555081600960008381526020019081526020016000208190555060096000858152602001908152602001600020600090556008805480611c4357611c42612edd565b5b6001900381819060005260206000200160009055905550505050565b60006001611c6c846109a5565b611c769190612ea9565b905081600660008573ffffffffffffffffffffffffffffffffffffffff1673ffffffffffffffffffffffffffffffffffffffff168152602001908152602001600020600083815260200190815260200160002081905550806007600084815260200190815260200160002081905550505050565b600080600090507a184f03e93ff9f4daa797ed6e38ed64bf6a1f0100000000000000008310611d48577a184f03e93ff9f4daa797ed6e38ed64bf6a1f0100000000000000008381611d3e57611d3d612865565b5b0492506040810190505b6d04ee2d6d415b85acef81000000008310611d85576d04ee2d6d415b85acef81000000008381611d7b57611d7a612865565b5b0492506020810190505b662386f26fc100008310611db457662386f26fc100008381611daa57611da9612865565b5b0492506010810190505b6305f5e1008310611ddd576305f5e1008381611dd357611dd2612865565b5b0492506008810190505b6127108310611e02576127108381611df857611df7612865565b5b0492506004810190505b60648310611e255760648381611e1b57611e1a612865565b5b0492506002810190505b600a8310611e34576001810190505b80915050919050565b600073ffffffffffffffffffffffffffffffffffffffff168273ffffffffffffffffffffffffffffffffffffffff1603611eaf5760006040517f64a0ae92000000000000000000000000000000000000000000000000000000008152600401611ea691906122e0565b60405180910390fd5b6000611ebd83836000610ec6565b9050600073ffffffffffffffffffffffffffffffffffffffff168173ffffffffffffffffffffffffffffffffffffffff1614611f315760006040517f73c6ac6e000000000000000000000000000000000000000000000000000000008152600401611f2891906122e0565b60405180910390fd5b505050565b611f41838383611ffa565b611ff557600073ffffffffffffffffffffffffffffffffffffffff168373ffffffffffffffffffffffffffffffffffffffff1603611fb657806040517f7e273289000000000000000000000000000000000000000000000000000000008152600401611fad91906123a3565b60405180910390fd5b81816040517f177e802f000000000000000000000000000000000000000000000000000000008152600401611fec9291906129a7565b60405180910390fd5b505050565b60008073ffffffffffffffffffffffffffffffffffffffff168373ffffffffffffffffffffffffffffffffffffffff16141580156120b257508273ffffffffffffffffffffffffffffffffffffffff168473ffffffffffffffffffffffffffffffffffffffff16148061207357506120728484610bcd565b5b806120b157508273ffffffffffffffffffffffffffffffffffffffff1661209983610e51565b73ffffffffffffffffffffffffffffffffffffffff16145b5b90509392505050565b6000604051905090565b600080fd5b600080fd5b60007fffffffff0000000000000000000000000000000000000000000000000000000082169050919050565b612104816120cf565b811461210f57600080fd5b50565b600081359050612121816120fb565b92915050565b60006020828403121561213d5761213c6120c5565b5b600061214b84828501612112565b91505092915050565b60008115159050919050565b61216981612154565b82525050565b60006020820190506121846000830184612160565b92915050565b600081519050919050565b600082825260208201905092915050565b60005b838110156121c45780820151818401526020810190506121a9565b60008484015250505050565b6000601f19601f8301169050919050565b60006121ec8261218a565b6121f68185612195565b93506122068185602086016121a6565b61220f816121d0565b840191505092915050565b6000602082019050818103600083015261223481846121e1565b905092915050565b6000819050919050565b61224f8161223c565b811461225a57600080fd5b50565b60008135905061226c81612246565b92915050565b600060208284031215612288576122876120c5565b5b60006122968482850161225d565b91505092915050565b600073ffffffffffffffffffffffffffffffffffffffff82169050919050565b60006122ca8261229f565b9050919050565b6122da816122bf565b82525050565b60006020820190506122f560008301846122d1565b92915050565b612304816122bf565b811461230f57600080fd5b50565b600081359050612321816122fb565b92915050565b6000806040838503121561233e5761233d6120c5565b5b600061234c85828601612312565b925050602061235d8582860161225d565b9150509250929050565b60006020828403121561237d5761237c6120c5565b5b600061238b84828501612312565b91505092915050565b61239d8161223c565b82525050565b60006020820190506123b86000830184612394565b92915050565b6000806000606084860312156123d7576123d66120c5565b5b60006123e586828701612312565b93505060206123f686828701612312565b92505060406124078682870161225d565b9150509250925092565b600080fd5b600080fd5b7f4e487b7100000000000000000000000000000000000000000000000000000000600052604160045260246000fd5b612453826121d0565b810181811067ffffffffffffffff821117156124725761247161241b565b5b80604052505050565b60006124856120bb565b9050612491828261244a565b919050565b600067ffffffffffffffff8211156124b1576124b061241b565b5b6124ba826121d0565b9050602081019050919050565b82818337600083830152505050565b60006124e96124e484612496565b61247b565b90508281526020810184848401111561250557612504612416565b5b6125108482856124c7565b509392505050565b600082601f83011261252d5761252c612411565b5b813561253d8482602086016124d6565b91505092915050565b60006020828403121561255c5761255b6120c5565b5b600082013567ffffffffffffffff81111561257a576125796120ca565b5b61258684828501612518565b91505092915050565b61259881612154565b81146125a357600080fd5b50565b6000813590506125b58161258f565b92915050565b600080604083850312156125d2576125d16120c5565b5b60006125e085828601612312565b92505060206125f1858286016125a6565b9150509250929050565b600067ffffffffffffffff8211156126165761261561241b565b5b61261f826121d0565b9050602081019050919050565b600061263f61263a846125fb565b61247b565b90508281526020810184848401111561265b5761265a612416565b5b6126668482856124c7565b509392505050565b600082601f83011261268357612682612411565b5b813561269384826020860161262c565b91505092915050565b600080600080608085870312156126b6576126b56120c5565b5b60006126c487828801612312565b94505060206126d587828801612312565b93505060406126e68782880161225d565b925050606085013567ffffffffffffffff811115612707576127066120ca565b5b6127138782880161266e565b91505092959194509250565b60008060408385031215612736576127356120c5565b5b600061274485828601612312565b925050602061275585828601612312565b9150509250929050565b7f4e487b7100000000000000000000000000000000000000000000000000000000600052602260045260246000fd5b600060028204905060018216806127a657607f821691505b6020821081036127b9576127b861275f565b5b50919050565b6000819050919050565b6127da6127d58261223c565b6127bf565b82525050565b60008160601b9050919050565b60006127f8826127e0565b9050919050565b600061280a826127ed565b9050919050565b61282261281d826122bf565b6127ff565b82525050565b600061283482866127c9565b6020820191506128448285612811565b60148201915061285482846127c9565b602082019150819050949350505050565b7f4e487b7100000000000000000000000000000000000000000000000000000000600052601260045260246000fd5b600061289f8261223c565b91506128aa8361223c565b9250826128ba576128b9612865565b5b828206905092915050565b7f4e487b7100000000000000000000000000000000000000000000000000000000600052601160045260246000fd5b60006128ff8261223c565b915061290a8361223c565b9250828201905080821115612922576129216128c5565b5b92915050565b60006129338261223c565b91507fffffffffffffffffffffffffffffffffffffffffffffffffffffffffffffffff8203612965576129646128c5565b5b600182019050919050565b600060608201905061298560008301866122d1565b6129926020830185612394565b61299f60408301846122d1565b949350505050565b60006040820190506129bc60008301856122d1565b6129c96020830184612394565b9392505050565b7f4e487b7100000000000000000000000000000000000000000000000000000000600052603260045260246000fd5b60008190508160005260206000209050919050565b60006020601f8301049050919050565b600082821b905092915050565b600060088302612a617fffffffffffffffffffffffffffffffffffffffffffffffffffffffffffffffff82612a24565b612a6b8683612a24565b95508019841693508086168417925050509392505050565b6000819050919050565b6000612aa8612aa3612a9e8461223c565b612a83565b61223c565b9050919050565b6000819050919050565b612ac283612a8d565b612ad6612ace82612aaf565b848454612a31565b825550505050565b600090565b612aeb612ade565b612af6818484612ab9565b505050565b5b81811015612b1a57612b0f600082612ae3565b600181019050612afc565b5050565b601f821115612b5f57612b30816129ff565b612b3984612a14565b81016020851015612b48578190505b612b5c612b5485612a14565b830182612afb565b50505b505050565b600082821c905092915050565b6000612b8260001984600802612b64565b1980831691505092915050565b6000612b9b8383612b71565b9150826002028217905092915050565b612bb48261218a565b67ffffffffffffffff811115612bcd57612bcc61241b565b5b612bd7825461278e565b612be2828285612b1e565b600060209050601f831160018114612c155760008415612c03578287015190505b612c0d8582612b8f565b865550612c75565b601f198416612c23866129ff565b60005b82811015612c4b57848901518255600182019150602085019450602081019050612c26565b86831015612c685784890151612c64601f891682612b71565b8355505b6001600288020188555050505b505050505050565b7f536f6c6f20656c2070726f706965746172696f207075656465207175656d617260008201527f2065737461206361727461000000000000000000000000000000000000000000602082015250565b6000612cd9602b83612195565b9150612ce482612c7d565b604082019050919050565b60006020820190508181036000830152612d0881612ccc565b9050919050565b600081905092915050565b6000612d258261218a565b612d2f8185612d0f565b9350612d3f8185602086016121a6565b80840191505092915050565b7f2e6a736f6e000000000000000000000000000000000000000000000000000000600082015250565b6000612d81600583612d0f565b9150612d8c82612d4b565b600582019050919050565b6000612da38285612d1a565b9150612daf8284612d1a565b9150612dba82612d74565b91508190509392505050565b600081519050919050565b600082825260208201905092915050565b6000612ded82612dc6565b612df78185612dd1565b9350612e078185602086016121a6565b612e10816121d0565b840191505092915050565b6000608082019050612e3060008301876122d1565b612e3d60208301866122d1565b612e4a6040830185612394565b8181036060830152612e5c8184612de2565b905095945050505050565b600081519050612e76816120fb565b92915050565b600060208284031215612e9257612e916120c5565b5b6000612ea084828501612e67565b91505092915050565b6000612eb48261223c565b9150612ebf8361223c565b9250828203905081811115612ed757612ed66128c5565b5b92915050565b7f4e487b7100000000000000000000000000000000000000000000000000000000600052603160045260246000fdfea2646970667358221220a8228af976f899ff3a889dd81ecc601d124506bb02b938edb66e377f291dc0a464736f6c63430008140033697066733a2f2f626166796265696637786176737536686a70743761616270756d746f7934347871757a6d676f7532666b6f6c6477766d6f7033696b33326a6263712f",
  "linkReferences": {},
  "deployedLinkReferences": {}
}