{
  "_format": "hh-sol-artifact-1",
  "contractName": "Cartas",
  "sourceName": "contracts/Cartas.sol",
  "abi": [
    {
      "inputs": [],
      "stateMutability": "nonpayable",
      "type": "constructor"
    },
    {
      "inputs": [],
      "name": "ERC721EnumerableForbiddenBatchMint",
      "type": "error"
    },
    {
      "inputs": [
        {
          "internalType": "address",
          "name": "sender",
          "type": "address"
        },
        {
          "internalType": "uint256",
          "name": "tokenId",
          "type": "uint256"
        },
        {
          "internalType": "address",
          "name": "owner",
          "type": "address"
        }
      ],
      "name": "ERC721IncorrectOwner",
      "type": "error"
    },
    {
      "inputs": [
        {
          "internalType": "address",
          "name": "operator",
          "type": "address"
        },
        {
          "internalType": "uint256",
          "name": "tokenId",
          "type": "uint256"
        }
      ],
      "name": "ERC721InsufficientApproval",
      "type": "error"
    },
    {
      "inputs": [
        {
          "internalType": "address",
          "name": "approver",
          "type": "address"
        }
      ],
      "name": "ERC721InvalidApprover",
      "type": "error"
    },
    {
      "inputs": [
        {
          "internalType": "address",
          "name": "operator",
          "type": "address"
        }
      ],
      "name": "ERC721InvalidOperator",
      "type": "error"
    },
    {
      "inputs": [
        {
          "internalType": "address",
          "name": "owner",
          "type": "address"
        }
      ],
      "name": "ERC721InvalidOwner",
      "type": "error"
    },
    {
      "inputs": [
        {
          "internalType": "address",
          "name": "receiver",
          "type": "address"
        }
      ],
      "name": "ERC721InvalidReceiver",
      "type": "error"
    },
    {
      "inputs": [
        {
          "internalType": "address",
          "name": "sender",
          "type": "address"
        }
      ],
      "name": "ERC721InvalidSender",
      "type": "error"
    },
    {
      "inputs": [
        {
          "internalType": "uint256",
          "name": "tokenId",
          "type": "uint256"
        }
      ],
      "name": "ERC721NonexistentToken",
      "type": "error"
    },
    {
      "inputs": [
        {
          "internalType": "address",
          "name": "owner",
          "type": "address"
        },
        {
          "internalType": "uint256",
          "name": "index",
          "type": "uint256"
        }
      ],
      "name": "ERC721OutOfBoundsIndex",
      "type": "error"
    },
    {
      "inputs": [
        {
          "internalType": "address",
          "name": "owner",
          "type": "address"
        }
      ],
      "name": "OwnableInvalidOwner",
      "type": "error"
    },
    {
      "inputs": [
        {
          "internalType": "address",
          "name": "account",
          "type": "address"
        }
      ],
      "name": "OwnableUnauthorizedAccount",
      "type": "error"
    },
    {
      "anonymous": false,
      "inputs": [
        {
          "indexed": true,
          "internalType": "address",
          "name": "owner",
          "type": "address"
        },
        {
          "indexed": true,
          "internalType": "address",
          "name": "approved",
          "type": "address"
        },
        {
          "indexed": true,
          "internalType": "uint256",
          "name": "tokenId",
          "type": "uint256"
        }
      ],
      "name": "Approval",
      "type": "event"
    },
    {
      "anonymous": false,
      "inputs": [
        {
          "indexed": true,
          "internalType": "address",
          "name": "owner",
          "type": "address"
        },
        {
          "indexed": true,
          "internalType": "address",
          "name": "operator",
          "type": "address"
        },
        {
          "indexed": false,
          "internalType": "bool",
          "name": "approved",
          "type": "bool"
        }
      ],
      "name": "ApprovalForAll",
      "type": "event"
    },
    {
      "anonymous": false,
      "inputs": [
        {
          "indexed": true,
          "internalType": "address",
          "name": "previousOwner",
          "type": "address"
        },
        {
          "indexed": true,
          "internalType": "address",
          "name": "newOwner",
          "type": "address"
        }
      ],
      "name": "OwnershipTransferred",
      "type": "event"
    },
    {
      "anonymous": false,
      "inputs": [
        {
          "indexed": true,
          "internalType": "address",
          "name": "from",
          "type": "address"
        },
        {
          "indexed": true,
          "internalType": "address",
          "name": "to",
          "type": "address"
        },
        {
          "indexed": true,
          "internalType": "uint256",
          "name": "tokenId",
          "type": "uint256"
        }
      ],
      "name": "Transfer",
      "type": "event"
    },
    {
      "inputs": [
        {
          "internalType": "address",
          "name": "to",
          "type": "address"
        },
        {
          "internalType": "uint256",
          "name": "tokenId",
          "type": "uint256"
        }
      ],
      "name": "approve",
      "outputs": [],
      "stateMutability": "nonpayable",
      "type": "function"
    },
    {
      "inputs": [
        {
          "internalType": "address",
          "name": "owner",
          "type": "address"
        }
      ],
      "name": "balanceOf",
      "outputs": [
        {
          "internalType": "uint256",
          "name": "",
          "type": "uint256"
        }
      ],
      "stateMutability": "view",
      "type": "function"
    },
    {
      "inputs": [
        {
          "internalType": "uint256",
          "name": "",
          "type": "uint256"
        }
      ],
      "name": "bichoAsignado",
      "outputs": [
        {
          "internalType": "uint256",
          "name": "",
          "type": "uint256"
        }
      ],
      "stateMutability": "view",
      "type": "function"
    },
    {
      "inputs": [
        {
          "internalType": "address",
          "name": "jugador",
          "type": "address"
        }
      ],
      "name": "ganarCarta",
      "outputs": [],
      "stateMutability": "nonpayable",
      "type": "function"
    },
    {
      "inputs": [
        {
          "internalType": "uint256",
          "name": "tokenId",
          "type": "uint256"
        }
      ],
      "name": "getApproved",
      "outputs": [
        {
          "internalType": "address",
          "name": "",
          "type": "address"
        }
      ],
      "stateMutability": "view",
      "type": "function"
    },
    {
      "inputs": [
        {
          "internalType": "address",
          "name": "owner",
          "type": "address"
        },
        {
          "internalType": "address",
          "name": "operator",
          "type": "address"
        }
      ],
      "name": "isApprovedForAll",
      "outputs": [
        {
          "internalType": "bool",
          "name": "",
          "type": "bool"
        }
      ],
      "stateMutability": "view",
      "type": "function"
    },
    {
      "inputs": [],
      "name": "name",
      "outputs": [
        {
          "internalType": "string",
          "name": "",
          "type": "string"
        }
      ],
      "stateMutability": "view",
      "type": "function"
    },
    {
      "inputs": [],
      "name": "nextTokenId",
      "outputs": [
        {
          "internalType": "uint256",
          "name": "",
          "type": "uint256"
        }
      ],
      "stateMutability": "view",
      "type": "function"
    },
    {
      "inputs": [],
      "name": "owner",
      "outputs": [
        {
          "internalType": "address",
          "name": "",
          "type": "address"
        }
      ],
      "stateMutability": "view",
      "type": "function"
    },
    {
      "inputs": [
        {
          "internalType": "uint256",
          "name": "tokenId",
          "type": "uint256"
        }
      ],
      "name": "ownerOf",
      "outputs": [
        {
          "internalType": "address",
          "name": "",
          "type": "address"
        }
      ],
      "stateMutability": "view",
      "type": "function"
    },
    {
      "inputs": [],
      "name": "renounceOwnership",
      "outputs": [],
      "stateMutability": "nonpayable",
      "type": "function"
    },
    {
      "inputs": [
        {
          "internalType": "address",
          "name": "from",
          "type": "address"
        },
        {
          "internalType": "address",
          "name": "to",
          "type": "address"
        },
        {
          "internalType": "uint256",
          "name": "tokenId",
          "type": "uint256"
        }
      ],
      "name": "safeTransferFrom",
      "outputs": [],
      "stateMutability": "nonpayable",
      "type": "function"
    },
    {
      "inputs": [
        {
          "internalType": "address",
          "name": "from",
          "type": "address"
        },
        {
          "internalType": "address",
          "name": "to",
          "type": "address"
        },
        {
          "internalType": "uint256",
          "name": "tokenId",
          "type": "uint256"
        },
        {
          "internalType": "bytes",
          "name": "data",
          "type": "bytes"
        }
      ],
      "name": "safeTransferFrom",
      "outputs": [],
      "stateMutability": "nonpayable",
      "type": "function"
    },
    {
      "inputs": [
        {
          "internalType": "address",
          "name": "operator",
          "type": "address"
        },
        {
          "internalType": "bool",
          "name": "approved",
          "type": "bool"
        }
      ],
      "name": "setApprovalForAll",
      "outputs": [],
      "stateMutability": "nonpayable",
      "type": "function"
    },
    {
      "inputs": [
        {
          "internalType": "string",
          "name": "nuevaURI",
          "type": "string"
        }
      ],
      "name": "setBaseURI",
      "outputs": [],
      "stateMutability": "nonpayable",
      "type": "function"
    },
    {
      "inputs": [
        {
          "internalType": "bytes4",
          "name": "interfaceId",
          "type": "bytes4"
        }
      ],
      "name": "supportsInterface",
      "outputs": [
        {
          "internalType": "bool",
          "name": "",
          "type": "bool"
        }
      ],
      "stateMutability": "view",
      "type": "function"
    },
    {
      "inputs": [],
      "name": "symbol",
      "outputs": [
        {
          "internalType": "string",
          "name": "",
          "type": "string"
        }
      ],
      "stateMutability": "view",
      "type": "function"
    },
    {
      "inputs": [
        {
          "internalType": "uint256",
          "name": "index",
          "type": "uint256"
        }
      ],
      "name": "tokenByIndex",
      "outputs": [
        {
          "internalType": "uint256",
          "name": "",
          "type": "uint256"
        }
      ],
      "stateMutability": "view",
      "type": "function"
    },
    {
      "inputs": [
        {
          "internalType": "address",
          "name": "owner",
          "type": "address"
        },
        {
          "internalType": "uint256",
          "name": "index",
          "type": "uint256"
        }
      ],
      "name": "tokenOfOwnerByIndex",
      "outputs": [
        {
          "internalType": "uint256",
          "name": "",
          "type": "uint256"
        }
      ],
      "stateMutability": "view",
      "type": "function"
    },
    {
      "inputs": [
        {
          "internalType": "uint256",
          "name": "tokenId",
          "type": "uint256"
        }
      ],
      "name": "tokenURI",
      "outputs": [
        {
          "internalType": "string",
          "name": "",
          "type": "string"
        }
      ],
      "stateMutability": "view",
      "type": "function"
    },
    {
      "inputs": [],
      "name": "totalSupply",
      "outputs": [
        {
          "internalType": "uint256",
          "name": "",
          "type": "uint256"
        }
      ],
      "stateMutability": "view",
      "type": "function"
    },
    {
      "inputs": [
        {
          "internalType": "address",
          "name": "from",
          "type": "address"
        },
        {
          "internalType": "address",
          "name": "to",
          "type": "address"
        },
        {
          "internalType": "uint256",
          "name": "tokenId",
          "type": "uint256"
        }
      ],
      "name": "transferFrom",
      "outputs": [],
      "stateMutability": "nonpayable",
      "type": "function"
    },
    {
      "inputs": [
        {
          "internalType": "address",
          "name": "newOwner",
          "type": "address"
        }
      ],
      "name": "transferOwnership",
      "outputs": [],
      "stateMutability": "nonpayable",
      "type": "function"
    }
  ],
  "bytecode": "0x60806040523480156200001157600080fd5b50336040518060400160405280600b81526020017f45746865724265617374730000000000000000000000000000000000000000008152506040518060400160405280600481526020017f454253540000000000000000000000000000000000000000000000000000000081525081600090816200009091906200049d565b508060019081620000a291906200049d565b505050600073ffffffffffffffffffffffffffffffffffffffff168173ffffffffffffffffffffffffffffffffffffffff16036200011a5760006040517f1e4fbdf7000000000000000000000000000000000000000000000000000000008152600401620001119190620005c9565b60405180910390fd5b6200012b816200015d60201b60201c565b50604051806080016040528060438152602001620033e260439139600c90816200015691906200049d565b50620005e6565b6000600a60009054906101000a900473ffffffffffffffffffffffffffffffffffffffff16905081600a60006101000a81548173ffffffffffffffffffffffffffffffffffffffff021916908373ffffffffffffffffffffffffffffffffffffffff1602179055508173ffffffffffffffffffffffffffffffffffffffff168173ffffffffffffffffffffffffffffffffffffffff167f8be0079c531659141344cd1fd0a4f28419497f9722a3daafe3b4186f6b6457e060405160405180910390a35050565b600081519050919050565b7f4e487b7100000000000000000000000000000000000000000000000000000000600052604160045260246000fd5b7f4e487b7100000000000000000000000000000000000000000000000000000000600052602260045260246000fd5b60006002820490506001821680620002a557607f821691505b602082108103620002bb57620002ba6200025d565b5b50919050565b60008190508160005260206000209050919050565b60006020601f8301049050919050565b600082821b905092915050565b600060088302620003257fffffffffffffffffffffffffffffffffffffffffffffffffffffffffffffffff82620002e6565b620003318683620002e6565b95508019841693508086168417925050509392505050565b6000819050919050565b6000819050919050565b60006200037e62000378620003728462000349565b62000353565b62000349565b9050919050565b6000819050919050565b6200039a836200035d565b620003b2620003a98262000385565b848454620002f3565b825550505050565b600090565b620003c9620003ba565b620003d68184846200038f565b505050565b5b81811015620003fe57620003f2600082620003bf565b600181019050620003dc565b5050565b601f8211156200044d576200041781620002c1565b6200042284620002d6565b8101602085101562000432578190505b6200044a6200044185620002d6565b830182620003db565b50505b505050565b600082821c905092915050565b6000620004726000198460080262000452565b1980831691505092915050565b60006200048d83836200045f565b9150826002028217905092915050565b620004a88262000223565b67ffffffffffffffff811115620004c457620004c36200022e565b5b620004d082546200028c565b620004dd82828562000402565b600060209050601f83116001811462000515576000841562000500578287015190505b6200050c85826200047f565b8655506200057c565b601f1984166200052586620002c1565b60005b828110156200054f5784890151825560018201915060208501945060208101905062000528565b868310156200056f57848901516200056b601f8916826200045f565b8355505b6001600288020188555050505b505050505050565b600073ffffffffffffffffffffffffffffffffffffffff82169050919050565b6000620005b18262000584565b9050919050565b620005c381620005a4565b82525050565b6000602082019050620005e06000830184620005b8565b92915050565b612dec80620005f66000396000f3fe608060405234801561001057600080fd5b506004361061014d5760003560e01c80636352211e116100c357806395d89b411161007c57806395d89b41146103b0578063a22cb465146103ce578063b88d4fde146103ea578063c87b56dd14610406578063e985e9c514610436578063f2fde38b146104665761014d565b80636352211e146102da578063652550af1461030a57806370a082311461033a578063715018a61461036a57806375794a3c146103745780638da5cb5b146103925761014d565b806318160ddd1161011557806318160ddd1461020857806323b872dd146102265780632f745c591461024257806342842e0e146102725780634f6ccce71461028e57806355f804b3146102be5761014d565b806301ffc9a71461015257806306fdde0314610182578063081812fc146101a0578063095ea7b3146101d0578063129f016d146101ec575b600080fd5b61016c60048036038101906101679190612063565b610482565b60405161017991906120ab565b60405180910390f35b61018a6104fc565b6040516101979190612156565b60405180910390f35b6101ba60048036038101906101b591906121ae565b61058e565b6040516101c7919061221c565b60405180910390f35b6101ea60048036038101906101e59190612263565b6105aa565b005b610206600480360381019061020191906122a3565b6105c0565b005b61021061064e565b60405161021d91906122df565b60405180910390f35b610240600480360381019061023b91906122fa565b61065b565b005b61025c60048036038101906102579190612263565b61075d565b60405161026991906122df565b60405180910390f35b61028c600480360381019061028791906122fa565b610806565b005b6102a860048036038101906102a391906121ae565b610826565b6040516102b591906122df565b60405180910390f35b6102d860048036038101906102d39190612482565b61089c565b005b6102f460048036038101906102ef91906121ae565b6108b7565b604051610301919061221c565b60405180910390f35b610324600480360381019061031f91906121ae565b6108c9565b60405161033191906122df565b60405180910390f35b610354600480360381019061034f91906122a3565b6108e1565b60405161036191906122df565b60405180910390f35b61037261099b565b005b61037c6109af565b60405161038991906122df565b60405180910390f35b61039a6109b5565b6040516103a7919061221c565b60405180910390f35b6103b86109df565b6040516103c59190612156565b60405180910390f35b6103e860048036038101906103e391906124f7565b610a71565b005b61040460048036038101906103ff91906125d8565b610a87565b005b610420600480360381019061041b91906121ae565b610aac565b60405161042d9190612156565b60405180910390f35b610450600480360381019061044b919061265b565b610b09565b60405161045d91906120ab565b60405180910390f35b610480600480360381019061047b91906122a3565b610b9d565b005b60007f780e9d63000000000000000000000000000000000000000000000000000000007bffffffffffffffffffffffffffffffffffffffffffffffffffffffff1916827bffffffffffffffffffffffffffffffffffffffffffffffffffffffff191614806104f557506104f482610c23565b5b9050919050565b60606000805461050b906126ca565b80601f0160208091040260200160405190810160405280929190818152602001828054610537906126ca565b80156105845780601f1061055957610100808354040283529160200191610584565b820191906000526020600020905b81548152906001019060200180831161056757829003601f168201915b5050505050905090565b600061059982610d05565b506105a382610d8d565b9050919050565b6105bc82826105b7610dca565b610dd2565b5050565b6000600160104233600b546040516020016105dd93929190612764565b6040516020818303038152906040528051906020012060001c61060091906127d0565b61060a9190612830565b905080600d6000600b5481526020019081526020016000208190555061063282600b54610de4565b600b600081548092919061064590612864565b91905055505050565b6000600880549050905090565b600073ffffffffffffffffffffffffffffffffffffffff168273ffffffffffffffffffffffffffffffffffffffff16036106cd5760006040517f64a0ae920000000000000000000000000000000000000000000000000000000081526004016106c4919061221c565b60405180910390fd5b60006106e183836106dc610dca565b610e02565b90508373ffffffffffffffffffffffffffffffffffffffff168173ffffffffffffffffffffffffffffffffffffffff1614610757578382826040517f64283d7b00000000000000000000000000000000000000000000000000000000815260040161074e939291906128ac565b60405180910390fd5b50505050565b6000610768836108e1565b82106107ad5782826040517fa57d13dc0000000000000000000000000000000000000000000000000000000081526004016107a49291906128e3565b60405180910390fd5b600660008473ffffffffffffffffffffffffffffffffffffffff1673ffffffffffffffffffffffffffffffffffffffff168152602001908152602001600020600083815260200190815260200160002054905092915050565b61082183838360405180602001604052806000815250610a87565b505050565b600061083061064e565b8210610876576000826040517fa57d13dc00000000000000000000000000000000000000000000000000000000815260040161086d9291906128e3565b60405180910390fd5b6008828154811061088a5761088961290c565b5b90600052602060002001549050919050565b6108a4610f1f565b80600c90816108b39190612ae7565b5050565b60006108c282610d05565b9050919050565b600d6020528060005260406000206000915090505481565b60008073ffffffffffffffffffffffffffffffffffffffff168273ffffffffffffffffffffffffffffffffffffffff16036109545760006040517f89c62b6400000000000000000000000000000000000000000000000000000000815260040161094b919061221c565b60405180910390fd5b600360008373ffffffffffffffffffffffffffffffffffffffff1673ffffffffffffffffffffffffffffffffffffffff168152602001908152602001600020549050919050565b6109a3610f1f565b6109ad6000610fa6565b565b600b5481565b6000600a60009054906101000a900473ffffffffffffffffffffffffffffffffffffffff16905090565b6060600180546109ee906126ca565b80601f0160208091040260200160405190810160405280929190818152602001828054610a1a906126ca565b8015610a675780601f10610a3c57610100808354040283529160200191610a67565b820191906000526020600020905b815481529060010190602001808311610a4a57829003601f168201915b5050505050905090565b610a83610a7c610dca565b838361106c565b5050565b610a9284848461065b565b610aa6610a9d610dca565b858585856111db565b50505050565b6060610ab782610d05565b506000600d6000848152602001908152602001600020549050610ad861138c565b610ae18261141e565b604051602001610af2929190612c41565b604051602081830303815290604052915050919050565b6000600560008473ffffffffffffffffffffffffffffffffffffffff1673ffffffffffffffffffffffffffffffffffffffff16815260200190815260200160002060008373ffffffffffffffffffffffffffffffffffffffff1673ffffffffffffffffffffffffffffffffffffffff16815260200190815260200160002060009054906101000a900460ff16905092915050565b610ba5610f1f565b600073ffffffffffffffffffffffffffffffffffffffff168173ffffffffffffffffffffffffffffffffffffffff1603610c175760006040517f1e4fbdf7000000000000000000000000000000000000000000000000000000008152600401610c0e919061221c565b60405180910390fd5b610c2081610fa6565b50565b60007f80ac58cd000000000000000000000000000000000000000000000000000000007bffffffffffffffffffffffffffffffffffffffffffffffffffffffff1916827bffffffffffffffffffffffffffffffffffffffffffffffffffffffff19161480610cee57507f5b5e139f000000000000000000000000000000000000000000000000000000007bffffffffffffffffffffffffffffffffffffffffffffffffffffffff1916827bffffffffffffffffffffffffffffffffffffffffffffffffffffffff1916145b80610cfe5750610cfd826114ec565b5b9050919050565b600080610d1183611556565b9050600073ffffffffffffffffffffffffffffffffffffffff168173ffffffffffffffffffffffffffffffffffffffff1603610d8457826040517f7e273289000000000000000000000000000000000000000000000000000000008152600401610d7b91906122df565b60405180910390fd5b80915050919050565b60006004600083815260200190815260200160002060009054906101000a900473ffffffffffffffffffffffffffffffffffffffff169050919050565b600033905090565b610ddf8383836001611593565b505050565b610dfe828260405180602001604052806000815250611758565b5050565b600080610e1085858561177c565b9050600073ffffffffffffffffffffffffffffffffffffffff168173ffffffffffffffffffffffffffffffffffffffff1603610e5457610e4f84611996565b610e93565b8473ffffffffffffffffffffffffffffffffffffffff168173ffffffffffffffffffffffffffffffffffffffff1614610e9257610e9181856119df565b5b5b600073ffffffffffffffffffffffffffffffffffffffff168573ffffffffffffffffffffffffffffffffffffffff1603610ed557610ed084611aca565b610f14565b8473ffffffffffffffffffffffffffffffffffffffff168173ffffffffffffffffffffffffffffffffffffffff1614610f1357610f128585611b9b565b5b5b809150509392505050565b610f27610dca565b73ffffffffffffffffffffffffffffffffffffffff16610f456109b5565b73ffffffffffffffffffffffffffffffffffffffff1614610fa457610f68610dca565b6040517f118cdaa7000000000000000000000000000000000000000000000000000000008152600401610f9b919061221c565b60405180910390fd5b565b6000600a60009054906101000a900473ffffffffffffffffffffffffffffffffffffffff16905081600a60006101000a81548173ffffffffffffffffffffffffffffffffffffffff021916908373ffffffffffffffffffffffffffffffffffffffff1602179055508173ffffffffffffffffffffffffffffffffffffffff168173ffffffffffffffffffffffffffffffffffffffff167f8be0079c531659141344cd1fd0a4f28419497f9722a3daafe3b4186f6b6457e060405160405180910390a35050565b600073ffffffffffffffffffffffffffffffffffffffff168273ffffffffffffffffffffffffffffffffffffffff16036110dd57816040517f5b08ba180000000000000000000000000000000000000000000000000000000081526004016110d4919061221c565b60405180910390fd5b80600560008573ffffffffffffffffffffffffffffffffffffffff1673ffffffffffffffffffffffffffffffffffffffff16815260200190815260200160002060008473ffffffffffffffffffffffffffffffffffffffff1673ffffffffffffffffffffffffffffffffffffffff16815260200190815260200160002060006101000a81548160ff0219169083151502179055508173ffffffffffffffffffffffffffffffffffffffff168373ffffffffffffffffffffffffffffffffffffffff167f17307eab39ab6107e8899845ad3d59bd9653f200f220920489ca2b5937696c31836040516111ce91906120ab565b60405180910390a3505050565b60008373ffffffffffffffffffffffffffffffffffffffff163b1115611385578273ffffffffffffffffffffffffffffffffffffffff1663150b7a02868685856040518563ffffffff1660e01b815260040161123a9493929190612cc5565b6020604051808303816000875af192505050801561127657506040513d601f19601f820116820180604052508101906112739190612d26565b60015b6112fa573d80600081146112a6576040519150601f19603f3d011682016040523d82523d6000602084013e6112ab565b606091505b5060008151036112f257836040517f64a0ae920000000000000000000000000000000000000000000000000000000081526004016112e9919061221c565b60405180910390fd5b805160208201fd5b63150b7a0260e01b7bffffffffffffffffffffffffffffffffffffffffffffffffffffffff1916817bffffffffffffffffffffffffffffffffffffffffffffffffffffffff19161461138357836040517f64a0ae9200000000000000000000000000000000000000000000000000000000815260040161137a919061221c565b60405180910390fd5b505b5050505050565b6060600c805461139b906126ca565b80601f01602080910402602001604051908101604052809291908181526020018280546113c7906126ca565b80156114145780601f106113e957610100808354040283529160200191611414565b820191906000526020600020905b8154815290600101906020018083116113f757829003601f168201915b5050505050905090565b60606000600161142d84611c26565b01905060008167ffffffffffffffff81111561144c5761144b612357565b5b6040519080825280601f01601f19166020018201604052801561147e5781602001600182028036833780820191505090505b509050600082602083010190505b6001156114e1578080600190039150507f3031323334353637383961626364656600000000000000000000000000000000600a86061a8153600a85816114d5576114d46127a1565b5b0494506000850361148c575b819350505050919050565b60007f01ffc9a7000000000000000000000000000000000000000000000000000000007bffffffffffffffffffffffffffffffffffffffffffffffffffffffff1916827bffffffffffffffffffffffffffffffffffffffffffffffffffffffff1916149050919050565b60006002600083815260200190815260200160002060009054906101000a900473ffffffffffffffffffffffffffffffffffffffff169050919050565b80806115cc5750600073ffffffffffffffffffffffffffffffffffffffff168273ffffffffffffffffffffffffffffffffffffffff1614155b156117005760006115dc84610d05565b9050600073ffffffffffffffffffffffffffffffffffffffff168373ffffffffffffffffffffffffffffffffffffffff161415801561164757508273ffffffffffffffffffffffffffffffffffffffff168173ffffffffffffffffffffffffffffffffffffffff1614155b801561165a57506116588184610b09565b155b1561169c57826040517fa9fbf51f000000000000000000000000000000000000000000000000000000008152600401611693919061221c565b60405180910390fd5b81156116fe57838573ffffffffffffffffffffffffffffffffffffffff168273ffffffffffffffffffffffffffffffffffffffff167f8c5be1e5ebec7d5bd14f71427d1e84f3dd0314c0f7b2291e5b200ac8c7c3b92560405160405180910390a45b505b836004600085815260200190815260200160002060006101000a81548173ffffffffffffffffffffffffffffffffffffffff021916908373ffffffffffffffffffffffffffffffffffffffff16021790555050505050565b6117628383611d79565b61177761176d610dca565b60008585856111db565b505050565b60008061178884611556565b9050600073ffffffffffffffffffffffffffffffffffffffff168373ffffffffffffffffffffffffffffffffffffffff16146117ca576117c9818486611e72565b5b600073ffffffffffffffffffffffffffffffffffffffff168173ffffffffffffffffffffffffffffffffffffffff161461185b5761180c600085600080611593565b6001600360008373ffffffffffffffffffffffffffffffffffffffff1673ffffffffffffffffffffffffffffffffffffffff168152602001908152602001600020600082825403925050819055505b600073ffffffffffffffffffffffffffffffffffffffff168573ffffffffffffffffffffffffffffffffffffffff16146118de576001600360008773ffffffffffffffffffffffffffffffffffffffff1673ffffffffffffffffffffffffffffffffffffffff168152602001908152602001600020600082825401925050819055505b846002600086815260200190815260200160002060006101000a81548173ffffffffffffffffffffffffffffffffffffffff021916908373ffffffffffffffffffffffffffffffffffffffff160217905550838573ffffffffffffffffffffffffffffffffffffffff168273ffffffffffffffffffffffffffffffffffffffff167fddf252ad1be2c89b69c2b068fc378daa952ba7f163c4a11628f55a4df523b3ef60405160405180910390a4809150509392505050565b6008805490506009600083815260200190815260200160002081905550600881908060018154018082558091505060019003906000526020600020016000909190919091505550565b60006119ea836108e1565b90506000600760008481526020019081526020016000205490506000600660008673ffffffffffffffffffffffffffffffffffffffff1673ffffffffffffffffffffffffffffffffffffffff1681526020019081526020016000209050828214611a965760008160008581526020019081526020016000205490508082600085815260200190815260200160002081905550826007600083815260200190815260200160002081905550505b6007600085815260200190815260200160002060009055806000848152602001908152602001600020600090555050505050565b60006001600880549050611ade9190612d53565b9050600060096000848152602001908152602001600020549050600060088381548110611b0e57611b0d61290c565b5b906000526020600020015490508060088381548110611b3057611b2f61290c565b5b906000526020600020018190555081600960008381526020019081526020016000208190555060096000858152602001908152602001600020600090556008805480611b7f57611b7e612d87565b5b6001900381819060005260206000200160009055905550505050565b60006001611ba8846108e1565b611bb29190612d53565b905081600660008573ffffffffffffffffffffffffffffffffffffffff1673ffffffffffffffffffffffffffffffffffffffff168152602001908152602001600020600083815260200190815260200160002081905550806007600084815260200190815260200160002081905550505050565b600080600090507a184f03e93ff9f4daa797ed6e38ed64bf6a1f0100000000000000008310611c84577a184f03e93ff9f4daa797ed6e38ed64bf6a1f0100000000000000008381611c7a57611c796127a1565b5b0492506040810190505b6d04ee2d6d415b85acef81000000008310611cc1576d04ee2d6d415b85acef81000000008381611cb757611cb66127a1565b5b0492506020810190505b662386f26fc100008310611cf057662386f26fc100008381611ce657611ce56127a1565b5b0492506010810190505b6305f5e1008310611d19576305f5e1008381611d0f57611d0e6127a1565b5b0492506008810190505b6127108310611d3e576127108381611d3457611d336127a1565b5b0492506004810190505b60648310611d615760648381611d5757611d566127a1565b5b0492506002810190505b600a8310611d70576001810190505b80915050919050565b600073ffffffffffffffffffffffffffffffffffffffff168273ffffffffffffffffffffffffffffffffffffffff1603611deb5760006040517f64a0ae92000000000000000000000000000000000000000000000000000000008152600401611de2919061221c565b60405180910390fd5b6000611df983836000610e02565b9050600073ffffffffffffffffffffffffffffffffffffffff168173ffffffffffffffffffffffffffffffffffffffff1614611e6d5760006040517f73c6ac6e000000000000000000000000000000000000000000000000000000008152600401611e64919061221c565b60405180910390fd5b505050565b611e7d838383611f36565b611f3157600073ffffffffffffffffffffffffffffffffffffffff168373ffffffffffffffffffffffffffffffffffffffff1603611ef257806040517f7e273289000000000000000000000000000000000000000000000000000000008152600401611ee991906122df565b60405180910390fd5b81816040517f177e802f000000000000000000000000000000000000000000000000000000008152600401611f289291906128e3565b60405180910390fd5b505050565b60008073ffffffffffffffffffffffffffffffffffffffff168373ffffffffffffffffffffffffffffffffffffffff1614158015611fee57508273ffffffffffffffffffffffffffffffffffffffff168473ffffffffffffffffffffffffffffffffffffffff161480611faf5750611fae8484610b09565b5b80611fed57508273ffffffffffffffffffffffffffffffffffffffff16611fd583610d8d565b73ffffffffffffffffffffffffffffffffffffffff16145b5b90509392505050565b6000604051905090565b600080fd5b600080fd5b60007fffffffff0000000000000000000000000000000000000000000000000000000082169050919050565b6120408161200b565b811461204b57600080fd5b50565b60008135905061205d81612037565b92915050565b60006020828403121561207957612078612001565b5b60006120878482850161204e565b91505092915050565b60008115159050919050565b6120a581612090565b82525050565b60006020820190506120c0600083018461209c565b92915050565b600081519050919050565b600082825260208201905092915050565b60005b838110156121005780820151818401526020810190506120e5565b60008484015250505050565b6000601f19601f8301169050919050565b6000612128826120c6565b61213281856120d1565b93506121428185602086016120e2565b61214b8161210c565b840191505092915050565b60006020820190508181036000830152612170818461211d565b905092915050565b6000819050919050565b61218b81612178565b811461219657600080fd5b50565b6000813590506121a881612182565b92915050565b6000602082840312156121c4576121c3612001565b5b60006121d284828501612199565b91505092915050565b600073ffffffffffffffffffffffffffffffffffffffff82169050919050565b6000612206826121db565b9050919050565b612216816121fb565b82525050565b6000602082019050612231600083018461220d565b92915050565b612240816121fb565b811461224b57600080fd5b50565b60008135905061225d81612237565b92915050565b6000806040838503121561227a57612279612001565b5b60006122888582860161224e565b925050602061229985828601612199565b9150509250929050565b6000602082840312156122b9576122b8612001565b5b60006122c78482850161224e565b91505092915050565b6122d981612178565b82525050565b60006020820190506122f460008301846122d0565b92915050565b60008060006060848603121561231357612312612001565b5b60006123218682870161224e565b93505060206123328682870161224e565b925050604061234386828701612199565b9150509250925092565b600080fd5b600080fd5b7f4e487b7100000000000000000000000000000000000000000000000000000000600052604160045260246000fd5b61238f8261210c565b810181811067ffffffffffffffff821117156123ae576123ad612357565b5b80604052505050565b60006123c1611ff7565b90506123cd8282612386565b919050565b600067ffffffffffffffff8211156123ed576123ec612357565b5b6123f68261210c565b9050602081019050919050565b82818337600083830152505050565b6000612425612420846123d2565b6123b7565b90508281526020810184848401111561244157612440612352565b5b61244c848285612403565b509392505050565b600082601f8301126124695761246861234d565b5b8135612479848260208601612412565b91505092915050565b60006020828403121561249857612497612001565b5b600082013567ffffffffffffffff8111156124b6576124b5612006565b5b6124c284828501612454565b91505092915050565b6124d481612090565b81146124df57600080fd5b50565b6000813590506124f1816124cb565b92915050565b6000806040838503121561250e5761250d612001565b5b600061251c8582860161224e565b925050602061252d858286016124e2565b9150509250929050565b600067ffffffffffffffff82111561255257612551612357565b5b61255b8261210c565b9050602081019050919050565b600061257b61257684612537565b6123b7565b90508281526020810184848401111561259757612596612352565b5b6125a2848285612403565b509392505050565b600082601f8301126125bf576125be61234d565b5b81356125cf848260208601612568565b91505092915050565b600080600080608085870312156125f2576125f1612001565b5b60006126008782880161224e565b94505060206126118782880161224e565b935050604061262287828801612199565b925050606085013567ffffffffffffffff81111561264357612642612006565b5b61264f878288016125aa565b91505092959194509250565b6000806040838503121561267257612671612001565b5b60006126808582860161224e565b92505060206126918582860161224e565b9150509250929050565b7f4e487b7100000000000000000000000000000000000000000000000000000000600052602260045260246000fd5b600060028204905060018216806126e257607f821691505b6020821081036126f5576126f461269b565b5b50919050565b6000819050919050565b61271661271182612178565b6126fb565b82525050565b60008160601b9050919050565b60006127348261271c565b9050919050565b600061274682612729565b9050919050565b61275e612759826121fb565b61273b565b82525050565b60006127708286612705565b602082019150612780828561274d565b6014820191506127908284612705565b602082019150819050949350505050565b7f4e487b7100000000000000000000000000000000000000000000000000000000600052601260045260246000fd5b60006127db82612178565b91506127e683612178565b9250826127f6576127f56127a1565b5b828206905092915050565b7f4e487b7100000000000000000000000000000000000000000000000000000000600052601160045260246000fd5b600061283b82612178565b915061284683612178565b925082820190508082111561285e5761285d612801565b5b92915050565b600061286f82612178565b91507fffffffffffffffffffffffffffffffffffffffffffffffffffffffffffffffff82036128a1576128a0612801565b5b600182019050919050565b60006060820190506128c1600083018661220d565b6128ce60208301856122d0565b6128db604083018461220d565b949350505050565b60006040820190506128f8600083018561220d565b61290560208301846122d0565b9392505050565b7f4e487b7100000000000000000000000000000000000000000000000000000000600052603260045260246000fd5b60008190508160005260206000209050919050565b60006020601f8301049050919050565b600082821b905092915050565b60006008830261299d7fffffffffffffffffffffffffffffffffffffffffffffffffffffffffffffffff82612960565b6129a78683612960565b95508019841693508086168417925050509392505050565b6000819050919050565b60006129e46129df6129da84612178565b6129bf565b612178565b9050919050565b6000819050919050565b6129fe836129c9565b612a12612a0a826129eb565b84845461296d565b825550505050565b600090565b612a27612a1a565b612a328184846129f5565b505050565b5b81811015612a5657612a4b600082612a1f565b600181019050612a38565b5050565b601f821115612a9b57612a6c8161293b565b612a7584612950565b81016020851015612a84578190505b612a98612a9085612950565b830182612a37565b50505b505050565b600082821c905092915050565b6000612abe60001984600802612aa0565b1980831691505092915050565b6000612ad78383612aad565b9150826002028217905092915050565b612af0826120c6565b67ffffffffffffffff811115612b0957612b08612357565b5b612b1382546126ca565b612b1e828285612a5a565b600060209050601f831160018114612b515760008415612b3f578287015190505b612b498582612acb565b865550612bb1565b601f198416612b5f8661293b565b60005b82811015612b8757848901518255600182019150602085019450602081019050612b62565b86831015612ba45784890151612ba0601f891682612aad565b8355505b6001600288020188555050505b505050505050565b600081905092915050565b6000612bcf826120c6565b612bd98185612bb9565b9350612be98185602086016120e2565b80840191505092915050565b7f2e6a736f6e000000000000000000000000000000000000000000000000000000600082015250565b6000612c2b600583612bb9565b9150612c3682612bf5565b600582019050919050565b6000612c4d8285612bc4565b9150612c598284612bc4565b9150612c6482612c1e565b91508190509392505050565b600081519050919050565b600082825260208201905092915050565b6000612c9782612c70565b612ca18185612c7b565b9350612cb18185602086016120e2565b612cba8161210c565b840191505092915050565b6000608082019050612cda600083018761220d565b612ce7602083018661220d565b612cf460408301856122d0565b8181036060830152612d068184612c8c565b905095945050505050565b600081519050612d2081612037565b92915050565b600060208284031215612d3c57612d3b612001565b5b6000612d4a84828501612d11565b91505092915050565b6000612d5e82612178565b9150612d6983612178565b9250828203905081811115612d8157612d80612801565b5b92915050565b7f4e487b7100000000000000000000000000000000000000000000000000000000600052603160045260246000fdfea26469706673582212207d8a2223768e75e195176070583509c3e6dd540fa53039a14ac065d58a23f79364736f6c63430008140033697066733a2f2f626166796265696637786176737536686a70743761616270756d746f7934347871757a6d676f7532666b6f6c6477766d6f7033696b33326a6263712f",
  "linkReferences": {},
  "deployedLinkReferences": {}
}