{
  "_format": "hh-sol-artifact-1",
  "contractName": "Marketplace",
  "sourceName": "contracts/Marketplace.sol",
  "abi": [
    {
      "inputs": [
        {
          "internalType": "address",
          "name": "_nftContrato",
          "type": "address"
        }
      ],
      "stateMutability": "nonpayable",
      "type": "constructor"
    },
    {
      "inputs": [],
      "name": "ReentrancyGuardReentrantCall",
      "type": "error"
    },
    {
      "anonymous": false,
      "inputs": [
        {
          "indexed": true,
          "internalType": "uint256",
          "name": "tokenId",
          "type": "uint256"
        },
        {
          "indexed": true,
          "internalType": "address",
          "name": "vendedor",
          "type": "address"
        }
      ],
      "name": "ListadoCancelado",
      "type": "event"
    },
    {
      "anonymous": false,
      "inputs": [
        {
          "indexed": true,
          "internalType": "uint256",
          "name": "tokenId",
          "type": "uint256"
        },
        {
          "indexed": true,
          "internalType": "address",
          "name": "vendedor",
          "type": "address"
        },
        {
          "indexed": false,
          "internalType": "uint256",
          "name": "precio",
          "type": "uint256"
        }
      ],
      "name": "NFTListado",
      "type": "event"
    },
    {
      "anonymous": false,
      "inputs": [
        {
          "indexed": true,
          "internalType": "uint256",
          "name": "tokenId",
          "type": "uint256"
        },
        {
          "indexed": true,
          "internalType": "address",
          "name": "vendedor",
          "type": "address"
        },
        {
          "indexed": true,
          "internalType": "address",
          "name": "comprador",
          "type": "address"
        },
        {
          "indexed": false,
          "internalType": "uint256",
          "name": "precio",
          "type": "uint256"
        }
      ],
      "name": "NFTVendido",
      "type": "event"
    },
    {
      "anonymous": false,
      "inputs": [
        {
          "indexed": true,
          "internalType": "uint256",
          "name": "ofertaId",
          "type": "uint256"
        },
        {
          "indexed": true,
          "internalType": "address",
          "name": "propietario",
          "type": "address"
        },
        {
          "indexed": true,
          "internalType": "address",
          "name": "oferente",
          "type": "address"
        }
      ],
      "name": "OfertaETHAceptada",
      "type": "event"
    },
    {
      "anonymous": false,
      "inputs": [
        {
          "indexed": true,
          "internalType": "uint256",
          "name": "ofertaId",
          "type": "uint256"
        }
      ],
      "name": "OfertaETHCancelada",
      "type": "event"
    },
    {
      "anonymous": false,
      "inputs": [
        {
          "indexed": true,
          "internalType": "uint256",
          "name": "ofertaId",
          "type": "uint256"
        },
        {
          "indexed": true,
          "internalType": "address",
          "name": "oferente",
          "type": "address"
        },
        {
          "indexed": true,
          "internalType": "uint256",
          "name": "tokenId",
          "type": "uint256"
        },
        {
          "indexed": false,
          "internalType": "uint256",
          "name": "monto",
          "type": "uint256"
        }
      ],
      "name": "OfertaETHCreada",
      "type": "event"
    },
    {
      "anonymous": false,
      "inputs": [
        {
          "indexed": true,
          "internalType": "uint256",
          "name": "ofertaId",
          "type": "uint256"
        }
      ],
      "name": "OfertaETHRechazada",
      "type": "event"
    },
    {
      "anonymous": false,
      "inputs": [
        {
          "indexed": true,
          "internalType": "uint256",
          "name": "ofertaId",
          "type": "uint256"
        }
      ],
      "name": "OfertaIntercambioAceptada",
      "type": "event"
    },
    {
      "anonymous": false,
      "inputs": [
        {
          "indexed": true,
          "internalType": "uint256",
          "name": "ofertaId",
          "type": "uint256"
        }
      ],
      "name": "OfertaIntercambioCancelada",
      "type": "event"
    },
    {
      "anonymous": false,
      "inputs": [
        {
          "indexed": true,
          "internalType": "uint256",
          "name": "ofertaId",
          "type": "uint256"
        },
        {
          "indexed": true,
          "internalType": "address",
          "name": "oferente",
          "type": "address"
        },
        {
          "indexed": true,
          "internalType": "address",
          "name": "destinatario",
          "type": "address"
        }
      ],
      "name": "OfertaIntercambioCreada",
      "type": "event"
    },
    {
      "anonymous": false,
      "inputs": [
        {
          "indexed": true,
          "internalType": "uint256",
          "name": "ofertaId",
          "type": "uint256"
        }
      ],
      "name": "OfertaIntercambioRechazada",
      "type": "event"
    },
    {
      "anonymous": false,
      "inputs": [
        {
          "indexed": true,
          "internalType": "uint256",
          "name": "subastaId",
          "type": "uint256"
        },
        {
          "indexed": true,
          "internalType": "address",
          "name": "postor",
          "type": "address"
        },
        {
          "indexed": false,
          "internalType": "uint256",
          "name": "monto",
          "type": "uint256"
        }
      ],
      "name": "PujaRealizada",
      "type": "event"
    },
    {
      "anonymous": false,
      "inputs": [
        {
          "indexed": true,
          "internalType": "uint256",
          "name": "subastaId",
          "type": "uint256"
        }
      ],
      "name": "SubastaCancelada",
      "type": "event"
    },
    {
      "anonymous": false,
      "inputs": [
        {
          "indexed": true,
          "internalType": "uint256",
          "name": "subastaId",
          "type": "uint256"
        },
        {
          "indexed": true,
          "internalType": "address",
          "name": "vendedor",
          "type": "address"
        },
        {
          "indexed": true,
          "internalType": "uint256",
          "name": "tokenId",
          "type": "uint256"
        },
        {
          "indexed": false,
          "internalType": "uint256",
          "name": "precioMinimo",
          "type": "uint256"
        },
        {
          "indexed": false,
          "internalType": "uint256",
          "name": "fin",
          "type": "uint256"
        }
      ],
      "name": "SubastaCreada",
      "type": "event"
    },
    {
      "anonymous": false,
      "inputs": [
        {
          "indexed": true,
          "internalType": "uint256",
          "name": "subastaId",
          "type": "uint256"
        },
        {
          "indexed": false,
          "internalType": "address",
          "name": "ganador",
          "type": "address"
        },
        {
          "indexed": false,
          "internalType": "uint256",
          "name": "montoFinal",
          "type": "uint256"
        }
      ],
      "name": "SubastaFinalizada",
      "type": "event"
    },
    {
      "inputs": [],
      "name": "EXTENSION_ANTISNIPE",
      "outputs": [
        {
          "internalType": "uint256",
          "name": "",
          "type": "uint256"
        }
      ],
      "stateMutability": "view",
      "type": "function"
    },
    {
      "inputs": [
        {
          "internalType": "uint256",
          "name": "ofertaId",
          "type": "uint256"
        }
      ],
      "name": "aceptarOfertaETH",
      "outputs": [],
      "stateMutability": "nonpayable",
      "type": "function"
    },
    {
      "inputs": [
        {
          "internalType": "uint256",
          "name": "ofertaId",
          "type": "uint256"
        }
      ],
      "name": "aceptarOfertaIntercambio",
      "outputs": [],
      "stateMutability": "nonpayable",
      "type": "function"
    },
    {
      "inputs": [
        {
          "internalType": "uint256",
          "name": "tokenId",
          "type": "uint256"
        }
      ],
      "name": "cancelarListado",
      "outputs": [],
      "stateMutability": "nonpayable",
      "type": "function"
    },
    {
      "inputs": [
        {
          "internalType": "uint256",
          "name": "ofertaId",
          "type": "uint256"
        }
      ],
      "name": "cancelarOfertaETH",
      "outputs": [],
      "stateMutability": "nonpayable",
      "type": "function"
    },
    {
      "inputs": [
        {
          "internalType": "uint256",
          "name": "ofertaId",
          "type": "uint256"
        }
      ],
      "name": "cancelarOfertaIntercambio",
      "outputs": [],
      "stateMutability": "nonpayable",
      "type": "function"
    },
    {
      "inputs": [
        {
          "internalType": "uint256",
          "name": "subastaId",
          "type": "uint256"
        }
      ],
      "name": "cancelarSubasta",
      "outputs": [],
      "stateMutability": "nonpayable",
      "type": "function"
    },
    {
      "inputs": [
        {
          "internalType": "uint256",
          "name": "tokenId",
          "type": "uint256"
        }
      ],
      "name": "comprarNFT",
      "outputs": [],
      "stateMutability": "payable",
      "type": "function"
    },
    {
      "inputs": [
        {
          "internalType": "uint256",
          "name": "tokenId",
          "type": "uint256"
        }
      ],
      "name": "crearOfertaETH",
      "outputs": [],
      "stateMutability": "payable",
      "type": "function"
    },
    {
      "inputs": [
        {
          "internalType": "uint256[]",
          "name": "tokensOfrecidos",
          "type": "uint256[]"
        },
        {
          "internalType": "uint256[]",
          "name": "tokensSolicitados",
          "type": "uint256[]"
        },
        {
          "internalType": "address",
          "name": "destinatario",
          "type": "address"
        }
      ],
      "name": "crearOfertaIntercambio",
      "outputs": [],
      "stateMutability": "nonpayable",
      "type": "function"
    },
    {
      "inputs": [
        {
          "internalType": "uint256",
          "name": "tokenId",
          "type": "uint256"
        },
        {
          "internalType": "uint256",
          "name": "precioMinimo",
          "type": "uint256"
        },
        {
          "internalType": "uint256",
          "name": "duracionHoras",
          "type": "uint256"
        }
      ],
      "name": "crearSubasta",
      "outputs": [],
      "stateMutability": "nonpayable",
      "type": "function"
    },
    {
      "inputs": [
        {
          "internalType": "uint256",
          "name": "subastaId",
          "type": "uint256"
        }
      ],
      "name": "finalizarSubasta",
      "outputs": [],
      "stateMutability": "nonpayable",
      "type": "function"
    },
    {
      "inputs": [
        {
          "internalType": "uint256",
          "name": "",
          "type": "uint256"
        }
      ],
      "name": "listados",
      "outputs": [
        {
          "internalType": "address",
          "name": "vendedor",
          "type": "address"
        },
        {
          "internalType": "uint256",
          "name": "precio",
          "type": "uint256"
        },
        {
          "internalType": "bool",
          "name": "activo",
          "type": "bool"
        }
      ],
      "stateMutability": "view",
      "type": "function"
    },
    {
      "inputs": [
        {
          "internalType": "uint256",
          "name": "tokenId",
          "type": "uint256"
        },
        {
          "internalType": "uint256",
          "name": "precio",
          "type": "uint256"
        }
      ],
      "name": "listarNFT",
      "outputs": [],
      "stateMutability": "nonpayable",
      "type": "function"
    },
    {
      "inputs": [],
      "name": "nextOfertaETHId",
      "outputs": [
        {
          "internalType": "uint256",
          "name": "",
          "type": "uint256"
        }
      ],
      "stateMutability": "view",
      "type": "function"
    },
    {
      "inputs": [],
      "name": "nextOfertaIntercambioId",
      "outputs": [
        {
          "internalType": "uint256",
          "name": "",
          "type": "uint256"
        }
      ],
      "stateMutability": "view",
      "type": "function"
    },
    {
      "inputs": [],
      "name": "nextSubastaId",
      "outputs": [
        {
          "internalType": "uint256",
          "name": "",
          "type": "uint256"
        }
      ],
      "stateMutability": "view",
      "type": "function"
    },
    {
      "inputs": [],
      "name": "nftContrato",
      "outputs": [
        {
          "internalType": "contract IERC721",
          "name": "",
          "type": "address"
        }
      ],
      "stateMutability": "view",
      "type": "function"
    },
    {
      "inputs": [
        {
          "internalType": "uint256",
          "name": "tokenId",
          "type": "uint256"
        }
      ],
      "name": "obtenerListado",
      "outputs": [
        {
          "internalType": "address",
          "name": "vendedor",
          "type": "address"
        },
        {
          "internalType": "uint256",
          "name": "precio",
          "type": "uint256"
        },
        {
          "internalType": "bool",
          "name": "activo",
          "type": "bool"
        }
      ],
      "stateMutability": "view",
      "type": "function"
    },
    {
      "inputs": [
        {
          "internalType": "uint256",
          "name": "ofertaId",
          "type": "uint256"
        }
      ],
      "name": "obtenerOfertaETH",
      "outputs": [
        {
          "internalType": "address",
          "name": "oferente",
          "type": "address"
        },
        {
          "internalType": "uint256",
          "name": "tokenIdObjetivo",
          "type": "uint256"
        },
        {
          "internalType": "uint256",
          "name": "montoETH",
          "type": "uint256"
        },
        {
          "internalType": "bool",
          "name": "activa",
          "type": "bool"
        }
      ],
      "stateMutability": "view",
      "type": "function"
    },
    {
      "inputs": [
        {
          "internalType": "uint256",
          "name": "ofertaId",
          "type": "uint256"
        }
      ],
      "name": "obtenerOfertaIntercambio",
      "outputs": [
        {
          "internalType": "address",
          "name": "oferente",
          "type": "address"
        },
        {
          "internalType": "address",
          "name": "destinatario",
          "type": "address"
        },
        {
          "internalType": "uint256[]",
          "name": "tokensOfrecidos",
          "type": "uint256[]"
        },
        {
          "internalType": "uint256[]",
          "name": "tokensSolicitados",
          "type": "uint256[]"
        },
        {
          "internalType": "bool",
          "name": "activa",
          "type": "bool"
        }
      ],
      "stateMutability": "view",
      "type": "function"
    },
    {
      "inputs": [
        {
          "internalType": "uint256",
          "name": "subastaId",
          "type": "uint256"
        }
      ],
      "name": "obtenerSubasta",
      "outputs": [
        {
          "internalType": "address",
          "name": "vendedor",
          "type": "address"
        },
        {
          "internalType": "uint256",
          "name": "tokenId",
          "type": "uint256"
        },
        {
          "internalType": "uint256",
          "name": "precioMinimo",
          "type": "uint256"
        },
        {
          "internalType": "uint256",
          "name": "pujaActual",
          "type": "uint256"
        },
        {
          "internalType": "address",
          "name": "mejorPostor",
          "type": "address"
        },
        {
          "internalType": "uint256",
          "name": "inicio",
          "type": "uint256"
        },
        {
          "internalType": "uint256",
          "name": "fin",
          "type": "uint256"
        },
        {
          "internalType": "bool",
          "name": "activa",
          "type": "bool"
        },
        {
          "internalType": "bool",
          "name": "finalizada",
          "type": "bool"
        }
      ],
      "stateMutability": "view",
      "type": "function"
    },
    {
      "inputs": [],
      "name": "obtenerTodosListados",
      "outputs": [
        {
          "internalType": "uint256[]",
          "name": "",
          "type": "uint256[]"
        }
      ],
      "stateMutability": "view",
      "type": "function"
    },
    {
      "inputs": [
        {
          "internalType": "uint256",
          "name": "",
          "type": "uint256"
        }
      ],
      "name": "ofertasETH",
      "outputs": [
        {
          "internalType": "address",
          "name": "oferente",
          "type": "address"
        },
        {
          "internalType": "uint256",
          "name": "tokenIdObjetivo",
          "type": "uint256"
        },
        {
          "internalType": "uint256",
          "name": "montoETH",
          "type": "uint256"
        },
        {
          "internalType": "bool",
          "name": "activa",
          "type": "bool"
        }
      ],
      "stateMutability": "view",
      "type": "function"
    },
    {
      "inputs": [
        {
          "internalType": "uint256",
          "name": "",
          "type": "uint256"
        }
      ],
      "name": "ofertasIntercambio",
      "outputs": [
        {
          "internalType": "address",
          "name": "oferente",
          "type": "address"
        },
        {
          "internalType": "address",
          "name": "destinatario",
          "type": "address"
        },
        {
          "internalType": "bool",
          "name": "activa",
          "type": "bool"
        }
      ],
      "stateMutability": "view",
      "type": "function"
    },
    {
      "inputs": [
        {
          "internalType": "uint256",
          "name": "subastaId",
          "type": "uint256"
        }
      ],
      "name": "pujar",
      "outputs": [],
      "stateMutability": "payable",
      "type": "function"
    },
    {
      "inputs": [
        {
          "internalType": "uint256",
          "name": "ofertaId",
          "type": "uint256"
        }
      ],
      "name": "rechazarOfertaETH",
      "outputs": [],
      "stateMutability": "nonpayable",
      "type": "function"
    },
    {
      "inputs": [
        {
          "internalType": "uint256",
          "name": "ofertaId",
          "type": "uint256"
        }
      ],
      "name": "rechazarOfertaIntercambio",
      "outputs": [],
      "stateMutability": "nonpayable",
      "type": "function"
    },
    {
      "inputs": [
        {
          "internalType": "uint256",
          "name": "",
          "type": "uint256"
        }
      ],
      "name": "subastaActivaDeToken",
      "outputs": [
        {
          "internalType": "uint256",
          "name": "",
          "type": "uint256"
        }
      ],
      "stateMutability": "view",
      "type": "function"
    },
    {
      "inputs": [
        {
          "internalType": "uint256",
          "name": "",
          "type": "uint256"
        }
      ],
      "name": "subastas",
      "outputs": [
        {
          "internalType": "address",
          "name": "vendedor",
          "type": "address"
        },
        {
          "internalType": "uint256",
          "name": "tokenId",
          "type": "uint256"
        },
        {
          "internalType": "uint256",
          "name": "precioMinimo",
          "type": "uint256"
        },
        {
          "internalType": "uint256",
          "name": "pujaActual",
          "type": "uint256"
        },
        {
          "internalType": "address",
          "name": "mejorPostor",
          "type": "address"
        },
        {
          "internalType": "uint256",
          "name": "inicio",
          "type": "uint256"
        },
        {
          "internalType": "uint256",
          "name": "fin",
          "type": "uint256"
        },
        {
          "internalType": "bool",
          "name": "activa",
          "type": "bool"
        },
        {
          "internalType": "bool",
          "name": "finalizada",
          "type": "bool"
        }
      ],
      "stateMutability": "view",
      "type": "function"
    },
    {
      "inputs": [
        {
          "internalType": "uint256",
          "name": "",
          "type": "uint256"
        }
      ],
      "name": "tokenTieneSubasta",
      "outputs": [
        {
          "internalType": "bool",
          "name": "",
          "type": "bool"
        }
      ],
      "stateMutability": "view",
      "type": "function"
    },
    {
      "inputs": [],
      "name": "totalListados",
      "outputs": [
        {
          "internalType": "uint256",
          "name": "",
          "type": "uint256"
        }
      ],
      "stateMutability": "view",
      "type": "function"
    },
    {
      "inputs": [],
      "name": "totalSubastas",
      "outputs": [
        {
          "internalType": "uint256",
          "name": "",
          "type": "uint256"
        }
      ],
      "stateMutability": "view",
      "type": "function"
    }
  ],
  "bytecode": "0x60a06040523480156200001157600080fd5b5060405162006f7d38038062006f7d833981810160405281019062000037919062000156565b6001600081905550600073ffffffffffffffffffffffffffffffffffffffff168173ffffffffffffffffffffffffffffffffffffffff1603620000b1576040517f08c379a0000000000000000000000000000000000000000000000000000000008152600401620000a890620001e9565b60405180910390fd5b8073ffffffffffffffffffffffffffffffffffffffff1660808173ffffffffffffffffffffffffffffffffffffffff1681525050506200020b565b600080fd5b600073ffffffffffffffffffffffffffffffffffffffff82169050919050565b60006200011e82620000f1565b9050919050565b620001308162000111565b81146200013c57600080fd5b50565b600081519050620001508162000125565b92915050565b6000602082840312156200016f576200016e620000ec565b5b60006200017f848285016200013f565b91505092915050565b600082825260208201905092915050565b7f446972656363696f6e20696e76616c6964610000000000000000000000000000600082015250565b6000620001d160128362000188565b9150620001de8262000199565b602082019050919050565b600060208201905081810360008301526200020481620001c2565b9050919050565b608051616cae620002cf60003960008181610c9501528181610d9c01528181610e5301528181610f920152818161109901528181611150015281816113210152818161148801528181611566015281816116c201528181611a1001528181611b1701528181611bce015281816120360152818161267a01528181612e8f01528181612fd1015281816133ff01528181613506015281816135bd01528181613eb20152818161431b01528181614422015281816144d901526146700152616cae6000f3fe6080604052600436106101ee5760003560e01c80638434f0a21161010d578063b986910d116100a0578063d1c066471161006f578063d1c0664714610728578063d56657e114610751578063dbf7f79a1461077a578063ee7b23e9146107bb578063f144e23a146107e4576101ee565b8063b986910d14610674578063bcbbe75314610690578063bda84a27146106cf578063ccf428bc146106eb576101ee565b806398e034b6116100dc57806398e034b6146105b75780639bd168c3146105e05780639f4c17231461060b578063a26a29981461064b576101ee565b80638434f0a2146104fa578063938f4dbf146105235780639401a52c1461054e57806398a6f3201461058e576101ee565b8063355597431161018557806358d084f41161015457806358d084f41461043157806362cc8c7c1461045c578063733d50d41461047857806383d1acae146104bd576101ee565b8063355597431461035b5780634172f6e8146103a0578063507a7430146103c957806357a0867114610408576101ee565b80632b2f7d7e116101c15780632b2f7d7e1461029d5780632e84cb20146102c85780632fa3573d1461030757806330ea3f8f14610330576101ee565b80630f4f356a146101f35780630f981d8e1461021e5780631f8846991461024757806320f7f28f14610272575b600080fd5b3480156101ff57600080fd5b5061020861080d565b6040516102159190615077565b60405180910390f35b34801561022a57600080fd5b50610245600480360381019061024091906150cf565b610865565b005b34801561025357600080fd5b5061025c610a8d565b604051610269919061510b565b60405180910390f35b34801561027e57600080fd5b50610287610a93565b604051610294919061510b565b60405180910390f35b3480156102a957600080fd5b506102b2610a99565b6040516102bf919061510b565b60405180910390f35b3480156102d457600080fd5b506102ef60048036038101906102ea91906150cf565b610aa3565b6040516102fe93929190615182565b60405180910390f35b34801561031357600080fd5b5061032e600480360381019061032991906150cf565b610b1a565b005b34801561033c57600080fd5b50610345611564565b6040516103529190615218565b60405180910390f35b34801561036757600080fd5b50610382600480360381019061037d91906150cf565b611588565b60405161039799989796959493929190615233565b60405180910390f35b3480156103ac57600080fd5b506103c760048036038101906103c291906150cf565b611630565b005b3480156103d557600080fd5b506103f060048036038101906103eb91906150cf565b6118e8565b6040516103ff939291906152c0565b60405180910390f35b34801561041457600080fd5b5061042f600480360381019061042a91906152f7565b6119a6565b005b34801561043d57600080fd5b50610446611fcd565b604051610453919061510b565b60405180910390f35b610476600480360381019061047191906150cf565b611fda565b005b34801561048457600080fd5b5061049f600480360381019061049a91906150cf565b612298565b6040516104b499989796959493929190615233565b60405180910390f35b3480156104c957600080fd5b506104e460048036038101906104df91906150cf565b61242a565b6040516104f1919061510b565b60405180910390f35b34801561050657600080fd5b50610521600480360381019061051c91906150cf565b612442565b005b34801561052f57600080fd5b50610538612a19565b604051610545919061510b565b60405180910390f35b34801561055a57600080fd5b50610575600480360381019061057091906150cf565b612a1f565b604051610585949392919061534a565b60405180910390f35b34801561059a57600080fd5b506105b560048036038101906105b091906150cf565b612af0565b005b3480156105c357600080fd5b506105de60048036038101906105d99190615420565b612cff565b005b3480156105ec57600080fd5b506105f5613340565b604051610602919061510b565b60405180910390f35b34801561061757600080fd5b50610632600480360381019061062d91906150cf565b613346565b604051610642949392919061534a565b60405180910390f35b34801561065757600080fd5b50610672600480360381019061066d91906154b5565b6133a3565b005b61068e600480360381019061068991906150cf565b6138b0565b005b34801561069c57600080fd5b506106b760048036038101906106b291906150cf565b613c8e565b6040516106c6939291906152c0565b60405180910390f35b6106e960048036038101906106e491906150cf565b613ce5565b005b3480156106f757600080fd5b50610712600480360381019061070d91906150cf565b614121565b60405161071f91906154f5565b60405180910390f35b34801561073457600080fd5b5061074f600480360381019061074a91906150cf565b614141565b005b34801561075d57600080fd5b50610778600480360381019061077391906150cf565b614289565b005b34801561078657600080fd5b506107a1600480360381019061079c91906150cf565b614814565b6040516107b2959493929190615510565b60405180910390f35b3480156107c757600080fd5b506107e260048036038101906107dd91906150cf565b6149e1565b005b3480156107f057600080fd5b5061080b600480360381019061080691906150cf565b614b49565b005b6060600280548060200260200160405190810160405280929190818152602001828054801561085b57602002820191906000526020600020905b815481526020019060010190808311610847575b5050505050905090565b6000600a600083815260200190815260200160002090508060070160009054906101000a900460ff166108cd576040517f08c379a00000000000000000000000000000000000000000000000000000000081526004016108c4906155ce565b60405180910390fd5b3373ffffffffffffffffffffffffffffffffffffffff168160000160009054906101000a900473ffffffffffffffffffffffffffffffffffffffff1673ffffffffffffffffffffffffffffffffffffffff161461095f576040517f08c379a00000000000000000000000000000000000000000000000000000000081526004016109569061563a565b60405180910390fd5b600073ffffffffffffffffffffffffffffffffffffffff168160040160009054906101000a900473ffffffffffffffffffffffffffffffffffffffff1673ffffffffffffffffffffffffffffffffffffffff16146109f2576040517f08c379a00000000000000000000000000000000000000000000000000000000081526004016109e9906156cc565b60405180910390fd5b60008160070160006101000a81548160ff02191690831515021790555060018160070160016101000a81548160ff0219169083151502179055506000600c60008360010154815260200190815260200160002060006101000a81548160ff021916908315150217905550817fb14252969ff4768d1cd33d6469b16378174117766d42ba79cdc3588639c39cf260405160405180910390a25050565b61012c81565b60045481565b6000600954905090565b60086020528060005260406000206000915090508060000160009054906101000a900473ffffffffffffffffffffffffffffffffffffffff16908060010160009054906101000a900473ffffffffffffffffffffffffffffffffffffffff16908060040160009054906101000a900460ff16905083565b610b22614c91565b60006008600083815260200190815260200160002090508060040160009054906101000a900460ff16610b8a576040517f08c379a0000000000000000000000000000000000000000000000000000000008152600401610b8190615738565b60405180910390fd5b3373ffffffffffffffffffffffffffffffffffffffff168160010160009054906101000a900473ffffffffffffffffffffffffffffffffffffffff1673ffffffffffffffffffffffffffffffffffffffff1614610c1c576040517f08c379a0000000000000000000000000000000000000000000000000000000008152600401610c13906157a4565b60405180910390fd5b60008160000160009054906101000a900473ffffffffffffffffffffffffffffffffffffffff16905060005b8260020180549050811015610f41576000836002018281548110610c6f57610c6e6157c4565b5b906000526020600020015490508273ffffffffffffffffffffffffffffffffffffffff167f000000000000000000000000000000000000000000000000000000000000000073ffffffffffffffffffffffffffffffffffffffff16636352211e836040518263ffffffff1660e01b8152600401610cec919061510b565b602060405180830381865afa158015610d09573d6000803e3d6000fd5b505050506040513d601f19601f82011682018060405250810190610d2d9190615808565b73ffffffffffffffffffffffffffffffffffffffff1614610d83576040517f08c379a0000000000000000000000000000000000000000000000000000000008152600401610d7a90615881565b60405180910390fd5b3073ffffffffffffffffffffffffffffffffffffffff167f000000000000000000000000000000000000000000000000000000000000000073ffffffffffffffffffffffffffffffffffffffff1663081812fc836040518263ffffffff1660e01b8152600401610df3919061510b565b602060405180830381865afa158015610e10573d6000803e3d6000fd5b505050506040513d601f19601f82011682018060405250810190610e349190615808565b73ffffffffffffffffffffffffffffffffffffffff161480610eee57507f000000000000000000000000000000000000000000000000000000000000000073ffffffffffffffffffffffffffffffffffffffff1663e985e9c584306040518363ffffffff1660e01b8152600401610eac9291906158a1565b602060405180830381865afa158015610ec9573d6000803e3d6000fd5b505050506040513d601f19601f82011682018060405250810190610eed91906158f6565b5b610f2d576040517f08c379a0000000000000000000000000000000000000000000000000000000008152600401610f2490615995565b60405180910390fd5b508080610f39906159e4565b915050610c48565b5060005b826003018054905081101561123e576000836003018281548110610f6c57610f6b6157c4565b5b906000526020600020015490503373ffffffffffffffffffffffffffffffffffffffff167f000000000000000000000000000000000000000000000000000000000000000073ffffffffffffffffffffffffffffffffffffffff16636352211e836040518263ffffffff1660e01b8152600401610fe9919061510b565b602060405180830381865afa158015611006573d6000803e3d6000fd5b505050506040513d601f19601f8201168201806040525081019061102a9190615808565b73ffffffffffffffffffffffffffffffffffffffff1614611080576040517f08c379a000000000000000000000000000000000000000000000000000000000815260040161107790615a78565b60405180910390fd5b3073ffffffffffffffffffffffffffffffffffffffff167f000000000000000000000000000000000000000000000000000000000000000073ffffffffffffffffffffffffffffffffffffffff1663081812fc836040518263ffffffff1660e01b81526004016110f0919061510b565b602060405180830381865afa15801561110d573d6000803e3d6000fd5b505050506040513d601f19601f820116820180604052508101906111319190615808565b73ffffffffffffffffffffffffffffffffffffffff1614806111eb57507f000000000000000000000000000000000000000000000000000000000000000073ffffffffffffffffffffffffffffffffffffffff1663e985e9c533306040518363ffffffff1660e01b81526004016111a99291906158a1565b602060405180830381865afa1580156111c6573d6000803e3d6000fd5b505050506040513d601f19601f820116820180604052508101906111ea91906158f6565b5b61122a576040517f08c379a000000000000000000000000000000000000000000000000000000000815260040161122190615b0a565b60405180910390fd5b508080611236906159e4565b915050610f45565b5060008260040160006101000a81548160ff02191690831515021790555060005b82600201805490508110156113c2576000836002018281548110611286576112856157c4565b5b906000526020600020015490506001600082815260200190815260200160002060020160009054906101000a900460ff16156112f55760006001600083815260200190815260200160002060020160006101000a81548160ff0219169083151502179055506112f481614cd7565b5b61131f817fffffffffffffffffffffffffffffffffffffffffffffffffffffffffffffffff614db0565b7f000000000000000000000000000000000000000000000000000000000000000073ffffffffffffffffffffffffffffffffffffffff166323b872dd8433846040518463ffffffff1660e01b815260040161137c93929190615b2a565b600060405180830381600087803b15801561139657600080fd5b505af11580156113aa573d6000803e3d6000fd5b505050505080806113ba906159e4565b91505061125f565b5060005b82600301805490508110156115295760008360030182815481106113ed576113ec6157c4565b5b906000526020600020015490506001600082815260200190815260200160002060020160009054906101000a900460ff161561145c5760006001600083815260200190815260200160002060020160006101000a81548160ff02191690831515021790555061145b81614cd7565b5b611486817fffffffffffffffffffffffffffffffffffffffffffffffffffffffffffffffff614db0565b7f000000000000000000000000000000000000000000000000000000000000000073ffffffffffffffffffffffffffffffffffffffff166323b872dd3385846040518463ffffffff1660e01b81526004016114e393929190615b2a565b600060405180830381600087803b1580156114fd57600080fd5b505af1158015611511573d6000803e3d6000fd5b50505050508080611521906159e4565b9150506113c6565b50827fc3f17759ec2f1822217427833abf78b5855b28aa14a9f849795a06c1cbd431f160405160405180910390a25050611561614f3b565b50565b7f000000000000000000000000000000000000000000000000000000000000000081565b600a6020528060005260406000206000915090508060000160009054906101000a900473ffffffffffffffffffffffffffffffffffffffff16908060010154908060020154908060030154908060040160009054906101000a900473ffffffffffffffffffffffffffffffffffffffff16908060050154908060060154908060070160009054906101000a900460ff16908060070160019054906101000a900460ff16905089565b611638614c91565b60006005600083815260200190815260200160002090508060030160009054906101000a900460ff166116a0576040517f08c379a000000000000000000000000000000000000000000000000000000000815260040161169790615738565b60405180910390fd5b6000816001015490503373ffffffffffffffffffffffffffffffffffffffff167f000000000000000000000000000000000000000000000000000000000000000073ffffffffffffffffffffffffffffffffffffffff16636352211e836040518263ffffffff1660e01b8152600401611719919061510b565b602060405180830381865afa158015611736573d6000803e3d6000fd5b505050506040513d601f19601f8201168201806040525081019061175a9190615808565b73ffffffffffffffffffffffffffffffffffffffff16146117b0576040517f08c379a00000000000000000000000000000000000000000000000000000000081526004016117a790615bad565b60405180910390fd5b60008260000160009054906101000a900473ffffffffffffffffffffffffffffffffffffffff16905060008360020154905060008460030160006101000a81548160ff02191690831515021790555060008273ffffffffffffffffffffffffffffffffffffffff168260405161182590615bfe565b60006040518083038185875af1925050503d8060008114611862576040519150601f19603f3d011682016040523d82523d6000602084013e611867565b606091505b50509050806118ab576040517f08c379a00000000000000000000000000000000000000000000000000000000081526004016118a290615c5f565b60405180910390fd5b857f86e00a822031edb41323ff7c955500ecbc6fb5314a4ac7232c9c73f2ba46d27d60405160405180910390a250505050506118e5614f3b565b50565b600080600080600160008681526020019081526020016000206040518060600160405290816000820160009054906101000a900473ffffffffffffffffffffffffffffffffffffffff1673ffffffffffffffffffffffffffffffffffffffff1673ffffffffffffffffffffffffffffffffffffffff168152602001600182015481526020016002820160009054906101000a900460ff1615151515815250509050806000015181602001518260400151935093509350509193909250565b600181101580156119b8575060a88111155b6119f7576040517f08c379a00000000000000000000000000000000000000000000000000000000081526004016119ee90615ccb565b60405180910390fd5b3373ffffffffffffffffffffffffffffffffffffffff167f000000000000000000000000000000000000000000000000000000000000000073ffffffffffffffffffffffffffffffffffffffff16636352211e856040518263ffffffff1660e01b8152600401611a67919061510b565b602060405180830381865afa158015611a84573d6000803e3d6000fd5b505050506040513d601f19601f82011682018060405250810190611aa89190615808565b73ffffffffffffffffffffffffffffffffffffffff1614611afe576040517f08c379a0000000000000000000000000000000000000000000000000000000008152600401611af590615d37565b60405180910390fd5b3073ffffffffffffffffffffffffffffffffffffffff167f000000000000000000000000000000000000000000000000000000000000000073ffffffffffffffffffffffffffffffffffffffff1663081812fc856040518263ffffffff1660e01b8152600401611b6e919061510b565b602060405180830381865afa158015611b8b573d6000803e3d6000fd5b505050506040513d601f19601f82011682018060405250810190611baf9190615808565b73ffffffffffffffffffffffffffffffffffffffff161480611c6957507f000000000000000000000000000000000000000000000000000000000000000073ffffffffffffffffffffffffffffffffffffffff1663e985e9c533306040518363ffffffff1660e01b8152600401611c279291906158a1565b602060405180830381865afa158015611c44573d6000803e3d6000fd5b505050506040513d601f19601f82011682018060405250810190611c6891906158f6565b5b611ca8576040517f08c379a0000000000000000000000000000000000000000000000000000000008152600401611c9f90615dc9565b60405180910390fd5b6001600084815260200190815260200160002060020160009054906101000a900460ff1615611d0c576040517f08c379a0000000000000000000000000000000000000000000000000000000008152600401611d0390615e35565b60405180910390fd5b600c600084815260200190815260200160002060009054906101000a900460ff1615611d6d576040517f08c379a0000000000000000000000000000000000000000000000000000000008152600401611d6490615ea1565b60405180910390fd5b600060096000815480929190611d82906159e4565b9190505590506000610e1083611d989190615ec1565b42611da39190615f03565b90506040518061012001604052803373ffffffffffffffffffffffffffffffffffffffff16815260200186815260200185815260200160008152602001600073ffffffffffffffffffffffffffffffffffffffff16815260200142815260200182815260200160011515815260200160001515815250600a600084815260200190815260200160002060008201518160000160006101000a81548173ffffffffffffffffffffffffffffffffffffffff021916908373ffffffffffffffffffffffffffffffffffffffff16021790555060208201518160010155604082015181600201556060820151816003015560808201518160040160006101000a81548173ffffffffffffffffffffffffffffffffffffffff021916908373ffffffffffffffffffffffffffffffffffffffff16021790555060a0820151816005015560c0820151816006015560e08201518160070160006101000a81548160ff0219169083151502179055506101008201518160070160016101000a81548160ff02191690831515021790555090505081600b6000878152602001908152602001600020819055506001600c600087815260200190815260200160002060006101000a81548160ff021916908315150217905550843373ffffffffffffffffffffffffffffffffffffffff16837f0c429335fcb5bfab471d9d290c0e04bac35af93201d924914f80226af5d766648785604051611fbe929190615f37565b60405180910390a45050505050565b6000600280549050905090565b6000341161201d576040517f08c379a000000000000000000000000000000000000000000000000000000000815260040161201490615fac565b60405180910390fd5b3373ffffffffffffffffffffffffffffffffffffffff167f000000000000000000000000000000000000000000000000000000000000000073ffffffffffffffffffffffffffffffffffffffff16636352211e836040518263ffffffff1660e01b815260040161208d919061510b565b602060405180830381865afa1580156120aa573d6000803e3d6000fd5b505050506040513d601f19601f820116820180604052508101906120ce9190615808565b73ffffffffffffffffffffffffffffffffffffffff1603612124576040517f08c379a000000000000000000000000000000000000000000000000000000000815260040161211b9061603e565b60405180910390fd5b600060046000815480929190612139906159e4565b91905055905060405180608001604052803373ffffffffffffffffffffffffffffffffffffffff168152602001838152602001348152602001600115158152506005600083815260200190815260200160002060008201518160000160006101000a81548173ffffffffffffffffffffffffffffffffffffffff021916908373ffffffffffffffffffffffffffffffffffffffff160217905550602082015181600101556040820151816002015560608201518160030160006101000a81548160ff02191690831515021790555090505060066000838152602001908152602001600020819080600181540180825580915050600190039060005260206000200160009091909190915055813373ffffffffffffffffffffffffffffffffffffffff16827fde71b5425a9efa2abf6337537801849866c503e3b116cbd5a02b96b83633f9ab3460405161228c919061510b565b60405180910390a45050565b600080600080600080600080600080600a60008c8152602001908152602001600020604051806101200160405290816000820160009054906101000a900473ffffffffffffffffffffffffffffffffffffffff1673ffffffffffffffffffffffffffffffffffffffff1673ffffffffffffffffffffffffffffffffffffffff1681526020016001820154815260200160028201548152602001600382015481526020016004820160009054906101000a900473ffffffffffffffffffffffffffffffffffffffff1673ffffffffffffffffffffffffffffffffffffffff1673ffffffffffffffffffffffffffffffffffffffff16815260200160058201548152602001600682015481526020016007820160009054906101000a900460ff161515151581526020016007820160019054906101000a900460ff1615151515815250509050806000015181602001518260400151836060015184608001518560a001518660c001518760e00151886101000151995099509950995099509950995099509950509193959799909294969850565b600b6020528060005260406000206000915090505481565b61244a614c91565b6000600a600083815260200190815260200160002090508060070160009054906101000a900460ff166124b2576040517f08c379a00000000000000000000000000000000000000000000000000000000081526004016124a9906155ce565b60405180910390fd5b80600601544210156124f9576040517f08c379a00000000000000000000000000000000000000000000000000000000081526004016124f0906160aa565b60405180910390fd5b8060070160019054906101000a900460ff161561254b576040517f08c379a000000000000000000000000000000000000000000000000000000000815260040161254290616116565b60405180910390fd5b60008160070160006101000a81548160ff02191690831515021790555060018160070160016101000a81548160ff0219169083151502179055506000600c60008360010154815260200190815260200160002060006101000a81548160ff0219169083151502179055506125e381600101547fffffffffffffffffffffffffffffffffffffffffffffffffffffffffffffffff614db0565b60008073ffffffffffffffffffffffffffffffffffffffff168260040160009054906101000a900473ffffffffffffffffffffffffffffffffffffffff1673ffffffffffffffffffffffffffffffffffffffff1614158015612649575060008260030154115b90506000808360020154148061266757508260020154836003015410155b90508180156126735750805b1561288f577f000000000000000000000000000000000000000000000000000000000000000073ffffffffffffffffffffffffffffffffffffffff166323b872dd8460000160009054906101000a900473ffffffffffffffffffffffffffffffffffffffff168560040160009054906101000a900473ffffffffffffffffffffffffffffffffffffffff1686600101546040518463ffffffff1660e01b815260040161272193929190615b2a565b600060405180830381600087803b15801561273b57600080fd5b505af115801561274f573d6000803e3d6000fd5b5050505060008360000160009054906101000a900473ffffffffffffffffffffffffffffffffffffffff1673ffffffffffffffffffffffffffffffffffffffff1684600301546040516127a190615bfe565b60006040518083038185875af1925050503d80600081146127de576040519150601f19603f3d011682016040523d82523d6000602084013e6127e3565b606091505b5050905080612827576040517f08c379a000000000000000000000000000000000000000000000000000000000815260040161281e90616182565b60405180910390fd5b847f5497637e735397a576e9d9ce795d0a0f7327b41ab64211b28905b237b69eb7488560040160009054906101000a900473ffffffffffffffffffffffffffffffffffffffff1686600301546040516128819291906161a2565b60405180910390a250612a0b565b600073ffffffffffffffffffffffffffffffffffffffff168360040160009054906101000a900473ffffffffffffffffffffffffffffffffffffffff1673ffffffffffffffffffffffffffffffffffffffff16141580156128f4575060008360030154115b156129cf5760008360040160009054906101000a900473ffffffffffffffffffffffffffffffffffffffff1673ffffffffffffffffffffffffffffffffffffffff16846003015460405161294790615bfe565b60006040518083038185875af1925050503d8060008114612984576040519150601f19603f3d011682016040523d82523d6000602084013e612989565b606091505b50509050806129cd576040517f08c379a00000000000000000000000000000000000000000000000000000000081526004016129c490616217565b60405180910390fd5b505b837f5497637e735397a576e9d9ce795d0a0f7327b41ab64211b28905b237b69eb748600080604051612a02929190616272565b60405180910390a25b505050612a16614f3b565b50565b60075481565b6000806000806000600560008781526020019081526020016000206040518060800160405290816000820160009054906101000a900473ffffffffffffffffffffffffffffffffffffffff1673ffffffffffffffffffffffffffffffffffffffff1673ffffffffffffffffffffffffffffffffffffffff16815260200160018201548152602001600282015481526020016003820160009054906101000a900460ff161515151581525050905080600001518160200151826040015183606001519450945094509450509193509193565b612af8614c91565b60006005600083815260200190815260200160002090508060030160009054906101000a900460ff16612b60576040517f08c379a0000000000000000000000000000000000000000000000000000000008152600401612b5790615738565b60405180910390fd5b3373ffffffffffffffffffffffffffffffffffffffff168160000160009054906101000a900473ffffffffffffffffffffffffffffffffffffffff1673ffffffffffffffffffffffffffffffffffffffff1614612bf2576040517f08c379a0000000000000000000000000000000000000000000000000000000008152600401612be9906162e7565b60405180910390fd5b60008160020154905060008260030160006101000a81548160ff02191690831515021790555060003373ffffffffffffffffffffffffffffffffffffffff1682604051612c3e90615bfe565b60006040518083038185875af1925050503d8060008114612c7b576040519150601f19603f3d011682016040523d82523d6000602084013e612c80565b606091505b5050905080612cc4576040517f08c379a0000000000000000000000000000000000000000000000000000000008152600401612cbb90615c5f565b60405180910390fd5b837f85f5ca6bbfb96986bf182e497ab2349ae652fda01d3a5cbfbf25952c8ea1758360405160405180910390a2505050612cfc614f3b565b50565b60008585905011612d45576040517f08c379a0000000000000000000000000000000000000000000000000000000008152600401612d3c90616353565b60405180910390fd5b60008383905011612d8b576040517f08c379a0000000000000000000000000000000000000000000000000000000008152600401612d82906163e5565b60405180910390fd5b3373ffffffffffffffffffffffffffffffffffffffff168173ffffffffffffffffffffffffffffffffffffffff1603612df9576040517f08c379a0000000000000000000000000000000000000000000000000000000008152600401612df090616477565b60405180910390fd5b600073ffffffffffffffffffffffffffffffffffffffff168173ffffffffffffffffffffffffffffffffffffffff1603612e68576040517f08c379a0000000000000000000000000000000000000000000000000000000008152600401612e5f906164e3565b60405180910390fd5b60005b85859050811015612fa9573373ffffffffffffffffffffffffffffffffffffffff167f000000000000000000000000000000000000000000000000000000000000000073ffffffffffffffffffffffffffffffffffffffff16636352211e888885818110612edc57612edb6157c4565b5b905060200201356040518263ffffffff1660e01b8152600401612eff919061510b565b602060405180830381865afa158015612f1c573d6000803e3d6000fd5b505050506040513d601f19601f82011682018060405250810190612f409190615808565b73ffffffffffffffffffffffffffffffffffffffff1614612f96576040517f08c379a0000000000000000000000000000000000000000000000000000000008152600401612f8d90616575565b60405180910390fd5b8080612fa1906159e4565b915050612e6b565b5060005b838390508110156130eb578173ffffffffffffffffffffffffffffffffffffffff167f000000000000000000000000000000000000000000000000000000000000000073ffffffffffffffffffffffffffffffffffffffff16636352211e86868581811061301e5761301d6157c4565b5b905060200201356040518263ffffffff1660e01b8152600401613041919061510b565b602060405180830381865afa15801561305e573d6000803e3d6000fd5b505050506040513d601f19601f820116820180604052508101906130829190615808565b73ffffffffffffffffffffffffffffffffffffffff16146130d8576040517f08c379a00000000000000000000000000000000000000000000000000000000081526004016130cf90616607565b60405180910390fd5b80806130e3906159e4565b915050612fad565b50600060076000815480929190613101906159e4565b9190505590506040518060a001604052803373ffffffffffffffffffffffffffffffffffffffff1681526020018373ffffffffffffffffffffffffffffffffffffffff168152602001878780806020026020016040519081016040528093929190818152602001838360200280828437600081840152601f19601f820116905080830192505050505050508152602001858580806020026020016040519081016040528093929190818152602001838360200280828437600081840152601f19601f820116905080830192505050505050508152602001600115158152506008600083815260200190815260200160002060008201518160000160006101000a81548173ffffffffffffffffffffffffffffffffffffffff021916908373ffffffffffffffffffffffffffffffffffffffff16021790555060208201518160010160006101000a81548173ffffffffffffffffffffffffffffffffffffffff021916908373ffffffffffffffffffffffffffffffffffffffff160217905550604082015181600201908051906020019061329c929190614f45565b5060608201518160030190805190602001906132b9929190614f45565b5060808201518160040160006101000a81548160ff0219169083151502179055509050508173ffffffffffffffffffffffffffffffffffffffff163373ffffffffffffffffffffffffffffffffffffffff16827fcd8ecd058d8d5f674e68be16a59437dc5daf7e6fc1cd1f54902359ce1ac6c54b60405160405180910390a4505050505050565b60095481565b60056020528060005260406000206000915090508060000160009054906101000a900473ffffffffffffffffffffffffffffffffffffffff16908060010154908060020154908060030160009054906101000a900460ff16905084565b600081116133e6576040517f08c379a00000000000000000000000000000000000000000000000000000000081526004016133dd90616673565b60405180910390fd5b3373ffffffffffffffffffffffffffffffffffffffff167f000000000000000000000000000000000000000000000000000000000000000073ffffffffffffffffffffffffffffffffffffffff16636352211e846040518263ffffffff1660e01b8152600401613456919061510b565b602060405180830381865afa158015613473573d6000803e3d6000fd5b505050506040513d601f19601f820116820180604052508101906134979190615808565b73ffffffffffffffffffffffffffffffffffffffff16146134ed576040517f08c379a00000000000000000000000000000000000000000000000000000000081526004016134e490615d37565b60405180910390fd5b3073ffffffffffffffffffffffffffffffffffffffff167f000000000000000000000000000000000000000000000000000000000000000073ffffffffffffffffffffffffffffffffffffffff1663081812fc846040518263ffffffff1660e01b815260040161355d919061510b565b602060405180830381865afa15801561357a573d6000803e3d6000fd5b505050506040513d601f19601f8201168201806040525081019061359e9190615808565b73ffffffffffffffffffffffffffffffffffffffff16148061365857507f000000000000000000000000000000000000000000000000000000000000000073ffffffffffffffffffffffffffffffffffffffff1663e985e9c533306040518363ffffffff1660e01b81526004016136169291906158a1565b602060405180830381865afa158015613633573d6000803e3d6000fd5b505050506040513d601f19601f8201168201806040525081019061365791906158f6565b5b613697576040517f08c379a000000000000000000000000000000000000000000000000000000000815260040161368e90615dc9565b60405180910390fd5b6001600083815260200190815260200160002060020160009054906101000a900460ff16156136fb576040517f08c379a00000000000000000000000000000000000000000000000000000000081526004016136f2906166df565b60405180910390fd5b600c600083815260200190815260200160002060009054906101000a900460ff161561375c576040517f08c379a000000000000000000000000000000000000000000000000000000000815260040161375390616771565b60405180910390fd5b60405180606001604052803373ffffffffffffffffffffffffffffffffffffffff168152602001828152602001600115158152506001600084815260200190815260200160002060008201518160000160006101000a81548173ffffffffffffffffffffffffffffffffffffffff021916908373ffffffffffffffffffffffffffffffffffffffff1602179055506020820151816001015560408201518160020160006101000a81548160ff021916908315150217905550905050600280549050600360008481526020019081526020016000208190555060028290806001815401808255809150506001900390600052602060002001600090919091909150553373ffffffffffffffffffffffffffffffffffffffff16827f533273ad28288be95f71b85b0424ac7bdb3073a13fda6950c91278ca19e5e535836040516138a4919061510b565b60405180910390a35050565b6138b8614c91565b6000600a600083815260200190815260200160002090508060070160009054906101000a900460ff16613920576040517f08c379a0000000000000000000000000000000000000000000000000000000008152600401613917906155ce565b60405180910390fd5b80600601544210613966576040517f08c379a000000000000000000000000000000000000000000000000000000000815260040161395d906167dd565b60405180910390fd5b8060000160009054906101000a900473ffffffffffffffffffffffffffffffffffffffff1673ffffffffffffffffffffffffffffffffffffffff163373ffffffffffffffffffffffffffffffffffffffff16036139f8576040517f08c379a00000000000000000000000000000000000000000000000000000000081526004016139ef9061686f565b60405180910390fd5b80600301543411613a3e576040517f08c379a0000000000000000000000000000000000000000000000000000000008152600401613a35906168db565b60405180910390fd5b600081600201541115613a93578060020154341015613a92576040517f08c379a0000000000000000000000000000000000000000000000000000000008152600401613a8990616947565b60405180910390fd5b5b60008160040160009054906101000a900473ffffffffffffffffffffffffffffffffffffffff169050600082600301549050348360030181905550338360040160006101000a81548173ffffffffffffffffffffffffffffffffffffffff021916908373ffffffffffffffffffffffffffffffffffffffff16021790555061012c428460060154613b249190616967565b1015613b415761012c42613b389190615f03565b83600601819055505b600073ffffffffffffffffffffffffffffffffffffffff168273ffffffffffffffffffffffffffffffffffffffff1614158015613b7e5750600081115b15613c315760008273ffffffffffffffffffffffffffffffffffffffff1682604051613ba990615bfe565b60006040518083038185875af1925050503d8060008114613be6576040519150601f19603f3d011682016040523d82523d6000602084013e613beb565b606091505b5050905080613c2f576040517f08c379a0000000000000000000000000000000000000000000000000000000008152600401613c2690616a0d565b60405180910390fd5b505b3373ffffffffffffffffffffffffffffffffffffffff16847fabd96ffb322bb772024039308fdadb7002c0d3c05b706c3b680ac89fbbf6bc3f34604051613c78919061510b565b60405180910390a3505050613c8b614f3b565b50565b60016020528060005260406000206000915090508060000160009054906101000a900473ffffffffffffffffffffffffffffffffffffffff16908060010154908060020160009054906101000a900460ff16905083565b613ced614c91565b60006001600083815260200190815260200160002090508060020160009054906101000a900460ff16613d55576040517f08c379a0000000000000000000000000000000000000000000000000000000008152600401613d4c90616a79565b60405180910390fd5b8060010154341015613d9c576040517f08c379a0000000000000000000000000000000000000000000000000000000008152600401613d9390616ae5565b60405180910390fd5b8060000160009054906101000a900473ffffffffffffffffffffffffffffffffffffffff1673ffffffffffffffffffffffffffffffffffffffff163373ffffffffffffffffffffffffffffffffffffffff1603613e2e576040517f08c379a0000000000000000000000000000000000000000000000000000000008152600401613e2590616b51565b60405180910390fd5b60008160000160009054906101000a900473ffffffffffffffffffffffffffffffffffffffff16905060008260010154905060008360020160006101000a81548160ff021916908315150217905550613e8684614cd7565b613eb0847fffffffffffffffffffffffffffffffffffffffffffffffffffffffffffffffff614db0565b7f000000000000000000000000000000000000000000000000000000000000000073ffffffffffffffffffffffffffffffffffffffff166323b872dd8333876040518463ffffffff1660e01b8152600401613f0d93929190615b2a565b600060405180830381600087803b158015613f2757600080fd5b505af1158015613f3b573d6000803e3d6000fd5b5050505060008273ffffffffffffffffffffffffffffffffffffffff1682604051613f6590615bfe565b60006040518083038185875af1925050503d8060008114613fa2576040519150601f19603f3d011682016040523d82523d6000602084013e613fa7565b606091505b5050905080613feb576040517f08c379a0000000000000000000000000000000000000000000000000000000008152600401613fe290616182565b60405180910390fd5b813411156140ac5760003373ffffffffffffffffffffffffffffffffffffffff1683346140189190616967565b60405161402490615bfe565b60006040518083038185875af1925050503d8060008114614061576040519150601f19603f3d011682016040523d82523d6000602084013e614066565b606091505b50509050806140aa576040517f08c379a00000000000000000000000000000000000000000000000000000000081526004016140a190616bbd565b60405180910390fd5b505b3373ffffffffffffffffffffffffffffffffffffffff168373ffffffffffffffffffffffffffffffffffffffff16867f54d56cd39f0c030ca2b0306eb7381ed8b172c3aefdc39e48179f65aa441c74108560405161410a919061510b565b60405180910390a45050505061411e614f3b565b50565b600c6020528060005260406000206000915054906101000a900460ff1681565b60006008600083815260200190815260200160002090508060040160009054906101000a900460ff166141a9576040517f08c379a00000000000000000000000000000000000000000000000000000000081526004016141a090615738565b60405180910390fd5b3373ffffffffffffffffffffffffffffffffffffffff168160000160009054906101000a900473ffffffffffffffffffffffffffffffffffffffff1673ffffffffffffffffffffffffffffffffffffffff161461423b576040517f08c379a0000000000000000000000000000000000000000000000000000000008152600401614232906162e7565b60405180910390fd5b60008160040160006101000a81548160ff021916908315150217905550817f3109aab59c040405a0b3f8accaba010accd4646dcb42d12491713fe44c3b678e60405160405180910390a25050565b614291614c91565b60006005600083815260200190815260200160002090508060030160009054906101000a900460ff166142f9576040517f08c379a00000000000000000000000000000000000000000000000000000000081526004016142f090615738565b60405180910390fd5b6000816001015490503373ffffffffffffffffffffffffffffffffffffffff167f000000000000000000000000000000000000000000000000000000000000000073ffffffffffffffffffffffffffffffffffffffff16636352211e836040518263ffffffff1660e01b8152600401614372919061510b565b602060405180830381865afa15801561438f573d6000803e3d6000fd5b505050506040513d601f19601f820116820180604052508101906143b39190615808565b73ffffffffffffffffffffffffffffffffffffffff1614614409576040517f08c379a000000000000000000000000000000000000000000000000000000000815260040161440090615bad565b60405180910390fd5b3073ffffffffffffffffffffffffffffffffffffffff167f000000000000000000000000000000000000000000000000000000000000000073ffffffffffffffffffffffffffffffffffffffff1663081812fc836040518263ffffffff1660e01b8152600401614479919061510b565b602060405180830381865afa158015614496573d6000803e3d6000fd5b505050506040513d601f19601f820116820180604052508101906144ba9190615808565b73ffffffffffffffffffffffffffffffffffffffff16148061457457507f000000000000000000000000000000000000000000000000000000000000000073ffffffffffffffffffffffffffffffffffffffff1663e985e9c533306040518363ffffffff1660e01b81526004016145329291906158a1565b602060405180830381865afa15801561454f573d6000803e3d6000fd5b505050506040513d601f19601f8201168201806040525081019061457391906158f6565b5b6145b3576040517f08c379a00000000000000000000000000000000000000000000000000000000081526004016145aa90615dc9565b60405180910390fd5b60008260000160009054906101000a900473ffffffffffffffffffffffffffffffffffffffff16905060008360020154905060008460030160006101000a81548160ff0219169083151502179055506001600084815260200190815260200160002060020160009054906101000a900460ff16156146645760006001600085815260200190815260200160002060020160006101000a81548160ff02191690831515021790555061466383614cd7565b5b61466e8386614db0565b7f000000000000000000000000000000000000000000000000000000000000000073ffffffffffffffffffffffffffffffffffffffff166323b872dd3384866040518463ffffffff1660e01b81526004016146cb93929190615b2a565b600060405180830381600087803b1580156146e557600080fd5b505af11580156146f9573d6000803e3d6000fd5b5050505060003373ffffffffffffffffffffffffffffffffffffffff168260405161472390615bfe565b60006040518083038185875af1925050503d8060008114614760576040519150601f19603f3d011682016040523d82523d6000602084013e614765565b606091505b50509050806147a9576040517f08c379a00000000000000000000000000000000000000000000000000000000081526004016147a090616c29565b60405180910390fd5b8273ffffffffffffffffffffffffffffffffffffffff163373ffffffffffffffffffffffffffffffffffffffff16877f4120925e3ea8ea4107367aaa578114df1bcf568bf65572bd5bf43052fc0d7ff860405160405180910390a45050505050614811614f3b565b50565b600080606080600080600860008881526020019081526020016000206040518060a00160405290816000820160009054906101000a900473ffffffffffffffffffffffffffffffffffffffff1673ffffffffffffffffffffffffffffffffffffffff1673ffffffffffffffffffffffffffffffffffffffff1681526020016001820160009054906101000a900473ffffffffffffffffffffffffffffffffffffffff1673ffffffffffffffffffffffffffffffffffffffff1673ffffffffffffffffffffffffffffffffffffffff1681526020016002820180548060200260200160405190810160405280929190818152602001828054801561493657602002820191906000526020600020905b815481526020019060010190808311614922575b505050505081526020016003820180548060200260200160405190810160405280929190818152602001828054801561498e57602002820191906000526020600020905b81548152602001906001019080831161497a575b505050505081526020016004820160009054906101000a900460ff161515151581525050905080600001518160200151826040015183606001518460800151955095509550955095505091939590929450565b60006001600083815260200190815260200160002090508060020160009054906101000a900460ff16614a49576040517f08c379a0000000000000000000000000000000000000000000000000000000008152600401614a4090616a79565b60405180910390fd5b3373ffffffffffffffffffffffffffffffffffffffff168160000160009054906101000a900473ffffffffffffffffffffffffffffffffffffffff1673ffffffffffffffffffffffffffffffffffffffff1614614adb576040517f08c379a0000000000000000000000000000000000000000000000000000000008152600401614ad29061563a565b60405180910390fd5b60008160020160006101000a81548160ff021916908315150217905550614b0182614cd7565b3373ffffffffffffffffffffffffffffffffffffffff16827f8b7f70ca4739ac40f2b4c9e4a4c2306eb5545f5549ae28af8eb4ddab953c443c60405160405180910390a35050565b60006008600083815260200190815260200160002090508060040160009054906101000a900460ff16614bb1576040517f08c379a0000000000000000000000000000000000000000000000000000000008152600401614ba890615738565b60405180910390fd5b3373ffffffffffffffffffffffffffffffffffffffff168160010160009054906101000a900473ffffffffffffffffffffffffffffffffffffffff1673ffffffffffffffffffffffffffffffffffffffff1614614c43576040517f08c379a0000000000000000000000000000000000000000000000000000000008152600401614c3a906157a4565b60405180910390fd5b60008160040160006101000a81548160ff021916908315150217905550817fbe310597c321fad847d33580c9b46dadb7757190ca5ca2103f82dfe63c4d75c960405160405180910390a25050565b600260005403614ccd576040517f3ee5aeb500000000000000000000000000000000000000000000000000000000815260040160405180910390fd5b6002600081905550565b60006003600083815260200190815260200160002054905060006001600280549050614d039190616967565b9050808214614d6c57600060028281548110614d2257614d216157c4565b5b906000526020600020015490508060028481548110614d4457614d436157c4565b5b9060005260206000200181905550826003600083815260200190815260200160002081905550505b6002805480614d7e57614d7d616c49565b5b600190038181906000526020600020016000905590556003600084815260200190815260200160002060009055505050565b600060066000848152602001908152602001600020905060005b8180549050811015614f35576000828281548110614deb57614dea6157c4565b5b90600052602060002001549050838103614e055750614f22565b60006005600083815260200190815260200160002090508060030160009054906101000a900460ff16614e39575050614f22565b60008160030160006101000a81548160ff02191690831515021790555060008160000160009054906101000a900473ffffffffffffffffffffffffffffffffffffffff1673ffffffffffffffffffffffffffffffffffffffff168260020154604051614ea490615bfe565b60006040518083038185875af1925050503d8060008114614ee1576040519150601f19603f3d011682016040523d82523d6000602084013e614ee6565b606091505b505090508015614f1e57827f85f5ca6bbfb96986bf182e497ab2349ae652fda01d3a5cbfbf25952c8ea1758360405160405180910390a25b5050505b8080614f2d906159e4565b915050614dca565b50505050565b6001600081905550565b828054828255906000526020600020908101928215614f81579160200282015b82811115614f80578251825591602001919060010190614f65565b5b509050614f8e9190614f92565b5090565b5b80821115614fab576000816000905550600101614f93565b5090565b600081519050919050565b600082825260208201905092915050565b6000819050602082019050919050565b6000819050919050565b614fee81614fdb565b82525050565b60006150008383614fe5565b60208301905092915050565b6000602082019050919050565b600061502482614faf565b61502e8185614fba565b935061503983614fcb565b8060005b8381101561506a5781516150518882614ff4565b975061505c8361500c565b92505060018101905061503d565b5085935050505092915050565b600060208201905081810360008301526150918184615019565b905092915050565b600080fd5b600080fd5b6150ac81614fdb565b81146150b757600080fd5b50565b6000813590506150c9816150a3565b92915050565b6000602082840312156150e5576150e4615099565b5b60006150f3848285016150ba565b91505092915050565b61510581614fdb565b82525050565b600060208201905061512060008301846150fc565b92915050565b600073ffffffffffffffffffffffffffffffffffffffff82169050919050565b600061515182615126565b9050919050565b61516181615146565b82525050565b60008115159050919050565b61517c81615167565b82525050565b60006060820190506151976000830186615158565b6151a46020830185615158565b6151b16040830184615173565b949350505050565b6000819050919050565b60006151de6151d96151d484615126565b6151b9565b615126565b9050919050565b60006151f0826151c3565b9050919050565b6000615202826151e5565b9050919050565b615212816151f7565b82525050565b600060208201905061522d6000830184615209565b92915050565b600061012082019050615249600083018c615158565b615256602083018b6150fc565b615263604083018a6150fc565b61527060608301896150fc565b61527d6080830188615158565b61528a60a08301876150fc565b61529760c08301866150fc565b6152a460e0830185615173565b6152b2610100830184615173565b9a9950505050505050505050565b60006060820190506152d56000830186615158565b6152e260208301856150fc565b6152ef6040830184615173565b949350505050565b6000806000606084860312156153105761530f615099565b5b600061531e868287016150ba565b935050602061532f868287016150ba565b9250506040615340868287016150ba565b9150509250925092565b600060808201905061535f6000830187615158565b61536c60208301866150fc565b61537960408301856150fc565b6153866060830184615173565b95945050505050565b600080fd5b600080fd5b600080fd5b60008083601f8401126153b4576153b361538f565b5b8235905067ffffffffffffffff8111156153d1576153d0615394565b5b6020830191508360208202830111156153ed576153ec615399565b5b9250929050565b6153fd81615146565b811461540857600080fd5b50565b60008135905061541a816153f4565b92915050565b60008060008060006060868803121561543c5761543b615099565b5b600086013567ffffffffffffffff81111561545a5761545961509e565b5b6154668882890161539e565b9550955050602086013567ffffffffffffffff8111156154895761548861509e565b5b6154958882890161539e565b935093505060406154a88882890161540b565b9150509295509295909350565b600080604083850312156154cc576154cb615099565b5b60006154da858286016150ba565b92505060206154eb858286016150ba565b9150509250929050565b600060208201905061550a6000830184615173565b92915050565b600060a0820190506155256000830188615158565b6155326020830187615158565b81810360408301526155448186615019565b905081810360608301526155588185615019565b90506155676080830184615173565b9695505050505050565b600082825260208201905092915050565b7f53756261737461206e6f20616374697661000000000000000000000000000000600082015250565b60006155b8601183615571565b91506155c382615582565b602082019050919050565b600060208201905081810360008301526155e7816155ab565b9050919050565b7f4e6f206572657320656c2076656e6465646f7200000000000000000000000000600082015250565b6000615624601383615571565b915061562f826155ee565b602082019050919050565b6000602082019050818103600083015261565381615617565b9050919050565b7f4e6f2073652070756564652063616e63656c617220636f6e2070756a6173206160008201527f6374697661730000000000000000000000000000000000000000000000000000602082015250565b60006156b6602683615571565b91506156c18261565a565b604082019050919050565b600060208201905081810360008301526156e5816156a9565b9050919050565b7f4f6665727461206e6f2061637469766100000000000000000000000000000000600082015250565b6000615722601083615571565b915061572d826156ec565b602082019050919050565b6000602082019050818103600083015261575181615715565b9050919050565b7f4e6f206572657320656c2064657374696e61746172696f000000000000000000600082015250565b600061578e601783615571565b915061579982615758565b602082019050919050565b600060208201905081810360008301526157bd81615781565b9050919050565b7f4e487b7100000000000000000000000000000000000000000000000000000000600052603260045260246000fd5b600081519050615802816153f4565b92915050565b60006020828403121561581e5761581d615099565b5b600061582c848285016157f3565b91505092915050565b7f456c206f666572656e7465207961206e6f20706f736565206c61206361727461600082015250565b600061586b602083615571565b915061587682615835565b602082019050919050565b6000602082019050818103600083015261589a8161585e565b9050919050565b60006040820190506158b66000830185615158565b6158c36020830184615158565b9392505050565b6158d381615167565b81146158de57600080fd5b50565b6000815190506158f0816158ca565b92915050565b60006020828403121561590c5761590b615099565b5b600061591a848285016158e1565b91505092915050565b7f456c206f666572656e7465206e6f206861206170726f6261646f206c6120636160008201527f7274610000000000000000000000000000000000000000000000000000000000602082015250565b600061597f602383615571565b915061598a82615923565b604082019050919050565b600060208201905081810360008301526159ae81615972565b9050919050565b7f4e487b7100000000000000000000000000000000000000000000000000000000600052601160045260246000fd5b60006159ef82614fdb565b91507fffffffffffffffffffffffffffffffffffffffffffffffffffffffffffffffff8203615a2157615a206159b5565b5b600182019050919050565b7f5961206e6f20706f73656573206c6120636172746120736f6c69636974616461600082015250565b6000615a62602083615571565b9150615a6d82615a2c565b602082019050919050565b60006020820190508181036000830152615a9181615a55565b9050919050565b7f4e6f20686173206170726f6261646f206c6120636172746120736f6c6963697460008201527f6164610000000000000000000000000000000000000000000000000000000000602082015250565b6000615af4602383615571565b9150615aff82615a98565b604082019050919050565b60006020820190508181036000830152615b2381615ae7565b9050919050565b6000606082019050615b3f6000830186615158565b615b4c6020830185615158565b615b5960408301846150fc565b949350505050565b7f4e6f206572657320656c2070726f706965746172696f2064656c204e46540000600082015250565b6000615b97601e83615571565b9150615ba282615b61565b602082019050919050565b60006020820190508181036000830152615bc681615b8a565b9050919050565b600081905092915050565b50565b6000615be8600083615bcd565b9150615bf382615bd8565b600082019050919050565b6000615c0982615bdb565b9150819050919050565b7f46616c6c6f20616c206465766f6c766572204554480000000000000000000000600082015250565b6000615c49601583615571565b9150615c5482615c13565b602082019050919050565b60006020820190508181036000830152615c7881615c3c565b9050919050565b7f4475726163696f6e3a20656e747265203120792031363820686f726173000000600082015250565b6000615cb5601d83615571565b9150615cc082615c7f565b602082019050919050565b60006020820190508181036000830152615ce481615ca8565b9050919050565b7f4e6f206572657320656c2070726f706965746172696f00000000000000000000600082015250565b6000615d21601683615571565b9150615d2c82615ceb565b602082019050919050565b60006020820190508181036000830152615d5081615d14565b9050919050565b7f456c206d61726b6574706c616365206e6f207469656e65206170726f6261636960008201527f6f6e000000000000000000000000000000000000000000000000000000000000602082015250565b6000615db3602283615571565b9150615dbe82615d57565b604082019050919050565b60006020820190508181036000830152615de281615da6565b9050919050565b7f456c20746f6b656e2065737461206c69737461646f20706172612076656e7461600082015250565b6000615e1f602083615571565b9150615e2a82615de9565b602082019050919050565b60006020820190508181036000830152615e4e81615e12565b9050919050565b7f5961207469656e6520756e612073756261737461206163746976610000000000600082015250565b6000615e8b601b83615571565b9150615e9682615e55565b602082019050919050565b60006020820190508181036000830152615eba81615e7e565b9050919050565b6000615ecc82614fdb565b9150615ed783614fdb565b9250828202615ee581614fdb565b91508282048414831517615efc57615efb6159b5565b5b5092915050565b6000615f0e82614fdb565b9150615f1983614fdb565b9250828201905080821115615f3157615f306159b5565b5b92915050565b6000604082019050615f4c60008301856150fc565b615f5960208301846150fc565b9392505050565b7f446562657320656e766961722045544800000000000000000000000000000000600082015250565b6000615f96601083615571565b9150615fa182615f60565b602082019050919050565b60006020820190508181036000830152615fc581615f89565b9050919050565b7f4e6f20707565646573206f66657274617220706f722074752070726f70696f2060008201527f4e46540000000000000000000000000000000000000000000000000000000000602082015250565b6000616028602383615571565b915061603382615fcc565b604082019050919050565b600060208201905081810360008301526160578161601b565b9050919050565b7f4c6120737562617374612061756e206e6f20686120657870697261646f000000600082015250565b6000616094601d83615571565b915061609f8261605e565b602082019050919050565b600060208201905081810360008301526160c381616087565b9050919050565b7f5961206675652066696e616c697a616461000000000000000000000000000000600082015250565b6000616100601183615571565b915061610b826160ca565b602082019050919050565b6000602082019050818103600083015261612f816160f3565b9050919050565b7f46616c6c6f20616c20656e766961722045544820616c2076656e6465646f7200600082015250565b600061616c601f83615571565b915061617782616136565b602082019050919050565b6000602082019050818103600083015261619b8161615f565b9050919050565b60006040820190506161b76000830185615158565b6161c460208301846150fc565b9392505050565b7f46616c6c6f20616c206465766f6c7665722045544820616c20706f73746f7200600082015250565b6000616201601f83615571565b915061620c826161cb565b602082019050919050565b60006020820190508181036000830152616230816161f4565b9050919050565b6000819050919050565b600061625c61625761625284616237565b6151b9565b614fdb565b9050919050565b61626c81616241565b82525050565b60006040820190506162876000830185615158565b6162946020830184616263565b9392505050565b7f4e6f206572657320656c206f666572656e746500000000000000000000000000600082015250565b60006162d1601383615571565b91506162dc8261629b565b602082019050919050565b60006020820190508181036000830152616300816162c4565b9050919050565b7f4465626573206f66726563657220616c206d656e6f7320756e61206361727461600082015250565b600061633d602083615571565b915061634882616307565b602082019050919050565b6000602082019050818103600083015261636c81616330565b9050919050565b7f446562657320736f6c69636974617220616c206d656e6f7320756e612063617260008201527f7461000000000000000000000000000000000000000000000000000000000000602082015250565b60006163cf602283615571565b91506163da82616373565b604082019050919050565b600060208201905081810360008301526163fe816163c2565b9050919050565b7f4e6f2070756564657320696e74657263616d6269617220636f6e7469676f206d60008201527f69736d6f00000000000000000000000000000000000000000000000000000000602082015250565b6000616461602483615571565b915061646c82616405565b604082019050919050565b6000602082019050818103600083015261649081616454565b9050919050565b7f44657374696e61746172696f20696e76616c69646f0000000000000000000000600082015250565b60006164cd601583615571565b91506164d882616497565b602082019050919050565b600060208201905081810360008301526164fc816164c0565b9050919050565b7f4e6f20706f7365657320746f646173206c617320636172746173206f6672656360008201527f6964617300000000000000000000000000000000000000000000000000000000602082015250565b600061655f602483615571565b915061656a82616503565b604082019050919050565b6000602082019050818103600083015261658e81616552565b9050919050565b7f456c2064657374696e61746172696f206e6f20706f73656520746f646173206c60008201527f61732063617274617320736f6c69636974616461730000000000000000000000602082015250565b60006165f1603583615571565b91506165fc82616595565b604082019050919050565b60006020820190508181036000830152616620816165e4565b9050919050565b7f456c2070726563696f206465626520736572206d61796f722061203000000000600082015250565b600061665d601c83615571565b915061666882616627565b602082019050919050565b6000602082019050818103600083015261668c81616650565b9050919050565b7f59612065737461206c69737461646f0000000000000000000000000000000000600082015250565b60006166c9600f83615571565b91506166d482616693565b602082019050919050565b600060208201905081810360008301526166f8816166bc565b9050919050565b7f456c20746f6b656e207469656e6520756e61207375626173746120616374697660008201527f6100000000000000000000000000000000000000000000000000000000000000602082015250565b600061675b602183615571565b9150616766826166ff565b604082019050919050565b6000602082019050818103600083015261678a8161674e565b9050919050565b7f4c61207375626173746120686120657870697261646f00000000000000000000600082015250565b60006167c7601683615571565b91506167d282616791565b602082019050919050565b600060208201905081810360008301526167f6816167ba565b9050919050565b7f4e6f207075656465732070756a617220656e2074752070726f7069612073756260008201527f6173746100000000000000000000000000000000000000000000000000000000602082015250565b6000616859602483615571565b9150616864826167fd565b604082019050919050565b600060208201905081810360008301526168888161684c565b9050919050565b7f4c612070756a6120646562652073757065726172206c612061637475616c0000600082015250565b60006168c5601e83615571565b91506168d08261688f565b602082019050919050565b600060208201905081810360008301526168f4816168b8565b9050919050565b7f50756a6120696e666572696f7220616c2070726563696f206d696e696d6f0000600082015250565b6000616931601e83615571565b915061693c826168fb565b602082019050919050565b6000602082019050818103600083015261696081616924565b9050919050565b600061697282614fdb565b915061697d83614fdb565b9250828203905081811115616995576169946159b5565b5b92915050565b7f46616c6c6f20616c206465766f6c7665722045544820616c20706f73746f722060008201527f616e746572696f72000000000000000000000000000000000000000000000000602082015250565b60006169f7602883615571565b9150616a028261699b565b604082019050919050565b60006020820190508181036000830152616a26816169ea565b9050919050565b7f4e6f2065737461206c69737461646f0000000000000000000000000000000000600082015250565b6000616a63600f83615571565b9150616a6e82616a2d565b602082019050919050565b60006020820190508181036000830152616a9281616a56565b9050919050565b7f45544820696e737566696369656e746500000000000000000000000000000000600082015250565b6000616acf601083615571565b9150616ada82616a99565b602082019050919050565b60006020820190508181036000830152616afe81616ac2565b9050919050565b7f4e6f2070756564657320636f6d707261722074752070726f70696f204e465400600082015250565b6000616b3b601f83615571565b9150616b4682616b05565b602082019050919050565b60006020820190508181036000830152616b6a81616b2e565b9050919050565b7f46616c6c6f20616c206465766f6c7665722065786365736f0000000000000000600082015250565b6000616ba7601883615571565b9150616bb282616b71565b602082019050919050565b60006020820190508181036000830152616bd681616b9a565b9050919050565b7f46616c6c6f20616c20656e766961722045544800000000000000000000000000600082015250565b6000616c13601383615571565b9150616c1e82616bdd565b602082019050919050565b60006020820190508181036000830152616c4281616c06565b9050919050565b7f4e487b7100000000000000000000000000000000000000000000000000000000600052603160045260246000fdfea26469706673582212209f5acafc21c7414e2d644ec34c91ba780caad478b6dd9d340676019fa409c0e264736f6c63430008140033",
  "linkReferences": {},
  "deployedLinkReferences": {}
}