{
  "_format": "hh-sol-artifact-1",
  "contractName": "Marketplace",
  "sourceName": "contracts/Marketplace.sol",
  "abi": [
    {
      "inputs": [
        {
          "internalType": "address",
          "name": "_nftContrato",
          "type": "address"
        }
      ],
      "stateMutability": "nonpayable",
      "type": "constructor"
    },
    {
      "inputs": [],
      "name": "ReentrancyGuardReentrantCall",
      "type": "error"
    },
    {
      "anonymous": false,
      "inputs": [
        {
          "indexed": true,
          "internalType": "uint256",
          "name": "tokenId",
          "type": "uint256"
        },
        {
          "indexed": true,
          "internalType": "address",
          "name": "vendedor",
          "type": "address"
        }
      ],
      "name": "ListadoCancelado",
      "type": "event"
    },
    {
      "anonymous": false,
      "inputs": [
        {
          "indexed": true,
          "internalType": "uint256",
          "name": "tokenId",
          "type": "uint256"
        },
        {
          "indexed": true,
          "internalType": "address",
          "name": "vendedor",
          "type": "address"
        },
        {
          "indexed": false,
          "internalType": "uint256",
          "name": "precio",
          "type": "uint256"
        }
      ],
      "name": "NFTListado",
      "type": "event"
    },
    {
      "anonymous": false,
      "inputs": [
        {
          "indexed": true,
          "internalType": "uint256",
          "name": "tokenId",
          "type": "uint256"
        },
        {
          "indexed": true,
          "internalType": "address",
          "name": "vendedor",
          "type": "address"
        },
        {
          "indexed": true,
          "internalType": "address",
          "name": "comprador",
          "type": "address"
        },
        {
          "indexed": false,
          "internalType": "uint256",
          "name": "precio",
          "type": "uint256"
        }
      ],
      "name": "NFTVendido",
      "type": "event"
    },
    {
      "anonymous": false,
      "inputs": [
        {
          "indexed": true,
          "internalType": "uint256",
          "name": "ofertaId",
          "type": "uint256"
        },
        {
          "indexed": true,
          "internalType": "address",
          "name": "propietario",
          "type": "address"
        },
        {
          "indexed": true,
          "internalType": "address",
          "name": "oferente",
          "type": "address"
        }
      ],
      "name": "OfertaETHAceptada",
      "type": "event"
    },
    {
      "anonymous": false,
      "inputs": [
        {
          "indexed": true,
          "internalType": "uint256",
          "name": "ofertaId",
          "type": "uint256"
        }
      ],
      "name": "OfertaETHCancelada",
      "type": "event"
    },
    {
      "anonymous": false,
      "inputs": [
        {
          "indexed": true,
          "internalType": "uint256",
          "name": "ofertaId",
          "type": "uint256"
        },
        {
          "indexed": true,
          "internalType": "address",
          "name": "oferente",
          "type": "address"
        },
        {
          "indexed": true,
          "internalType": "uint256",
          "name": "tokenId",
          "type": "uint256"
        },
        {
          "indexed": false,
          "internalType": "uint256",
          "name": "monto",
          "type": "uint256"
        }
      ],
      "name": "OfertaETHCreada",
      "type": "event"
    },
    {
      "anonymous": false,
      "inputs": [
        {
          "indexed": true,
          "internalType": "uint256",
          "name": "ofertaId",
          "type": "uint256"
        }
      ],
      "name": "OfertaETHRechazada",
      "type": "event"
    },
    {
      "anonymous": false,
      "inputs": [
        {
          "indexed": true,
          "internalType": "uint256",
          "name": "ofertaId",
          "type": "uint256"
        }
      ],
      "name": "OfertaIntercambioAceptada",
      "type": "event"
    },
    {
      "anonymous": false,
      "inputs": [
        {
          "indexed": true,
          "internalType": "uint256",
          "name": "ofertaId",
          "type": "uint256"
        }
      ],
      "name": "OfertaIntercambioCancelada",
      "type": "event"
    },
    {
      "anonymous": false,
      "inputs": [
        {
          "indexed": true,
          "internalType": "uint256",
          "name": "ofertaId",
          "type": "uint256"
        },
        {
          "indexed": true,
          "internalType": "address",
          "name": "oferente",
          "type": "address"
        },
        {
          "indexed": true,
          "internalType": "address",
          "name": "destinatario",
          "type": "address"
        }
      ],
      "name": "OfertaIntercambioCreada",
      "type": "event"
    },
    {
      "anonymous": false,
      "inputs": [
        {
          "indexed": true,
          "internalType": "uint256",
          "name": "ofertaId",
          "type": "uint256"
        }
      ],
      "name": "OfertaIntercambioRechazada",
      "type": "event"
    },
    {
      "inputs": [
        {
          "internalType": "uint256",
          "name": "ofertaId",
          "type": "uint256"
        }
      ],
      "name": "aceptarOfertaETH",
      "outputs": [],
      "stateMutability": "nonpayable",
      "type": "function"
    },
    {
      "inputs": [
        {
          "internalType": "uint256",
          "name": "ofertaId",
          "type": "uint256"
        }
      ],
      "name": "aceptarOfertaIntercambio",
      "outputs": [],
      "stateMutability": "nonpayable",
      "type": "function"
    },
    {
      "inputs": [
        {
          "internalType": "uint256",
          "name": "tokenId",
          "type": "uint256"
        }
      ],
      "name": "cancelarListado",
      "outputs": [],
      "stateMutability": "nonpayable",
      "type": "function"
    },
    {
      "inputs": [
        {
          "internalType": "uint256",
          "name": "ofertaId",
          "type": "uint256"
        }
      ],
      "name": "cancelarOfertaETH",
      "outputs": [],
      "stateMutability": "nonpayable",
      "type": "function"
    },
    {
      "inputs": [
        {
          "internalType": "uint256",
          "name": "ofertaId",
          "type": "uint256"
        }
      ],
      "name": "cancelarOfertaIntercambio",
      "outputs": [],
      "stateMutability": "nonpayable",
      "type": "function"
    },
    {
      "inputs": [
        {
          "internalType": "uint256",
          "name": "tokenId",
          "type": "uint256"
        }
      ],
      "name": "comprarNFT",
      "outputs": [],
      "stateMutability": "payable",
      "type": "function"
    },
    {
      "inputs": [
        {
          "internalType": "uint256",
          "name": "tokenId",
          "type": "uint256"
        }
      ],
      "name": "crearOfertaETH",
      "outputs": [],
      "stateMutability": "payable",
      "type": "function"
    },
    {
      "inputs": [
        {
          "internalType": "uint256[]",
          "name": "tokensOfrecidos",
          "type": "uint256[]"
        },
        {
          "internalType": "uint256[]",
          "name": "tokensSolicitados",
          "type": "uint256[]"
        },
        {
          "internalType": "address",
          "name": "destinatario",
          "type": "address"
        }
      ],
      "name": "crearOfertaIntercambio",
      "outputs": [],
      "stateMutability": "nonpayable",
      "type": "function"
    },
    {
      "inputs": [
        {
          "internalType": "uint256",
          "name": "",
          "type": "uint256"
        }
      ],
      "name": "listados",
      "outputs": [
        {
          "internalType": "address",
          "name": "vendedor",
          "type": "address"
        },
        {
          "internalType": "uint256",
          "name": "precio",
          "type": "uint256"
        },
        {
          "internalType": "bool",
          "name": "activo",
          "type": "bool"
        }
      ],
      "stateMutability": "view",
      "type": "function"
    },
    {
      "inputs": [
        {
          "internalType": "uint256",
          "name": "tokenId",
          "type": "uint256"
        },
        {
          "internalType": "uint256",
          "name": "precio",
          "type": "uint256"
        }
      ],
      "name": "listarNFT",
      "outputs": [],
      "stateMutability": "nonpayable",
      "type": "function"
    },
    {
      "inputs": [],
      "name": "nextOfertaETHId",
      "outputs": [
        {
          "internalType": "uint256",
          "name": "",
          "type": "uint256"
        }
      ],
      "stateMutability": "view",
      "type": "function"
    },
    {
      "inputs": [],
      "name": "nextOfertaIntercambioId",
      "outputs": [
        {
          "internalType": "uint256",
          "name": "",
          "type": "uint256"
        }
      ],
      "stateMutability": "view",
      "type": "function"
    },
    {
      "inputs": [],
      "name": "nftContrato",
      "outputs": [
        {
          "internalType": "contract IERC721",
          "name": "",
          "type": "address"
        }
      ],
      "stateMutability": "view",
      "type": "function"
    },
    {
      "inputs": [
        {
          "internalType": "uint256",
          "name": "tokenId",
          "type": "uint256"
        }
      ],
      "name": "obtenerListado",
      "outputs": [
        {
          "internalType": "address",
          "name": "vendedor",
          "type": "address"
        },
        {
          "internalType": "uint256",
          "name": "precio",
          "type": "uint256"
        },
        {
          "internalType": "bool",
          "name": "activo",
          "type": "bool"
        }
      ],
      "stateMutability": "view",
      "type": "function"
    },
    {
      "inputs": [
        {
          "internalType": "uint256",
          "name": "ofertaId",
          "type": "uint256"
        }
      ],
      "name": "obtenerOfertaETH",
      "outputs": [
        {
          "internalType": "address",
          "name": "oferente",
          "type": "address"
        },
        {
          "internalType": "uint256",
          "name": "tokenIdObjetivo",
          "type": "uint256"
        },
        {
          "internalType": "uint256",
          "name": "montoETH",
          "type": "uint256"
        },
        {
          "internalType": "bool",
          "name": "activa",
          "type": "bool"
        }
      ],
      "stateMutability": "view",
      "type": "function"
    },
    {
      "inputs": [
        {
          "internalType": "uint256",
          "name": "ofertaId",
          "type": "uint256"
        }
      ],
      "name": "obtenerOfertaIntercambio",
      "outputs": [
        {
          "internalType": "address",
          "name": "oferente",
          "type": "address"
        },
        {
          "internalType": "address",
          "name": "destinatario",
          "type": "address"
        },
        {
          "internalType": "uint256[]",
          "name": "tokensOfrecidos",
          "type": "uint256[]"
        },
        {
          "internalType": "uint256[]",
          "name": "tokensSolicitados",
          "type": "uint256[]"
        },
        {
          "internalType": "bool",
          "name": "activa",
          "type": "bool"
        }
      ],
      "stateMutability": "view",
      "type": "function"
    },
    {
      "inputs": [],
      "name": "obtenerTodosListados",
      "outputs": [
        {
          "internalType": "uint256[]",
          "name": "",
          "type": "uint256[]"
        }
      ],
      "stateMutability": "view",
      "type": "function"
    },
    {
      "inputs": [
        {
          "internalType": "uint256",
          "name": "",
          "type": "uint256"
        }
      ],
      "name": "ofertasETH",
      "outputs": [
        {
          "internalType": "address",
          "name": "oferente",
          "type": "address"
        },
        {
          "internalType": "uint256",
          "name": "tokenIdObjetivo",
          "type": "uint256"
        },
        {
          "internalType": "uint256",
          "name": "montoETH",
          "type": "uint256"
        },
        {
          "internalType": "bool",
          "name": "activa",
          "type": "bool"
        }
      ],
      "stateMutability": "view",
      "type": "function"
    },
    {
      "inputs": [
        {
          "internalType": "uint256",
          "name": "",
          "type": "uint256"
        }
      ],
      "name": "ofertasIntercambio",
      "outputs": [
        {
          "internalType": "address",
          "name": "oferente",
          "type": "address"
        },
        {
          "internalType": "address",
          "name": "destinatario",
          "type": "address"
        },
        {
          "internalType": "bool",
          "name": "activa",
          "type": "bool"
        }
      ],
      "stateMutability": "view",
      "type": "function"
    },
    {
      "inputs": [
        {
          "internalType": "uint256",
          "name": "ofertaId",
          "type": "uint256"
        }
      ],
      "name": "rechazarOfertaETH",
      "outputs": [],
      "stateMutability": "nonpayable",
      "type": "function"
    },
    {
      "inputs": [
        {
          "internalType": "uint256",
          "name": "ofertaId",
          "type": "uint256"
        }
      ],
      "name": "rechazarOfertaIntercambio",
      "outputs": [],
      "stateMutability": "nonpayable",
      "type": "function"
    },
    {
      "inputs": [],
      "name": "totalListados",
      "outputs": [
        {
          "internalType": "uint256",
          "name": "",
          "type": "uint256"
        }
      ],
      "stateMutability": "view",
      "type": "function"
    }
  ],
  "bytecode": "0x60a06040523480156200001157600080fd5b5060405162004cab38038062004cab833981810160405281019062000037919062000156565b6001600081905550600073ffffffffffffffffffffffffffffffffffffffff168173ffffffffffffffffffffffffffffffffffffffff1603620000b1576040517f08c379a0000000000000000000000000000000000000000000000000000000008152600401620000a890620001e9565b60405180910390fd5b8073ffffffffffffffffffffffffffffffffffffffff1660808173ffffffffffffffffffffffffffffffffffffffff1681525050506200020b565b600080fd5b600073ffffffffffffffffffffffffffffffffffffffff82169050919050565b60006200011e82620000f1565b9050919050565b620001308162000111565b81146200013c57600080fd5b50565b600081519050620001508162000125565b92915050565b6000602082840312156200016f576200016e620000ec565b5b60006200017f848285016200013f565b91505092915050565b600082825260208201905092915050565b7f446972656363696f6e20696e76616c6964610000000000000000000000000000600082015250565b6000620001d160128362000188565b9150620001de8262000199565b602082019050919050565b600060208201905081810360008301526200020481620001c2565b9050919050565b6080516149f8620002b3600039600081816107880152818161088f0152818161094601528181610a8501528181610b8c01528181610c4301528181610dea01528181610f2701528181611005015281816110b90152818161140601528181611aa401528181611be60152818161200e01528181612115015281816121cc0152818161265801528181612aa101528181612ba801528181612c5f0152612dec01526149f86000f3fe6080604052600436106101355760003560e01c806398a6f320116100ab578063bda84a271161006f578063bda84a2714610437578063d1c0664714610453578063d56657e11461047c578063dbf7f79a146104a5578063ee7b23e9146104e6578063f144e23a1461050f57610135565b806398a6f3201461033d57806398e034b6146103665780639f4c17231461038f578063a26a2998146103cf578063bcbbe753146103f857610135565b80634172f6e8116100fd5780634172f6e814610223578063507a74301461024c57806358d084f41461028b57806362cc8c7c146102b6578063938f4dbf146102d25780639401a52c146102fd57610135565b80630f4f356a1461013a57806320f7f28f146101655780632e84cb20146101905780632fa3573d146101cf57806330ea3f8f146101f8575b600080fd5b34801561014657600080fd5b5061014f610538565b60405161015c9190613668565b60405180910390f35b34801561017157600080fd5b5061017a610590565b6040516101879190613699565b60405180910390f35b34801561019c57600080fd5b506101b760048036038101906101b291906136ea565b610596565b6040516101c693929190613773565b60405180910390f35b3480156101db57600080fd5b506101f660048036038101906101f191906136ea565b61060d565b005b34801561020457600080fd5b5061020d611003565b60405161021a9190613809565b60405180910390f35b34801561022f57600080fd5b5061024a600480360381019061024591906136ea565b611027565b005b34801561025857600080fd5b50610273600480360381019061026e91906136ea565b6112df565b60405161028293929190613824565b60405180910390f35b34801561029757600080fd5b506102a061139d565b6040516102ad9190613699565b60405180910390f35b6102d060048036038101906102cb91906136ea565b6113aa565b005b3480156102de57600080fd5b506102e761162e565b6040516102f49190613699565b60405180910390f35b34801561030957600080fd5b50610324600480360381019061031f91906136ea565b611634565b604051610334949392919061385b565b60405180910390f35b34801561034957600080fd5b50610364600480360381019061035f91906136ea565b611705565b005b34801561037257600080fd5b5061038d60048036038101906103889190613931565b611914565b005b34801561039b57600080fd5b506103b660048036038101906103b191906136ea565b611f55565b6040516103c6949392919061385b565b60405180910390f35b3480156103db57600080fd5b506103f660048036038101906103f191906139c6565b611fb2565b005b34801561040457600080fd5b5061041f600480360381019061041a91906136ea565b61245e565b60405161042e93929190613824565b60405180910390f35b610451600480360381019061044c91906136ea565b6124b5565b005b34801561045f57600080fd5b5061047a600480360381019061047591906136ea565b6128c7565b005b34801561048857600080fd5b506104a3600480360381019061049e91906136ea565b612a0f565b005b3480156104b157600080fd5b506104cc60048036038101906104c791906136ea565b612f90565b6040516104dd959493929190613a06565b60405180910390f35b3480156104f257600080fd5b5061050d600480360381019061050891906136ea565b61315d565b005b34801561051b57600080fd5b50610536600480360381019061053191906136ea565b6132c5565b005b6060600280548060200260200160405190810160405280929190818152602001828054801561058657602002820191906000526020600020905b815481526020019060010190808311610572575b5050505050905090565b60045481565b60076020528060005260406000206000915090508060000160009054906101000a900473ffffffffffffffffffffffffffffffffffffffff16908060010160009054906101000a900473ffffffffffffffffffffffffffffffffffffffff16908060040160009054906101000a900460ff16905083565b61061561340d565b60006007600083815260200190815260200160002090508060040160009054906101000a900460ff1661067d576040517f08c379a000000000000000000000000000000000000000000000000000000000815260040161067490613ac4565b60405180910390fd5b3373ffffffffffffffffffffffffffffffffffffffff168160010160009054906101000a900473ffffffffffffffffffffffffffffffffffffffff1673ffffffffffffffffffffffffffffffffffffffff161461070f576040517f08c379a000000000000000000000000000000000000000000000000000000000815260040161070690613b30565b60405180910390fd5b60008160000160009054906101000a900473ffffffffffffffffffffffffffffffffffffffff16905060005b8260020180549050811015610a3457600083600201828154811061076257610761613b50565b5b906000526020600020015490508273ffffffffffffffffffffffffffffffffffffffff167f000000000000000000000000000000000000000000000000000000000000000073ffffffffffffffffffffffffffffffffffffffff16636352211e836040518263ffffffff1660e01b81526004016107df9190613699565b602060405180830381865afa1580156107fc573d6000803e3d6000fd5b505050506040513d601f19601f820116820180604052508101906108209190613b94565b73ffffffffffffffffffffffffffffffffffffffff1614610876576040517f08c379a000000000000000000000000000000000000000000000000000000000815260040161086d90613c0d565b60405180910390fd5b3073ffffffffffffffffffffffffffffffffffffffff167f000000000000000000000000000000000000000000000000000000000000000073ffffffffffffffffffffffffffffffffffffffff1663081812fc836040518263ffffffff1660e01b81526004016108e69190613699565b602060405180830381865afa158015610903573d6000803e3d6000fd5b505050506040513d601f19601f820116820180604052508101906109279190613b94565b73ffffffffffffffffffffffffffffffffffffffff1614806109e157507f000000000000000000000000000000000000000000000000000000000000000073ffffffffffffffffffffffffffffffffffffffff1663e985e9c584306040518363ffffffff1660e01b815260040161099f929190613c2d565b602060405180830381865afa1580156109bc573d6000803e3d6000fd5b505050506040513d601f19601f820116820180604052508101906109e09190613c82565b5b610a20576040517f08c379a0000000000000000000000000000000000000000000000000000000008152600401610a1790613d21565b60405180910390fd5b508080610a2c90613d70565b91505061073b565b5060005b8260030180549050811015610d31576000836003018281548110610a5f57610a5e613b50565b5b906000526020600020015490503373ffffffffffffffffffffffffffffffffffffffff167f000000000000000000000000000000000000000000000000000000000000000073ffffffffffffffffffffffffffffffffffffffff16636352211e836040518263ffffffff1660e01b8152600401610adc9190613699565b602060405180830381865afa158015610af9573d6000803e3d6000fd5b505050506040513d601f19601f82011682018060405250810190610b1d9190613b94565b73ffffffffffffffffffffffffffffffffffffffff1614610b73576040517f08c379a0000000000000000000000000000000000000000000000000000000008152600401610b6a90613e04565b60405180910390fd5b3073ffffffffffffffffffffffffffffffffffffffff167f000000000000000000000000000000000000000000000000000000000000000073ffffffffffffffffffffffffffffffffffffffff1663081812fc836040518263ffffffff1660e01b8152600401610be39190613699565b602060405180830381865afa158015610c00573d6000803e3d6000fd5b505050506040513d601f19601f82011682018060405250810190610c249190613b94565b73ffffffffffffffffffffffffffffffffffffffff161480610cde57507f000000000000000000000000000000000000000000000000000000000000000073ffffffffffffffffffffffffffffffffffffffff1663e985e9c533306040518363ffffffff1660e01b8152600401610c9c929190613c2d565b602060405180830381865afa158015610cb9573d6000803e3d6000fd5b505050506040513d601f19601f82011682018060405250810190610cdd9190613c82565b5b610d1d576040517f08c379a0000000000000000000000000000000000000000000000000000000008152600401610d1490613e96565b60405180910390fd5b508080610d2990613d70565b915050610a38565b5060008260040160006101000a81548160ff02191690831515021790555060005b8260020180549050811015610e8b576000836002018281548110610d7957610d78613b50565b5b906000526020600020015490506001600082815260200190815260200160002060020160009054906101000a900460ff1615610de85760006001600083815260200190815260200160002060020160006101000a81548160ff021916908315150217905550610de781613453565b5b7f000000000000000000000000000000000000000000000000000000000000000073ffffffffffffffffffffffffffffffffffffffff166323b872dd8433846040518463ffffffff1660e01b8152600401610e4593929190613eb6565b600060405180830381600087803b158015610e5f57600080fd5b505af1158015610e73573d6000803e3d6000fd5b50505050508080610e8390613d70565b915050610d52565b5060005b8260030180549050811015610fc8576000836003018281548110610eb657610eb5613b50565b5b906000526020600020015490506001600082815260200190815260200160002060020160009054906101000a900460ff1615610f255760006001600083815260200190815260200160002060020160006101000a81548160ff021916908315150217905550610f2481613453565b5b7f000000000000000000000000000000000000000000000000000000000000000073ffffffffffffffffffffffffffffffffffffffff166323b872dd3385846040518463ffffffff1660e01b8152600401610f8293929190613eb6565b600060405180830381600087803b158015610f9c57600080fd5b505af1158015610fb0573d6000803e3d6000fd5b50505050508080610fc090613d70565b915050610e8f565b50827fc3f17759ec2f1822217427833abf78b5855b28aa14a9f849795a06c1cbd431f160405160405180910390a2505061100061352c565b50565b7f000000000000000000000000000000000000000000000000000000000000000081565b61102f61340d565b60006005600083815260200190815260200160002090508060030160009054906101000a900460ff16611097576040517f08c379a000000000000000000000000000000000000000000000000000000000815260040161108e90613ac4565b60405180910390fd5b6000816001015490503373ffffffffffffffffffffffffffffffffffffffff167f000000000000000000000000000000000000000000000000000000000000000073ffffffffffffffffffffffffffffffffffffffff16636352211e836040518263ffffffff1660e01b81526004016111109190613699565b602060405180830381865afa15801561112d573d6000803e3d6000fd5b505050506040513d601f19601f820116820180604052508101906111519190613b94565b73ffffffffffffffffffffffffffffffffffffffff16146111a7576040517f08c379a000000000000000000000000000000000000000000000000000000000815260040161119e90613f39565b60405180910390fd5b60008260000160009054906101000a900473ffffffffffffffffffffffffffffffffffffffff16905060008360020154905060008460030160006101000a81548160ff02191690831515021790555060008273ffffffffffffffffffffffffffffffffffffffff168260405161121c90613f8a565b60006040518083038185875af1925050503d8060008114611259576040519150601f19603f3d011682016040523d82523d6000602084013e61125e565b606091505b50509050806112a2576040517f08c379a000000000000000000000000000000000000000000000000000000000815260040161129990613feb565b60405180910390fd5b857f86e00a822031edb41323ff7c955500ecbc6fb5314a4ac7232c9c73f2ba46d27d60405160405180910390a250505050506112dc61352c565b50565b600080600080600160008681526020019081526020016000206040518060600160405290816000820160009054906101000a900473ffffffffffffffffffffffffffffffffffffffff1673ffffffffffffffffffffffffffffffffffffffff1673ffffffffffffffffffffffffffffffffffffffff168152602001600182015481526020016002820160009054906101000a900460ff1615151515815250509050806000015181602001518260400151935093509350509193909250565b6000600280549050905090565b600034116113ed576040517f08c379a00000000000000000000000000000000000000000000000000000000081526004016113e490614057565b60405180910390fd5b3373ffffffffffffffffffffffffffffffffffffffff167f000000000000000000000000000000000000000000000000000000000000000073ffffffffffffffffffffffffffffffffffffffff16636352211e836040518263ffffffff1660e01b815260040161145d9190613699565b602060405180830381865afa15801561147a573d6000803e3d6000fd5b505050506040513d601f19601f8201168201806040525081019061149e9190613b94565b73ffffffffffffffffffffffffffffffffffffffff16036114f4576040517f08c379a00000000000000000000000000000000000000000000000000000000081526004016114eb906140e9565b60405180910390fd5b60006004600081548092919061150990613d70565b91905055905060405180608001604052803373ffffffffffffffffffffffffffffffffffffffff168152602001838152602001348152602001600115158152506005600083815260200190815260200160002060008201518160000160006101000a81548173ffffffffffffffffffffffffffffffffffffffff021916908373ffffffffffffffffffffffffffffffffffffffff160217905550602082015181600101556040820151816002015560608201518160030160006101000a81548160ff021916908315150217905550905050813373ffffffffffffffffffffffffffffffffffffffff16827fde71b5425a9efa2abf6337537801849866c503e3b116cbd5a02b96b83633f9ab346040516116229190613699565b60405180910390a45050565b60065481565b6000806000806000600560008781526020019081526020016000206040518060800160405290816000820160009054906101000a900473ffffffffffffffffffffffffffffffffffffffff1673ffffffffffffffffffffffffffffffffffffffff1673ffffffffffffffffffffffffffffffffffffffff16815260200160018201548152602001600282015481526020016003820160009054906101000a900460ff161515151581525050905080600001518160200151826040015183606001519450945094509450509193509193565b61170d61340d565b60006005600083815260200190815260200160002090508060030160009054906101000a900460ff16611775576040517f08c379a000000000000000000000000000000000000000000000000000000000815260040161176c90613ac4565b60405180910390fd5b3373ffffffffffffffffffffffffffffffffffffffff168160000160009054906101000a900473ffffffffffffffffffffffffffffffffffffffff1673ffffffffffffffffffffffffffffffffffffffff1614611807576040517f08c379a00000000000000000000000000000000000000000000000000000000081526004016117fe90614155565b60405180910390fd5b60008160020154905060008260030160006101000a81548160ff02191690831515021790555060003373ffffffffffffffffffffffffffffffffffffffff168260405161185390613f8a565b60006040518083038185875af1925050503d8060008114611890576040519150601f19603f3d011682016040523d82523d6000602084013e611895565b606091505b50509050806118d9576040517f08c379a00000000000000000000000000000000000000000000000000000000081526004016118d090613feb565b60405180910390fd5b837f85f5ca6bbfb96986bf182e497ab2349ae652fda01d3a5cbfbf25952c8ea1758360405160405180910390a250505061191161352c565b50565b6000858590501161195a576040517f08c379a0000000000000000000000000000000000000000000000000000000008152600401611951906141c1565b60405180910390fd5b600083839050116119a0576040517f08c379a000000000000000000000000000000000000000000000000000000000815260040161199790614253565b60405180910390fd5b3373ffffffffffffffffffffffffffffffffffffffff168173ffffffffffffffffffffffffffffffffffffffff1603611a0e576040517f08c379a0000000000000000000000000000000000000000000000000000000008152600401611a05906142e5565b60405180910390fd5b600073ffffffffffffffffffffffffffffffffffffffff168173ffffffffffffffffffffffffffffffffffffffff1603611a7d576040517f08c379a0000000000000000000000000000000000000000000000000000000008152600401611a7490614351565b60405180910390fd5b60005b85859050811015611bbe573373ffffffffffffffffffffffffffffffffffffffff167f000000000000000000000000000000000000000000000000000000000000000073ffffffffffffffffffffffffffffffffffffffff16636352211e888885818110611af157611af0613b50565b5b905060200201356040518263ffffffff1660e01b8152600401611b149190613699565b602060405180830381865afa158015611b31573d6000803e3d6000fd5b505050506040513d601f19601f82011682018060405250810190611b559190613b94565b73ffffffffffffffffffffffffffffffffffffffff1614611bab576040517f08c379a0000000000000000000000000000000000000000000000000000000008152600401611ba2906143e3565b60405180910390fd5b8080611bb690613d70565b915050611a80565b5060005b83839050811015611d00578173ffffffffffffffffffffffffffffffffffffffff167f000000000000000000000000000000000000000000000000000000000000000073ffffffffffffffffffffffffffffffffffffffff16636352211e868685818110611c3357611c32613b50565b5b905060200201356040518263ffffffff1660e01b8152600401611c569190613699565b602060405180830381865afa158015611c73573d6000803e3d6000fd5b505050506040513d601f19601f82011682018060405250810190611c979190613b94565b73ffffffffffffffffffffffffffffffffffffffff1614611ced576040517f08c379a0000000000000000000000000000000000000000000000000000000008152600401611ce490614475565b60405180910390fd5b8080611cf890613d70565b915050611bc2565b50600060066000815480929190611d1690613d70565b9190505590506040518060a001604052803373ffffffffffffffffffffffffffffffffffffffff1681526020018373ffffffffffffffffffffffffffffffffffffffff168152602001878780806020026020016040519081016040528093929190818152602001838360200280828437600081840152601f19601f820116905080830192505050505050508152602001858580806020026020016040519081016040528093929190818152602001838360200280828437600081840152601f19601f820116905080830192505050505050508152602001600115158152506007600083815260200190815260200160002060008201518160000160006101000a81548173ffffffffffffffffffffffffffffffffffffffff021916908373ffffffffffffffffffffffffffffffffffffffff16021790555060208201518160010160006101000a81548173ffffffffffffffffffffffffffffffffffffffff021916908373ffffffffffffffffffffffffffffffffffffffff1602179055506040820151816002019080519060200190611eb1929190613536565b506060820151816003019080519060200190611ece929190613536565b5060808201518160040160006101000a81548160ff0219169083151502179055509050508173ffffffffffffffffffffffffffffffffffffffff163373ffffffffffffffffffffffffffffffffffffffff16827fcd8ecd058d8d5f674e68be16a59437dc5daf7e6fc1cd1f54902359ce1ac6c54b60405160405180910390a4505050505050565b60056020528060005260406000206000915090508060000160009054906101000a900473ffffffffffffffffffffffffffffffffffffffff16908060010154908060020154908060030160009054906101000a900460ff16905084565b60008111611ff5576040517f08c379a0000000000000000000000000000000000000000000000000000000008152600401611fec906144e1565b60405180910390fd5b3373ffffffffffffffffffffffffffffffffffffffff167f000000000000000000000000000000000000000000000000000000000000000073ffffffffffffffffffffffffffffffffffffffff16636352211e846040518263ffffffff1660e01b81526004016120659190613699565b602060405180830381865afa158015612082573d6000803e3d6000fd5b505050506040513d601f19601f820116820180604052508101906120a69190613b94565b73ffffffffffffffffffffffffffffffffffffffff16146120fc576040517f08c379a00000000000000000000000000000000000000000000000000000000081526004016120f39061454d565b60405180910390fd5b3073ffffffffffffffffffffffffffffffffffffffff167f000000000000000000000000000000000000000000000000000000000000000073ffffffffffffffffffffffffffffffffffffffff1663081812fc846040518263ffffffff1660e01b815260040161216c9190613699565b602060405180830381865afa158015612189573d6000803e3d6000fd5b505050506040513d601f19601f820116820180604052508101906121ad9190613b94565b73ffffffffffffffffffffffffffffffffffffffff16148061226757507f000000000000000000000000000000000000000000000000000000000000000073ffffffffffffffffffffffffffffffffffffffff1663e985e9c533306040518363ffffffff1660e01b8152600401612225929190613c2d565b602060405180830381865afa158015612242573d6000803e3d6000fd5b505050506040513d601f19601f820116820180604052508101906122669190613c82565b5b6122a6576040517f08c379a000000000000000000000000000000000000000000000000000000000815260040161229d906145df565b60405180910390fd5b6001600083815260200190815260200160002060020160009054906101000a900460ff161561230a576040517f08c379a00000000000000000000000000000000000000000000000000000000081526004016123019061464b565b60405180910390fd5b60405180606001604052803373ffffffffffffffffffffffffffffffffffffffff168152602001828152602001600115158152506001600084815260200190815260200160002060008201518160000160006101000a81548173ffffffffffffffffffffffffffffffffffffffff021916908373ffffffffffffffffffffffffffffffffffffffff1602179055506020820151816001015560408201518160020160006101000a81548160ff021916908315150217905550905050600280549050600360008481526020019081526020016000208190555060028290806001815401808255809150506001900390600052602060002001600090919091909150553373ffffffffffffffffffffffffffffffffffffffff16827f533273ad28288be95f71b85b0424ac7bdb3073a13fda6950c91278ca19e5e535836040516124529190613699565b60405180910390a35050565b60016020528060005260406000206000915090508060000160009054906101000a900473ffffffffffffffffffffffffffffffffffffffff16908060010154908060020160009054906101000a900460ff16905083565b6124bd61340d565b60006001600083815260200190815260200160002090508060020160009054906101000a900460ff16612525576040517f08c379a000000000000000000000000000000000000000000000000000000000815260040161251c906146b7565b60405180910390fd5b806001015434101561256c576040517f08c379a000000000000000000000000000000000000000000000000000000000815260040161256390614723565b60405180910390fd5b8060000160009054906101000a900473ffffffffffffffffffffffffffffffffffffffff1673ffffffffffffffffffffffffffffffffffffffff163373ffffffffffffffffffffffffffffffffffffffff16036125fe576040517f08c379a00000000000000000000000000000000000000000000000000000000081526004016125f59061478f565b60405180910390fd5b60008160000160009054906101000a900473ffffffffffffffffffffffffffffffffffffffff16905060008260010154905060008360020160006101000a81548160ff02191690831515021790555061265684613453565b7f000000000000000000000000000000000000000000000000000000000000000073ffffffffffffffffffffffffffffffffffffffff166323b872dd8333876040518463ffffffff1660e01b81526004016126b393929190613eb6565b600060405180830381600087803b1580156126cd57600080fd5b505af11580156126e1573d6000803e3d6000fd5b5050505060008273ffffffffffffffffffffffffffffffffffffffff168260405161270b90613f8a565b60006040518083038185875af1925050503d8060008114612748576040519150601f19603f3d011682016040523d82523d6000602084013e61274d565b606091505b5050905080612791576040517f08c379a0000000000000000000000000000000000000000000000000000000008152600401612788906147fb565b60405180910390fd5b813411156128525760003373ffffffffffffffffffffffffffffffffffffffff1683346127be919061481b565b6040516127ca90613f8a565b60006040518083038185875af1925050503d8060008114612807576040519150601f19603f3d011682016040523d82523d6000602084013e61280c565b606091505b5050905080612850576040517f08c379a00000000000000000000000000000000000000000000000000000000081526004016128479061489b565b60405180910390fd5b505b3373ffffffffffffffffffffffffffffffffffffffff168373ffffffffffffffffffffffffffffffffffffffff16867f54d56cd39f0c030ca2b0306eb7381ed8b172c3aefdc39e48179f65aa441c7410856040516128b09190613699565b60405180910390a4505050506128c461352c565b50565b60006007600083815260200190815260200160002090508060040160009054906101000a900460ff1661292f576040517f08c379a000000000000000000000000000000000000000000000000000000000815260040161292690613ac4565b60405180910390fd5b3373ffffffffffffffffffffffffffffffffffffffff168160000160009054906101000a900473ffffffffffffffffffffffffffffffffffffffff1673ffffffffffffffffffffffffffffffffffffffff16146129c1576040517f08c379a00000000000000000000000000000000000000000000000000000000081526004016129b890614155565b60405180910390fd5b60008160040160006101000a81548160ff021916908315150217905550817f3109aab59c040405a0b3f8accaba010accd4646dcb42d12491713fe44c3b678e60405160405180910390a25050565b612a1761340d565b60006005600083815260200190815260200160002090508060030160009054906101000a900460ff16612a7f576040517f08c379a0000000000000000000000000000000000000000000000000000000008152600401612a7690613ac4565b60405180910390fd5b6000816001015490503373ffffffffffffffffffffffffffffffffffffffff167f000000000000000000000000000000000000000000000000000000000000000073ffffffffffffffffffffffffffffffffffffffff16636352211e836040518263ffffffff1660e01b8152600401612af89190613699565b602060405180830381865afa158015612b15573d6000803e3d6000fd5b505050506040513d601f19601f82011682018060405250810190612b399190613b94565b73ffffffffffffffffffffffffffffffffffffffff1614612b8f576040517f08c379a0000000000000000000000000000000000000000000000000000000008152600401612b8690613f39565b60405180910390fd5b3073ffffffffffffffffffffffffffffffffffffffff167f000000000000000000000000000000000000000000000000000000000000000073ffffffffffffffffffffffffffffffffffffffff1663081812fc836040518263ffffffff1660e01b8152600401612bff9190613699565b602060405180830381865afa158015612c1c573d6000803e3d6000fd5b505050506040513d601f19601f82011682018060405250810190612c409190613b94565b73ffffffffffffffffffffffffffffffffffffffff161480612cfa57507f000000000000000000000000000000000000000000000000000000000000000073ffffffffffffffffffffffffffffffffffffffff1663e985e9c533306040518363ffffffff1660e01b8152600401612cb8929190613c2d565b602060405180830381865afa158015612cd5573d6000803e3d6000fd5b505050506040513d601f19601f82011682018060405250810190612cf99190613c82565b5b612d39576040517f08c379a0000000000000000000000000000000000000000000000000000000008152600401612d30906145df565b60405180910390fd5b60008260000160009054906101000a900473ffffffffffffffffffffffffffffffffffffffff16905060008360020154905060008460030160006101000a81548160ff0219169083151502179055506001600084815260200190815260200160002060020160009054906101000a900460ff1615612dea5760006001600085815260200190815260200160002060020160006101000a81548160ff021916908315150217905550612de983613453565b5b7f000000000000000000000000000000000000000000000000000000000000000073ffffffffffffffffffffffffffffffffffffffff166323b872dd3384866040518463ffffffff1660e01b8152600401612e4793929190613eb6565b600060405180830381600087803b158015612e6157600080fd5b505af1158015612e75573d6000803e3d6000fd5b5050505060003373ffffffffffffffffffffffffffffffffffffffff1682604051612e9f90613f8a565b60006040518083038185875af1925050503d8060008114612edc576040519150601f19603f3d011682016040523d82523d6000602084013e612ee1565b606091505b5050905080612f25576040517f08c379a0000000000000000000000000000000000000000000000000000000008152600401612f1c90614907565b60405180910390fd5b8273ffffffffffffffffffffffffffffffffffffffff163373ffffffffffffffffffffffffffffffffffffffff16877f4120925e3ea8ea4107367aaa578114df1bcf568bf65572bd5bf43052fc0d7ff860405160405180910390a45050505050612f8d61352c565b50565b600080606080600080600760008881526020019081526020016000206040518060a00160405290816000820160009054906101000a900473ffffffffffffffffffffffffffffffffffffffff1673ffffffffffffffffffffffffffffffffffffffff1673ffffffffffffffffffffffffffffffffffffffff1681526020016001820160009054906101000a900473ffffffffffffffffffffffffffffffffffffffff1673ffffffffffffffffffffffffffffffffffffffff1673ffffffffffffffffffffffffffffffffffffffff168152602001600282018054806020026020016040519081016040528092919081815260200182805480156130b257602002820191906000526020600020905b81548152602001906001019080831161309e575b505050505081526020016003820180548060200260200160405190810160405280929190818152602001828054801561310a57602002820191906000526020600020905b8154815260200190600101908083116130f6575b505050505081526020016004820160009054906101000a900460ff161515151581525050905080600001518160200151826040015183606001518460800151955095509550955095505091939590929450565b60006001600083815260200190815260200160002090508060020160009054906101000a900460ff166131c5576040517f08c379a00000000000000000000000000000000000000000000000000000000081526004016131bc906146b7565b60405180910390fd5b3373ffffffffffffffffffffffffffffffffffffffff168160000160009054906101000a900473ffffffffffffffffffffffffffffffffffffffff1673ffffffffffffffffffffffffffffffffffffffff1614613257576040517f08c379a000000000000000000000000000000000000000000000000000000000815260040161324e90614973565b60405180910390fd5b60008160020160006101000a81548160ff02191690831515021790555061327d82613453565b3373ffffffffffffffffffffffffffffffffffffffff16827f8b7f70ca4739ac40f2b4c9e4a4c2306eb5545f5549ae28af8eb4ddab953c443c60405160405180910390a35050565b60006007600083815260200190815260200160002090508060040160009054906101000a900460ff1661332d576040517f08c379a000000000000000000000000000000000000000000000000000000000815260040161332490613ac4565b60405180910390fd5b3373ffffffffffffffffffffffffffffffffffffffff168160010160009054906101000a900473ffffffffffffffffffffffffffffffffffffffff1673ffffffffffffffffffffffffffffffffffffffff16146133bf576040517f08c379a00000000000000000000000000000000000000000000000000000000081526004016133b690613b30565b60405180910390fd5b60008160040160006101000a81548160ff021916908315150217905550817fbe310597c321fad847d33580c9b46dadb7757190ca5ca2103f82dfe63c4d75c960405160405180910390a25050565b600260005403613449576040517f3ee5aeb500000000000000000000000000000000000000000000000000000000815260040160405180910390fd5b6002600081905550565b6000600360008381526020019081526020016000205490506000600160028054905061347f919061481b565b90508082146134e85760006002828154811061349e5761349d613b50565b5b9060005260206000200154905080600284815481106134c0576134bf613b50565b5b9060005260206000200181905550826003600083815260200190815260200160002081905550505b60028054806134fa576134f9614993565b5b600190038181906000526020600020016000905590556003600084815260200190815260200160002060009055505050565b6001600081905550565b828054828255906000526020600020908101928215613572579160200282015b82811115613571578251825591602001919060010190613556565b5b50905061357f9190613583565b5090565b5b8082111561359c576000816000905550600101613584565b5090565b600081519050919050565b600082825260208201905092915050565b6000819050602082019050919050565b6000819050919050565b6135df816135cc565b82525050565b60006135f183836135d6565b60208301905092915050565b6000602082019050919050565b6000613615826135a0565b61361f81856135ab565b935061362a836135bc565b8060005b8381101561365b57815161364288826135e5565b975061364d836135fd565b92505060018101905061362e565b5085935050505092915050565b60006020820190508181036000830152613682818461360a565b905092915050565b613693816135cc565b82525050565b60006020820190506136ae600083018461368a565b92915050565b600080fd5b600080fd5b6136c7816135cc565b81146136d257600080fd5b50565b6000813590506136e4816136be565b92915050565b600060208284031215613700576136ff6136b4565b5b600061370e848285016136d5565b91505092915050565b600073ffffffffffffffffffffffffffffffffffffffff82169050919050565b600061374282613717565b9050919050565b61375281613737565b82525050565b60008115159050919050565b61376d81613758565b82525050565b60006060820190506137886000830186613749565b6137956020830185613749565b6137a26040830184613764565b949350505050565b6000819050919050565b60006137cf6137ca6137c584613717565b6137aa565b613717565b9050919050565b60006137e1826137b4565b9050919050565b60006137f3826137d6565b9050919050565b613803816137e8565b82525050565b600060208201905061381e60008301846137fa565b92915050565b60006060820190506138396000830186613749565b613846602083018561368a565b6138536040830184613764565b949350505050565b60006080820190506138706000830187613749565b61387d602083018661368a565b61388a604083018561368a565b6138976060830184613764565b95945050505050565b600080fd5b600080fd5b600080fd5b60008083601f8401126138c5576138c46138a0565b5b8235905067ffffffffffffffff8111156138e2576138e16138a5565b5b6020830191508360208202830111156138fe576138fd6138aa565b5b9250929050565b61390e81613737565b811461391957600080fd5b50565b60008135905061392b81613905565b92915050565b60008060008060006060868803121561394d5761394c6136b4565b5b600086013567ffffffffffffffff81111561396b5761396a6136b9565b5b613977888289016138af565b9550955050602086013567ffffffffffffffff81111561399a576139996136b9565b5b6139a6888289016138af565b935093505060406139b98882890161391c565b9150509295509295909350565b600080604083850312156139dd576139dc6136b4565b5b60006139eb858286016136d5565b92505060206139fc858286016136d5565b9150509250929050565b600060a082019050613a1b6000830188613749565b613a286020830187613749565b8181036040830152613a3a818661360a565b90508181036060830152613a4e818561360a565b9050613a5d6080830184613764565b9695505050505050565b600082825260208201905092915050565b7f4f6665727461206e6f2061637469766100000000000000000000000000000000600082015250565b6000613aae601083613a67565b9150613ab982613a78565b602082019050919050565b60006020820190508181036000830152613add81613aa1565b9050919050565b7f4e6f206572657320656c2064657374696e61746172696f000000000000000000600082015250565b6000613b1a601783613a67565b9150613b2582613ae4565b602082019050919050565b60006020820190508181036000830152613b4981613b0d565b9050919050565b7f4e487b7100000000000000000000000000000000000000000000000000000000600052603260045260246000fd5b600081519050613b8e81613905565b92915050565b600060208284031215613baa57613ba96136b4565b5b6000613bb884828501613b7f565b91505092915050565b7f456c206f666572656e7465207961206e6f20706f736565206c61206361727461600082015250565b6000613bf7602083613a67565b9150613c0282613bc1565b602082019050919050565b60006020820190508181036000830152613c2681613bea565b9050919050565b6000604082019050613c426000830185613749565b613c4f6020830184613749565b9392505050565b613c5f81613758565b8114613c6a57600080fd5b50565b600081519050613c7c81613c56565b92915050565b600060208284031215613c9857613c976136b4565b5b6000613ca684828501613c6d565b91505092915050565b7f456c206f666572656e7465206e6f206861206170726f6261646f206c6120636160008201527f7274610000000000000000000000000000000000000000000000000000000000602082015250565b6000613d0b602383613a67565b9150613d1682613caf565b604082019050919050565b60006020820190508181036000830152613d3a81613cfe565b9050919050565b7f4e487b7100000000000000000000000000000000000000000000000000000000600052601160045260246000fd5b6000613d7b826135cc565b91507fffffffffffffffffffffffffffffffffffffffffffffffffffffffffffffffff8203613dad57613dac613d41565b5b600182019050919050565b7f5961206e6f20706f73656573206c6120636172746120736f6c69636974616461600082015250565b6000613dee602083613a67565b9150613df982613db8565b602082019050919050565b60006020820190508181036000830152613e1d81613de1565b9050919050565b7f4e6f20686173206170726f6261646f206c6120636172746120736f6c6963697460008201527f6164610000000000000000000000000000000000000000000000000000000000602082015250565b6000613e80602383613a67565b9150613e8b82613e24565b604082019050919050565b60006020820190508181036000830152613eaf81613e73565b9050919050565b6000606082019050613ecb6000830186613749565b613ed86020830185613749565b613ee5604083018461368a565b949350505050565b7f4e6f206572657320656c2070726f706965746172696f2064656c204e46540000600082015250565b6000613f23601e83613a67565b9150613f2e82613eed565b602082019050919050565b60006020820190508181036000830152613f5281613f16565b9050919050565b600081905092915050565b50565b6000613f74600083613f59565b9150613f7f82613f64565b600082019050919050565b6000613f9582613f67565b9150819050919050565b7f46616c6c6f20616c206465766f6c766572204554480000000000000000000000600082015250565b6000613fd5601583613a67565b9150613fe082613f9f565b602082019050919050565b6000602082019050818103600083015261400481613fc8565b9050919050565b7f446562657320656e766961722045544800000000000000000000000000000000600082015250565b6000614041601083613a67565b915061404c8261400b565b602082019050919050565b6000602082019050818103600083015261407081614034565b9050919050565b7f4e6f20707565646573206f66657274617220706f722074752070726f70696f2060008201527f4e46540000000000000000000000000000000000000000000000000000000000602082015250565b60006140d3602383613a67565b91506140de82614077565b604082019050919050565b60006020820190508181036000830152614102816140c6565b9050919050565b7f4e6f206572657320656c206f666572656e746500000000000000000000000000600082015250565b600061413f601383613a67565b915061414a82614109565b602082019050919050565b6000602082019050818103600083015261416e81614132565b9050919050565b7f4465626573206f66726563657220616c206d656e6f7320756e61206361727461600082015250565b60006141ab602083613a67565b91506141b682614175565b602082019050919050565b600060208201905081810360008301526141da8161419e565b9050919050565b7f446562657320736f6c69636974617220616c206d656e6f7320756e612063617260008201527f7461000000000000000000000000000000000000000000000000000000000000602082015250565b600061423d602283613a67565b9150614248826141e1565b604082019050919050565b6000602082019050818103600083015261426c81614230565b9050919050565b7f4e6f2070756564657320696e74657263616d6269617220636f6e7469676f206d60008201527f69736d6f00000000000000000000000000000000000000000000000000000000602082015250565b60006142cf602483613a67565b91506142da82614273565b604082019050919050565b600060208201905081810360008301526142fe816142c2565b9050919050565b7f44657374696e61746172696f20696e76616c69646f0000000000000000000000600082015250565b600061433b601583613a67565b915061434682614305565b602082019050919050565b6000602082019050818103600083015261436a8161432e565b9050919050565b7f4e6f20706f7365657320746f646173206c617320636172746173206f6672656360008201527f6964617300000000000000000000000000000000000000000000000000000000602082015250565b60006143cd602483613a67565b91506143d882614371565b604082019050919050565b600060208201905081810360008301526143fc816143c0565b9050919050565b7f456c2064657374696e61746172696f206e6f20706f73656520746f646173206c60008201527f61732063617274617320736f6c69636974616461730000000000000000000000602082015250565b600061445f603583613a67565b915061446a82614403565b604082019050919050565b6000602082019050818103600083015261448e81614452565b9050919050565b7f456c2070726563696f206465626520736572206d61796f722061203000000000600082015250565b60006144cb601c83613a67565b91506144d682614495565b602082019050919050565b600060208201905081810360008301526144fa816144be565b9050919050565b7f4e6f206572657320656c2070726f706965746172696f00000000000000000000600082015250565b6000614537601683613a67565b915061454282614501565b602082019050919050565b600060208201905081810360008301526145668161452a565b9050919050565b7f456c206d61726b6574706c616365206e6f207469656e65206170726f6261636960008201527f6f6e000000000000000000000000000000000000000000000000000000000000602082015250565b60006145c9602283613a67565b91506145d48261456d565b604082019050919050565b600060208201905081810360008301526145f8816145bc565b9050919050565b7f59612065737461206c69737461646f0000000000000000000000000000000000600082015250565b6000614635600f83613a67565b9150614640826145ff565b602082019050919050565b6000602082019050818103600083015261466481614628565b9050919050565b7f4e6f2065737461206c69737461646f0000000000000000000000000000000000600082015250565b60006146a1600f83613a67565b91506146ac8261466b565b602082019050919050565b600060208201905081810360008301526146d081614694565b9050919050565b7f45544820696e737566696369656e746500000000000000000000000000000000600082015250565b600061470d601083613a67565b9150614718826146d7565b602082019050919050565b6000602082019050818103600083015261473c81614700565b9050919050565b7f4e6f2070756564657320636f6d707261722074752070726f70696f204e465400600082015250565b6000614779601f83613a67565b915061478482614743565b602082019050919050565b600060208201905081810360008301526147a88161476c565b9050919050565b7f46616c6c6f20616c20656e766961722045544820616c2076656e6465646f7200600082015250565b60006147e5601f83613a67565b91506147f0826147af565b602082019050919050565b60006020820190508181036000830152614814816147d8565b9050919050565b6000614826826135cc565b9150614831836135cc565b925082820390508181111561484957614848613d41565b5b92915050565b7f46616c6c6f20616c206465766f6c7665722065786365736f0000000000000000600082015250565b6000614885601883613a67565b91506148908261484f565b602082019050919050565b600060208201905081810360008301526148b481614878565b9050919050565b7f46616c6c6f20616c20656e766961722045544800000000000000000000000000600082015250565b60006148f1601383613a67565b91506148fc826148bb565b602082019050919050565b60006020820190508181036000830152614920816148e4565b9050919050565b7f4e6f206572657320656c2076656e6465646f7200000000000000000000000000600082015250565b600061495d601383613a67565b915061496882614927565b602082019050919050565b6000602082019050818103600083015261498c81614950565b9050919050565b7f4e487b7100000000000000000000000000000000000000000000000000000000600052603160045260246000fdfea2646970667358221220a5035ce9f8da4ab300c5496ce6d448d8f1d8c5c9924765188be627a5b0ec486264736f6c63430008140033",
  "linkReferences": {},
  "deployedLinkReferences": {}
}