{
  "_format": "hh-sol-artifact-1",
  "contractName": "Marketplace",
  "sourceName": "contracts/Marketplace.sol",
  "abi": [
    {
      "inputs": [
        {
          "internalType": "address",
          "name": "_nftContrato",
          "type": "address"
        }
      ],
      "stateMutability": "nonpayable",
      "type": "constructor"
    },
    {
      "inputs": [],
      "name": "ReentrancyGuardReentrantCall",
      "type": "error"
    },
    {
      "anonymous": false,
      "inputs": [
        {
          "indexed": true,
          "internalType": "uint256",
          "name": "tokenId",
          "type": "uint256"
        },
        {
          "indexed": true,
          "internalType": "address",
          "name": "vendedor",
          "type": "address"
        }
      ],
      "name": "ListadoCancelado",
      "type": "event"
    },
    {
      "anonymous": false,
      "inputs": [
        {
          "indexed": true,
          "internalType": "uint256",
          "name": "tokenId",
          "type": "uint256"
        },
        {
          "indexed": true,
          "internalType": "address",
          "name": "vendedor",
          "type": "address"
        },
        {
          "indexed": false,
          "internalType": "uint256",
          "name": "precio",
          "type": "uint256"
        }
      ],
      "name": "NFTListado",
      "type": "event"
    },
    {
      "anonymous": false,
      "inputs": [
        {
          "indexed": true,
          "internalType": "uint256",
          "name": "tokenId",
          "type": "uint256"
        },
        {
          "indexed": true,
          "internalType": "address",
          "name": "vendedor",
          "type": "address"
        },
        {
          "indexed": true,
          "internalType": "address",
          "name": "comprador",
          "type": "address"
        },
        {
          "indexed": false,
          "internalType": "uint256",
          "name": "precio",
          "type": "uint256"
        }
      ],
      "name": "NFTVendido",
      "type": "event"
    },
    {
      "anonymous": false,
      "inputs": [
        {
          "indexed": true,
          "internalType": "uint256",
          "name": "ofertaId",
          "type": "uint256"
        },
        {
          "indexed": true,
          "internalType": "address",
          "name": "propietario",
          "type": "address"
        },
        {
          "indexed": true,
          "internalType": "address",
          "name": "oferente",
          "type": "address"
        }
      ],
      "name": "OfertaETHAceptada",
      "type": "event"
    },
    {
      "anonymous": false,
      "inputs": [
        {
          "indexed": true,
          "internalType": "uint256",
          "name": "ofertaId",
          "type": "uint256"
        }
      ],
      "name": "OfertaETHCancelada",
      "type": "event"
    },
    {
      "anonymous": false,
      "inputs": [
        {
          "indexed": true,
          "internalType": "uint256",
          "name": "ofertaId",
          "type": "uint256"
        },
        {
          "indexed": true,
          "internalType": "address",
          "name": "oferente",
          "type": "address"
        },
        {
          "indexed": true,
          "internalType": "uint256",
          "name": "tokenId",
          "type": "uint256"
        },
        {
          "indexed": false,
          "internalType": "uint256",
          "name": "monto",
          "type": "uint256"
        }
      ],
      "name": "OfertaETHCreada",
      "type": "event"
    },
    {
      "anonymous": false,
      "inputs": [
        {
          "indexed": true,
          "internalType": "uint256",
          "name": "ofertaId",
          "type": "uint256"
        }
      ],
      "name": "OfertaETHRechazada",
      "type": "event"
    },
    {
      "anonymous": false,
      "inputs": [
        {
          "indexed": true,
          "internalType": "uint256",
          "name": "ofertaId",
          "type": "uint256"
        }
      ],
      "name": "OfertaIntercambioAceptada",
      "type": "event"
    },
    {
      "anonymous": false,
      "inputs": [
        {
          "indexed": true,
          "internalType": "uint256",
          "name": "ofertaId",
          "type": "uint256"
        }
      ],
      "name": "OfertaIntercambioCancelada",
      "type": "event"
    },
    {
      "anonymous": false,
      "inputs": [
        {
          "indexed": true,
          "internalType": "uint256",
          "name": "ofertaId",
          "type": "uint256"
        },
        {
          "indexed": true,
          "internalType": "address",
          "name": "oferente",
          "type": "address"
        },
        {
          "indexed": true,
          "internalType": "address",
          "name": "destinatario",
          "type": "address"
        }
      ],
      "name": "OfertaIntercambioCreada",
      "type": "event"
    },
    {
      "anonymous": false,
      "inputs": [
        {
          "indexed": true,
          "internalType": "uint256",
          "name": "ofertaId",
          "type": "uint256"
        }
      ],
      "name": "OfertaIntercambioRechazada",
      "type": "event"
    },
    {
      "inputs": [
        {
          "internalType": "uint256",
          "name": "ofertaId",
          "type": "uint256"
        }
      ],
      "name": "aceptarOfertaETH",
      "outputs": [],
      "stateMutability": "nonpayable",
      "type": "function"
    },
    {
      "inputs": [
        {
          "internalType": "uint256",
          "name": "ofertaId",
          "type": "uint256"
        }
      ],
      "name": "aceptarOfertaIntercambio",
      "outputs": [],
      "stateMutability": "nonpayable",
      "type": "function"
    },
    {
      "inputs": [
        {
          "internalType": "uint256",
          "name": "tokenId",
          "type": "uint256"
        }
      ],
      "name": "cancelarListado",
      "outputs": [],
      "stateMutability": "nonpayable",
      "type": "function"
    },
    {
      "inputs": [
        {
          "internalType": "uint256",
          "name": "ofertaId",
          "type": "uint256"
        }
      ],
      "name": "cancelarOfertaETH",
      "outputs": [],
      "stateMutability": "nonpayable",
      "type": "function"
    },
    {
      "inputs": [
        {
          "internalType": "uint256",
          "name": "ofertaId",
          "type": "uint256"
        }
      ],
      "name": "cancelarOfertaIntercambio",
      "outputs": [],
      "stateMutability": "nonpayable",
      "type": "function"
    },
    {
      "inputs": [
        {
          "internalType": "uint256",
          "name": "tokenId",
          "type": "uint256"
        }
      ],
      "name": "comprarNFT",
      "outputs": [],
      "stateMutability": "payable",
      "type": "function"
    },
    {
      "inputs": [
        {
          "internalType": "uint256",
          "name": "tokenId",
          "type": "uint256"
        }
      ],
      "name": "crearOfertaETH",
      "outputs": [],
      "stateMutability": "payable",
      "type": "function"
    },
    {
      "inputs": [
        {
          "internalType": "uint256[]",
          "name": "tokensOfrecidos",
          "type": "uint256[]"
        },
        {
          "internalType": "uint256[]",
          "name": "tokensSolicitados",
          "type": "uint256[]"
        },
        {
          "internalType": "address",
          "name": "destinatario",
          "type": "address"
        }
      ],
      "name": "crearOfertaIntercambio",
      "outputs": [],
      "stateMutability": "nonpayable",
      "type": "function"
    },
    {
      "inputs": [
        {
          "internalType": "uint256",
          "name": "",
          "type": "uint256"
        }
      ],
      "name": "listados",
      "outputs": [
        {
          "internalType": "address",
          "name": "vendedor",
          "type": "address"
        },
        {
          "internalType": "uint256",
          "name": "precio",
          "type": "uint256"
        },
        {
          "internalType": "bool",
          "name": "activo",
          "type": "bool"
        }
      ],
      "stateMutability": "view",
      "type": "function"
    },
    {
      "inputs": [
        {
          "internalType": "uint256",
          "name": "tokenId",
          "type": "uint256"
        },
        {
          "internalType": "uint256",
          "name": "precio",
          "type": "uint256"
        }
      ],
      "name": "listarNFT",
      "outputs": [],
      "stateMutability": "nonpayable",
      "type": "function"
    },
    {
      "inputs": [],
      "name": "nextOfertaETHId",
      "outputs": [
        {
          "internalType": "uint256",
          "name": "",
          "type": "uint256"
        }
      ],
      "stateMutability": "view",
      "type": "function"
    },
    {
      "inputs": [],
      "name": "nextOfertaIntercambioId",
      "outputs": [
        {
          "internalType": "uint256",
          "name": "",
          "type": "uint256"
        }
      ],
      "stateMutability": "view",
      "type": "function"
    },
    {
      "inputs": [],
      "name": "nftContrato",
      "outputs": [
        {
          "internalType": "contract IERC721",
          "name": "",
          "type": "address"
        }
      ],
      "stateMutability": "view",
      "type": "function"
    },
    {
      "inputs": [
        {
          "internalType": "uint256",
          "name": "tokenId",
          "type": "uint256"
        }
      ],
      "name": "obtenerListado",
      "outputs": [
        {
          "internalType": "address",
          "name": "vendedor",
          "type": "address"
        },
        {
          "internalType": "uint256",
          "name": "precio",
          "type": "uint256"
        },
        {
          "internalType": "bool",
          "name": "activo",
          "type": "bool"
        }
      ],
      "stateMutability": "view",
      "type": "function"
    },
    {
      "inputs": [
        {
          "internalType": "uint256",
          "name": "ofertaId",
          "type": "uint256"
        }
      ],
      "name": "obtenerOfertaETH",
      "outputs": [
        {
          "internalType": "address",
          "name": "oferente",
          "type": "address"
        },
        {
          "internalType": "uint256",
          "name": "tokenIdObjetivo",
          "type": "uint256"
        },
        {
          "internalType": "uint256",
          "name": "montoETH",
          "type": "uint256"
        },
        {
          "internalType": "bool",
          "name": "activa",
          "type": "bool"
        }
      ],
      "stateMutability": "view",
      "type": "function"
    },
    {
      "inputs": [
        {
          "internalType": "uint256",
          "name": "ofertaId",
          "type": "uint256"
        }
      ],
      "name": "obtenerOfertaIntercambio",
      "outputs": [
        {
          "internalType": "address",
          "name": "oferente",
          "type": "address"
        },
        {
          "internalType": "address",
          "name": "destinatario",
          "type": "address"
        },
        {
          "internalType": "uint256[]",
          "name": "tokensOfrecidos",
          "type": "uint256[]"
        },
        {
          "internalType": "uint256[]",
          "name": "tokensSolicitados",
          "type": "uint256[]"
        },
        {
          "internalType": "bool",
          "name": "activa",
          "type": "bool"
        }
      ],
      "stateMutability": "view",
      "type": "function"
    },
    {
      "inputs": [],
      "name": "obtenerTodosListados",
      "outputs": [
        {
          "internalType": "uint256[]",
          "name": "",
          "type": "uint256[]"
        }
      ],
      "stateMutability": "view",
      "type": "function"
    },
    {
      "inputs": [
        {
          "internalType": "uint256",
          "name": "",
          "type": "uint256"
        }
      ],
      "name": "ofertasETH",
      "outputs": [
        {
          "internalType": "address",
          "name": "oferente",
          "type": "address"
        },
        {
          "internalType": "uint256",
          "name": "tokenIdObjetivo",
          "type": "uint256"
        },
        {
          "internalType": "uint256",
          "name": "montoETH",
          "type": "uint256"
        },
        {
          "internalType": "bool",
          "name": "activa",
          "type": "bool"
        }
      ],
      "stateMutability": "view",
      "type": "function"
    },
    {
      "inputs": [
        {
          "internalType": "uint256",
          "name": "",
          "type": "uint256"
        }
      ],
      "name": "ofertasIntercambio",
      "outputs": [
        {
          "internalType": "address",
          "name": "oferente",
          "type": "address"
        },
        {
          "internalType": "address",
          "name": "destinatario",
          "type": "address"
        },
        {
          "internalType": "bool",
          "name": "activa",
          "type": "bool"
        }
      ],
      "stateMutability": "view",
      "type": "function"
    },
    {
      "inputs": [
        {
          "internalType": "uint256",
          "name": "ofertaId",
          "type": "uint256"
        }
      ],
      "name": "rechazarOfertaETH",
      "outputs": [],
      "stateMutability": "nonpayable",
      "type": "function"
    },
    {
      "inputs": [
        {
          "internalType": "uint256",
          "name": "ofertaId",
          "type": "uint256"
        }
      ],
      "name": "rechazarOfertaIntercambio",
      "outputs": [],
      "stateMutability": "nonpayable",
      "type": "function"
    },
    {
      "inputs": [],
      "name": "totalListados",
      "outputs": [
        {
          "internalType": "uint256",
          "name": "",
          "type": "uint256"
        }
      ],
      "stateMutability": "view",
      "type": "function"
    }
  ],
  "bytecode": "0x60a06040523480156200001157600080fd5b5060405162004ef838038062004ef8833981810160405281019062000037919062000156565b6001600081905550600073ffffffffffffffffffffffffffffffffffffffff168173ffffffffffffffffffffffffffffffffffffffff1603620000b1576040517f08c379a0000000000000000000000000000000000000000000000000000000008152600401620000a890620001e9565b60405180910390fd5b8073ffffffffffffffffffffffffffffffffffffffff1660808173ffffffffffffffffffffffffffffffffffffffff1681525050506200020b565b600080fd5b600073ffffffffffffffffffffffffffffffffffffffff82169050919050565b60006200011e82620000f1565b9050919050565b620001308162000111565b81146200013c57600080fd5b50565b600081519050620001508162000125565b92915050565b6000602082840312156200016f576200016e620000ec565b5b60006200017f848285016200013f565b91505092915050565b600082825260208201905092915050565b7f446972656363696f6e20696e76616c6964610000000000000000000000000000600082015250565b6000620001d160128362000188565b9150620001de8262000199565b602082019050919050565b600060208201905081810360008301526200020481620001c2565b9050919050565b608051614c45620002b3600039600081816107880152818161088f0152818161094601528181610a8501528181610b8c01528181610c4301528181610e1401528181610f7b015281816110590152818161110d0152818161145a01528181611b3201528181611c740152818161209c015281816121a30152818161225a0152818161271001528181612b5901528181612c6001528181612d170152612eae0152614c456000f3fe6080604052600436106101355760003560e01c806398a6f320116100ab578063bda84a271161006f578063bda84a2714610437578063d1c0664714610453578063d56657e11461047c578063dbf7f79a146104a5578063ee7b23e9146104e6578063f144e23a1461050f57610135565b806398a6f3201461033d57806398e034b6146103665780639f4c17231461038f578063a26a2998146103cf578063bcbbe753146103f857610135565b80634172f6e8116100fd5780634172f6e814610223578063507a74301461024c57806358d084f41461028b57806362cc8c7c146102b6578063938f4dbf146102d25780639401a52c146102fd57610135565b80630f4f356a1461013a57806320f7f28f146101655780632e84cb20146101905780632fa3573d146101cf57806330ea3f8f146101f8575b600080fd5b34801561014657600080fd5b5061014f610538565b60405161015c91906138b5565b60405180910390f35b34801561017157600080fd5b5061017a610590565b60405161018791906138e6565b60405180910390f35b34801561019c57600080fd5b506101b760048036038101906101b29190613937565b610596565b6040516101c6939291906139c0565b60405180910390f35b3480156101db57600080fd5b506101f660048036038101906101f19190613937565b61060d565b005b34801561020457600080fd5b5061020d611057565b60405161021a9190613a56565b60405180910390f35b34801561022f57600080fd5b5061024a60048036038101906102459190613937565b61107b565b005b34801561025857600080fd5b50610273600480360381019061026e9190613937565b611333565b60405161028293929190613a71565b60405180910390f35b34801561029757600080fd5b506102a06113f1565b6040516102ad91906138e6565b60405180910390f35b6102d060048036038101906102cb9190613937565b6113fe565b005b3480156102de57600080fd5b506102e76116bc565b6040516102f491906138e6565b60405180910390f35b34801561030957600080fd5b50610324600480360381019061031f9190613937565b6116c2565b6040516103349493929190613aa8565b60405180910390f35b34801561034957600080fd5b50610364600480360381019061035f9190613937565b611793565b005b34801561037257600080fd5b5061038d60048036038101906103889190613b7e565b6119a2565b005b34801561039b57600080fd5b506103b660048036038101906103b19190613937565b611fe3565b6040516103c69493929190613aa8565b60405180910390f35b3480156103db57600080fd5b506103f660048036038101906103f19190613c13565b612040565b005b34801561040457600080fd5b5061041f600480360381019061041a9190613937565b6124ec565b60405161042e93929190613a71565b60405180910390f35b610451600480360381019061044c9190613937565b612543565b005b34801561045f57600080fd5b5061047a60048036038101906104759190613937565b61297f565b005b34801561048857600080fd5b506104a3600480360381019061049e9190613937565b612ac7565b005b3480156104b157600080fd5b506104cc60048036038101906104c79190613937565b613052565b6040516104dd959493929190613c53565b60405180910390f35b3480156104f257600080fd5b5061050d60048036038101906105089190613937565b61321f565b005b34801561051b57600080fd5b5061053660048036038101906105319190613937565b613387565b005b6060600280548060200260200160405190810160405280929190818152602001828054801561058657602002820191906000526020600020905b815481526020019060010190808311610572575b5050505050905090565b60045481565b60086020528060005260406000206000915090508060000160009054906101000a900473ffffffffffffffffffffffffffffffffffffffff16908060010160009054906101000a900473ffffffffffffffffffffffffffffffffffffffff16908060040160009054906101000a900460ff16905083565b6106156134cf565b60006008600083815260200190815260200160002090508060040160009054906101000a900460ff1661067d576040517f08c379a000000000000000000000000000000000000000000000000000000000815260040161067490613d11565b60405180910390fd5b3373ffffffffffffffffffffffffffffffffffffffff168160010160009054906101000a900473ffffffffffffffffffffffffffffffffffffffff1673ffffffffffffffffffffffffffffffffffffffff161461070f576040517f08c379a000000000000000000000000000000000000000000000000000000000815260040161070690613d7d565b60405180910390fd5b60008160000160009054906101000a900473ffffffffffffffffffffffffffffffffffffffff16905060005b8260020180549050811015610a3457600083600201828154811061076257610761613d9d565b5b906000526020600020015490508273ffffffffffffffffffffffffffffffffffffffff167f000000000000000000000000000000000000000000000000000000000000000073ffffffffffffffffffffffffffffffffffffffff16636352211e836040518263ffffffff1660e01b81526004016107df91906138e6565b602060405180830381865afa1580156107fc573d6000803e3d6000fd5b505050506040513d601f19601f820116820180604052508101906108209190613de1565b73ffffffffffffffffffffffffffffffffffffffff1614610876576040517f08c379a000000000000000000000000000000000000000000000000000000000815260040161086d90613e5a565b60405180910390fd5b3073ffffffffffffffffffffffffffffffffffffffff167f000000000000000000000000000000000000000000000000000000000000000073ffffffffffffffffffffffffffffffffffffffff1663081812fc836040518263ffffffff1660e01b81526004016108e691906138e6565b602060405180830381865afa158015610903573d6000803e3d6000fd5b505050506040513d601f19601f820116820180604052508101906109279190613de1565b73ffffffffffffffffffffffffffffffffffffffff1614806109e157507f000000000000000000000000000000000000000000000000000000000000000073ffffffffffffffffffffffffffffffffffffffff1663e985e9c584306040518363ffffffff1660e01b815260040161099f929190613e7a565b602060405180830381865afa1580156109bc573d6000803e3d6000fd5b505050506040513d601f19601f820116820180604052508101906109e09190613ecf565b5b610a20576040517f08c379a0000000000000000000000000000000000000000000000000000000008152600401610a1790613f6e565b60405180910390fd5b508080610a2c90613fbd565b91505061073b565b5060005b8260030180549050811015610d31576000836003018281548110610a5f57610a5e613d9d565b5b906000526020600020015490503373ffffffffffffffffffffffffffffffffffffffff167f000000000000000000000000000000000000000000000000000000000000000073ffffffffffffffffffffffffffffffffffffffff16636352211e836040518263ffffffff1660e01b8152600401610adc91906138e6565b602060405180830381865afa158015610af9573d6000803e3d6000fd5b505050506040513d601f19601f82011682018060405250810190610b1d9190613de1565b73ffffffffffffffffffffffffffffffffffffffff1614610b73576040517f08c379a0000000000000000000000000000000000000000000000000000000008152600401610b6a90614051565b60405180910390fd5b3073ffffffffffffffffffffffffffffffffffffffff167f000000000000000000000000000000000000000000000000000000000000000073ffffffffffffffffffffffffffffffffffffffff1663081812fc836040518263ffffffff1660e01b8152600401610be391906138e6565b602060405180830381865afa158015610c00573d6000803e3d6000fd5b505050506040513d601f19601f82011682018060405250810190610c249190613de1565b73ffffffffffffffffffffffffffffffffffffffff161480610cde57507f000000000000000000000000000000000000000000000000000000000000000073ffffffffffffffffffffffffffffffffffffffff1663e985e9c533306040518363ffffffff1660e01b8152600401610c9c929190613e7a565b602060405180830381865afa158015610cb9573d6000803e3d6000fd5b505050506040513d601f19601f82011682018060405250810190610cdd9190613ecf565b5b610d1d576040517f08c379a0000000000000000000000000000000000000000000000000000000008152600401610d14906140e3565b60405180910390fd5b508080610d2990613fbd565b915050610a38565b5060008260040160006101000a81548160ff02191690831515021790555060005b8260020180549050811015610eb5576000836002018281548110610d7957610d78613d9d565b5b906000526020600020015490506001600082815260200190815260200160002060020160009054906101000a900460ff1615610de85760006001600083815260200190815260200160002060020160006101000a81548160ff021916908315150217905550610de781613515565b5b610e12817fffffffffffffffffffffffffffffffffffffffffffffffffffffffffffffffff6135ee565b7f000000000000000000000000000000000000000000000000000000000000000073ffffffffffffffffffffffffffffffffffffffff166323b872dd8433846040518463ffffffff1660e01b8152600401610e6f93929190614103565b600060405180830381600087803b158015610e8957600080fd5b505af1158015610e9d573d6000803e3d6000fd5b50505050508080610ead90613fbd565b915050610d52565b5060005b826003018054905081101561101c576000836003018281548110610ee057610edf613d9d565b5b906000526020600020015490506001600082815260200190815260200160002060020160009054906101000a900460ff1615610f4f5760006001600083815260200190815260200160002060020160006101000a81548160ff021916908315150217905550610f4e81613515565b5b610f79817fffffffffffffffffffffffffffffffffffffffffffffffffffffffffffffffff6135ee565b7f000000000000000000000000000000000000000000000000000000000000000073ffffffffffffffffffffffffffffffffffffffff166323b872dd3385846040518463ffffffff1660e01b8152600401610fd693929190614103565b600060405180830381600087803b158015610ff057600080fd5b505af1158015611004573d6000803e3d6000fd5b5050505050808061101490613fbd565b915050610eb9565b50827fc3f17759ec2f1822217427833abf78b5855b28aa14a9f849795a06c1cbd431f160405160405180910390a25050611054613779565b50565b7f000000000000000000000000000000000000000000000000000000000000000081565b6110836134cf565b60006005600083815260200190815260200160002090508060030160009054906101000a900460ff166110eb576040517f08c379a00000000000000000000000000000000000000000000000000000000081526004016110e290613d11565b60405180910390fd5b6000816001015490503373ffffffffffffffffffffffffffffffffffffffff167f000000000000000000000000000000000000000000000000000000000000000073ffffffffffffffffffffffffffffffffffffffff16636352211e836040518263ffffffff1660e01b815260040161116491906138e6565b602060405180830381865afa158015611181573d6000803e3d6000fd5b505050506040513d601f19601f820116820180604052508101906111a59190613de1565b73ffffffffffffffffffffffffffffffffffffffff16146111fb576040517f08c379a00000000000000000000000000000000000000000000000000000000081526004016111f290614186565b60405180910390fd5b60008260000160009054906101000a900473ffffffffffffffffffffffffffffffffffffffff16905060008360020154905060008460030160006101000a81548160ff02191690831515021790555060008273ffffffffffffffffffffffffffffffffffffffff1682604051611270906141d7565b60006040518083038185875af1925050503d80600081146112ad576040519150601f19603f3d011682016040523d82523d6000602084013e6112b2565b606091505b50509050806112f6576040517f08c379a00000000000000000000000000000000000000000000000000000000081526004016112ed90614238565b60405180910390fd5b857f86e00a822031edb41323ff7c955500ecbc6fb5314a4ac7232c9c73f2ba46d27d60405160405180910390a25050505050611330613779565b50565b600080600080600160008681526020019081526020016000206040518060600160405290816000820160009054906101000a900473ffffffffffffffffffffffffffffffffffffffff1673ffffffffffffffffffffffffffffffffffffffff1673ffffffffffffffffffffffffffffffffffffffff168152602001600182015481526020016002820160009054906101000a900460ff1615151515815250509050806000015181602001518260400151935093509350509193909250565b6000600280549050905090565b60003411611441576040517f08c379a0000000000000000000000000000000000000000000000000000000008152600401611438906142a4565b60405180910390fd5b3373ffffffffffffffffffffffffffffffffffffffff167f000000000000000000000000000000000000000000000000000000000000000073ffffffffffffffffffffffffffffffffffffffff16636352211e836040518263ffffffff1660e01b81526004016114b191906138e6565b602060405180830381865afa1580156114ce573d6000803e3d6000fd5b505050506040513d601f19601f820116820180604052508101906114f29190613de1565b73ffffffffffffffffffffffffffffffffffffffff1603611548576040517f08c379a000000000000000000000000000000000000000000000000000000000815260040161153f90614336565b60405180910390fd5b60006004600081548092919061155d90613fbd565b91905055905060405180608001604052803373ffffffffffffffffffffffffffffffffffffffff168152602001838152602001348152602001600115158152506005600083815260200190815260200160002060008201518160000160006101000a81548173ffffffffffffffffffffffffffffffffffffffff021916908373ffffffffffffffffffffffffffffffffffffffff160217905550602082015181600101556040820151816002015560608201518160030160006101000a81548160ff02191690831515021790555090505060066000838152602001908152602001600020819080600181540180825580915050600190039060005260206000200160009091909190915055813373ffffffffffffffffffffffffffffffffffffffff16827fde71b5425a9efa2abf6337537801849866c503e3b116cbd5a02b96b83633f9ab346040516116b091906138e6565b60405180910390a45050565b60075481565b6000806000806000600560008781526020019081526020016000206040518060800160405290816000820160009054906101000a900473ffffffffffffffffffffffffffffffffffffffff1673ffffffffffffffffffffffffffffffffffffffff1673ffffffffffffffffffffffffffffffffffffffff16815260200160018201548152602001600282015481526020016003820160009054906101000a900460ff161515151581525050905080600001518160200151826040015183606001519450945094509450509193509193565b61179b6134cf565b60006005600083815260200190815260200160002090508060030160009054906101000a900460ff16611803576040517f08c379a00000000000000000000000000000000000000000000000000000000081526004016117fa90613d11565b60405180910390fd5b3373ffffffffffffffffffffffffffffffffffffffff168160000160009054906101000a900473ffffffffffffffffffffffffffffffffffffffff1673ffffffffffffffffffffffffffffffffffffffff1614611895576040517f08c379a000000000000000000000000000000000000000000000000000000000815260040161188c906143a2565b60405180910390fd5b60008160020154905060008260030160006101000a81548160ff02191690831515021790555060003373ffffffffffffffffffffffffffffffffffffffff16826040516118e1906141d7565b60006040518083038185875af1925050503d806000811461191e576040519150601f19603f3d011682016040523d82523d6000602084013e611923565b606091505b5050905080611967576040517f08c379a000000000000000000000000000000000000000000000000000000000815260040161195e90614238565b60405180910390fd5b837f85f5ca6bbfb96986bf182e497ab2349ae652fda01d3a5cbfbf25952c8ea1758360405160405180910390a250505061199f613779565b50565b600085859050116119e8576040517f08c379a00000000000000000000000000000000000000000000000000000000081526004016119df9061440e565b60405180910390fd5b60008383905011611a2e576040517f08c379a0000000000000000000000000000000000000000000000000000000008152600401611a25906144a0565b60405180910390fd5b3373ffffffffffffffffffffffffffffffffffffffff168173ffffffffffffffffffffffffffffffffffffffff1603611a9c576040517f08c379a0000000000000000000000000000000000000000000000000000000008152600401611a9390614532565b60405180910390fd5b600073ffffffffffffffffffffffffffffffffffffffff168173ffffffffffffffffffffffffffffffffffffffff1603611b0b576040517f08c379a0000000000000000000000000000000000000000000000000000000008152600401611b029061459e565b60405180910390fd5b60005b85859050811015611c4c573373ffffffffffffffffffffffffffffffffffffffff167f000000000000000000000000000000000000000000000000000000000000000073ffffffffffffffffffffffffffffffffffffffff16636352211e888885818110611b7f57611b7e613d9d565b5b905060200201356040518263ffffffff1660e01b8152600401611ba291906138e6565b602060405180830381865afa158015611bbf573d6000803e3d6000fd5b505050506040513d601f19601f82011682018060405250810190611be39190613de1565b73ffffffffffffffffffffffffffffffffffffffff1614611c39576040517f08c379a0000000000000000000000000000000000000000000000000000000008152600401611c3090614630565b60405180910390fd5b8080611c4490613fbd565b915050611b0e565b5060005b83839050811015611d8e578173ffffffffffffffffffffffffffffffffffffffff167f000000000000000000000000000000000000000000000000000000000000000073ffffffffffffffffffffffffffffffffffffffff16636352211e868685818110611cc157611cc0613d9d565b5b905060200201356040518263ffffffff1660e01b8152600401611ce491906138e6565b602060405180830381865afa158015611d01573d6000803e3d6000fd5b505050506040513d601f19601f82011682018060405250810190611d259190613de1565b73ffffffffffffffffffffffffffffffffffffffff1614611d7b576040517f08c379a0000000000000000000000000000000000000000000000000000000008152600401611d72906146c2565b60405180910390fd5b8080611d8690613fbd565b915050611c50565b50600060076000815480929190611da490613fbd565b9190505590506040518060a001604052803373ffffffffffffffffffffffffffffffffffffffff1681526020018373ffffffffffffffffffffffffffffffffffffffff168152602001878780806020026020016040519081016040528093929190818152602001838360200280828437600081840152601f19601f820116905080830192505050505050508152602001858580806020026020016040519081016040528093929190818152602001838360200280828437600081840152601f19601f820116905080830192505050505050508152602001600115158152506008600083815260200190815260200160002060008201518160000160006101000a81548173ffffffffffffffffffffffffffffffffffffffff021916908373ffffffffffffffffffffffffffffffffffffffff16021790555060208201518160010160006101000a81548173ffffffffffffffffffffffffffffffffffffffff021916908373ffffffffffffffffffffffffffffffffffffffff1602179055506040820151816002019080519060200190611f3f929190613783565b506060820151816003019080519060200190611f5c929190613783565b5060808201518160040160006101000a81548160ff0219169083151502179055509050508173ffffffffffffffffffffffffffffffffffffffff163373ffffffffffffffffffffffffffffffffffffffff16827fcd8ecd058d8d5f674e68be16a59437dc5daf7e6fc1cd1f54902359ce1ac6c54b60405160405180910390a4505050505050565b60056020528060005260406000206000915090508060000160009054906101000a900473ffffffffffffffffffffffffffffffffffffffff16908060010154908060020154908060030160009054906101000a900460ff16905084565b60008111612083576040517f08c379a000000000000000000000000000000000000000000000000000000000815260040161207a9061472e565b60405180910390fd5b3373ffffffffffffffffffffffffffffffffffffffff167f000000000000000000000000000000000000000000000000000000000000000073ffffffffffffffffffffffffffffffffffffffff16636352211e846040518263ffffffff1660e01b81526004016120f391906138e6565b602060405180830381865afa158015612110573d6000803e3d6000fd5b505050506040513d601f19601f820116820180604052508101906121349190613de1565b73ffffffffffffffffffffffffffffffffffffffff161461218a576040517f08c379a00000000000000000000000000000000000000000000000000000000081526004016121819061479a565b60405180910390fd5b3073ffffffffffffffffffffffffffffffffffffffff167f000000000000000000000000000000000000000000000000000000000000000073ffffffffffffffffffffffffffffffffffffffff1663081812fc846040518263ffffffff1660e01b81526004016121fa91906138e6565b602060405180830381865afa158015612217573d6000803e3d6000fd5b505050506040513d601f19601f8201168201806040525081019061223b9190613de1565b73ffffffffffffffffffffffffffffffffffffffff1614806122f557507f000000000000000000000000000000000000000000000000000000000000000073ffffffffffffffffffffffffffffffffffffffff1663e985e9c533306040518363ffffffff1660e01b81526004016122b3929190613e7a565b602060405180830381865afa1580156122d0573d6000803e3d6000fd5b505050506040513d601f19601f820116820180604052508101906122f49190613ecf565b5b612334576040517f08c379a000000000000000000000000000000000000000000000000000000000815260040161232b9061482c565b60405180910390fd5b6001600083815260200190815260200160002060020160009054906101000a900460ff1615612398576040517f08c379a000000000000000000000000000000000000000000000000000000000815260040161238f90614898565b60405180910390fd5b60405180606001604052803373ffffffffffffffffffffffffffffffffffffffff168152602001828152602001600115158152506001600084815260200190815260200160002060008201518160000160006101000a81548173ffffffffffffffffffffffffffffffffffffffff021916908373ffffffffffffffffffffffffffffffffffffffff1602179055506020820151816001015560408201518160020160006101000a81548160ff021916908315150217905550905050600280549050600360008481526020019081526020016000208190555060028290806001815401808255809150506001900390600052602060002001600090919091909150553373ffffffffffffffffffffffffffffffffffffffff16827f533273ad28288be95f71b85b0424ac7bdb3073a13fda6950c91278ca19e5e535836040516124e091906138e6565b60405180910390a35050565b60016020528060005260406000206000915090508060000160009054906101000a900473ffffffffffffffffffffffffffffffffffffffff16908060010154908060020160009054906101000a900460ff16905083565b61254b6134cf565b60006001600083815260200190815260200160002090508060020160009054906101000a900460ff166125b3576040517f08c379a00000000000000000000000000000000000000000000000000000000081526004016125aa90614904565b60405180910390fd5b80600101543410156125fa576040517f08c379a00000000000000000000000000000000000000000000000000000000081526004016125f190614970565b60405180910390fd5b8060000160009054906101000a900473ffffffffffffffffffffffffffffffffffffffff1673ffffffffffffffffffffffffffffffffffffffff163373ffffffffffffffffffffffffffffffffffffffff160361268c576040517f08c379a0000000000000000000000000000000000000000000000000000000008152600401612683906149dc565b60405180910390fd5b60008160000160009054906101000a900473ffffffffffffffffffffffffffffffffffffffff16905060008260010154905060008360020160006101000a81548160ff0219169083151502179055506126e484613515565b61270e847fffffffffffffffffffffffffffffffffffffffffffffffffffffffffffffffff6135ee565b7f000000000000000000000000000000000000000000000000000000000000000073ffffffffffffffffffffffffffffffffffffffff166323b872dd8333876040518463ffffffff1660e01b815260040161276b93929190614103565b600060405180830381600087803b15801561278557600080fd5b505af1158015612799573d6000803e3d6000fd5b5050505060008273ffffffffffffffffffffffffffffffffffffffff16826040516127c3906141d7565b60006040518083038185875af1925050503d8060008114612800576040519150601f19603f3d011682016040523d82523d6000602084013e612805565b606091505b5050905080612849576040517f08c379a000000000000000000000000000000000000000000000000000000000815260040161284090614a48565b60405180910390fd5b8134111561290a5760003373ffffffffffffffffffffffffffffffffffffffff1683346128769190614a68565b604051612882906141d7565b60006040518083038185875af1925050503d80600081146128bf576040519150601f19603f3d011682016040523d82523d6000602084013e6128c4565b606091505b5050905080612908576040517f08c379a00000000000000000000000000000000000000000000000000000000081526004016128ff90614ae8565b60405180910390fd5b505b3373ffffffffffffffffffffffffffffffffffffffff168373ffffffffffffffffffffffffffffffffffffffff16867f54d56cd39f0c030ca2b0306eb7381ed8b172c3aefdc39e48179f65aa441c74108560405161296891906138e6565b60405180910390a45050505061297c613779565b50565b60006008600083815260200190815260200160002090508060040160009054906101000a900460ff166129e7576040517f08c379a00000000000000000000000000000000000000000000000000000000081526004016129de90613d11565b60405180910390fd5b3373ffffffffffffffffffffffffffffffffffffffff168160000160009054906101000a900473ffffffffffffffffffffffffffffffffffffffff1673ffffffffffffffffffffffffffffffffffffffff1614612a79576040517f08c379a0000000000000000000000000000000000000000000000000000000008152600401612a70906143a2565b60405180910390fd5b60008160040160006101000a81548160ff021916908315150217905550817f3109aab59c040405a0b3f8accaba010accd4646dcb42d12491713fe44c3b678e60405160405180910390a25050565b612acf6134cf565b60006005600083815260200190815260200160002090508060030160009054906101000a900460ff16612b37576040517f08c379a0000000000000000000000000000000000000000000000000000000008152600401612b2e90613d11565b60405180910390fd5b6000816001015490503373ffffffffffffffffffffffffffffffffffffffff167f000000000000000000000000000000000000000000000000000000000000000073ffffffffffffffffffffffffffffffffffffffff16636352211e836040518263ffffffff1660e01b8152600401612bb091906138e6565b602060405180830381865afa158015612bcd573d6000803e3d6000fd5b505050506040513d601f19601f82011682018060405250810190612bf19190613de1565b73ffffffffffffffffffffffffffffffffffffffff1614612c47576040517f08c379a0000000000000000000000000000000000000000000000000000000008152600401612c3e90614186565b60405180910390fd5b3073ffffffffffffffffffffffffffffffffffffffff167f000000000000000000000000000000000000000000000000000000000000000073ffffffffffffffffffffffffffffffffffffffff1663081812fc836040518263ffffffff1660e01b8152600401612cb791906138e6565b602060405180830381865afa158015612cd4573d6000803e3d6000fd5b505050506040513d601f19601f82011682018060405250810190612cf89190613de1565b73ffffffffffffffffffffffffffffffffffffffff161480612db257507f000000000000000000000000000000000000000000000000000000000000000073ffffffffffffffffffffffffffffffffffffffff1663e985e9c533306040518363ffffffff1660e01b8152600401612d70929190613e7a565b602060405180830381865afa158015612d8d573d6000803e3d6000fd5b505050506040513d601f19601f82011682018060405250810190612db19190613ecf565b5b612df1576040517f08c379a0000000000000000000000000000000000000000000000000000000008152600401612de89061482c565b60405180910390fd5b60008260000160009054906101000a900473ffffffffffffffffffffffffffffffffffffffff16905060008360020154905060008460030160006101000a81548160ff0219169083151502179055506001600084815260200190815260200160002060020160009054906101000a900460ff1615612ea25760006001600085815260200190815260200160002060020160006101000a81548160ff021916908315150217905550612ea183613515565b5b612eac83866135ee565b7f000000000000000000000000000000000000000000000000000000000000000073ffffffffffffffffffffffffffffffffffffffff166323b872dd3384866040518463ffffffff1660e01b8152600401612f0993929190614103565b600060405180830381600087803b158015612f2357600080fd5b505af1158015612f37573d6000803e3d6000fd5b5050505060003373ffffffffffffffffffffffffffffffffffffffff1682604051612f61906141d7565b60006040518083038185875af1925050503d8060008114612f9e576040519150601f19603f3d011682016040523d82523d6000602084013e612fa3565b606091505b5050905080612fe7576040517f08c379a0000000000000000000000000000000000000000000000000000000008152600401612fde90614b54565b60405180910390fd5b8273ffffffffffffffffffffffffffffffffffffffff163373ffffffffffffffffffffffffffffffffffffffff16877f4120925e3ea8ea4107367aaa578114df1bcf568bf65572bd5bf43052fc0d7ff860405160405180910390a4505050505061304f613779565b50565b600080606080600080600860008881526020019081526020016000206040518060a00160405290816000820160009054906101000a900473ffffffffffffffffffffffffffffffffffffffff1673ffffffffffffffffffffffffffffffffffffffff1673ffffffffffffffffffffffffffffffffffffffff1681526020016001820160009054906101000a900473ffffffffffffffffffffffffffffffffffffffff1673ffffffffffffffffffffffffffffffffffffffff1673ffffffffffffffffffffffffffffffffffffffff1681526020016002820180548060200260200160405190810160405280929190818152602001828054801561317457602002820191906000526020600020905b815481526020019060010190808311613160575b50505050508152602001600382018054806020026020016040519081016040528092919081815260200182805480156131cc57602002820191906000526020600020905b8154815260200190600101908083116131b8575b505050505081526020016004820160009054906101000a900460ff161515151581525050905080600001518160200151826040015183606001518460800151955095509550955095505091939590929450565b60006001600083815260200190815260200160002090508060020160009054906101000a900460ff16613287576040517f08c379a000000000000000000000000000000000000000000000000000000000815260040161327e90614904565b60405180910390fd5b3373ffffffffffffffffffffffffffffffffffffffff168160000160009054906101000a900473ffffffffffffffffffffffffffffffffffffffff1673ffffffffffffffffffffffffffffffffffffffff1614613319576040517f08c379a000000000000000000000000000000000000000000000000000000000815260040161331090614bc0565b60405180910390fd5b60008160020160006101000a81548160ff02191690831515021790555061333f82613515565b3373ffffffffffffffffffffffffffffffffffffffff16827f8b7f70ca4739ac40f2b4c9e4a4c2306eb5545f5549ae28af8eb4ddab953c443c60405160405180910390a35050565b60006008600083815260200190815260200160002090508060040160009054906101000a900460ff166133ef576040517f08c379a00000000000000000000000000000000000000000000000000000000081526004016133e690613d11565b60405180910390fd5b3373ffffffffffffffffffffffffffffffffffffffff168160010160009054906101000a900473ffffffffffffffffffffffffffffffffffffffff1673ffffffffffffffffffffffffffffffffffffffff1614613481576040517f08c379a000000000000000000000000000000000000000000000000000000000815260040161347890613d7d565b60405180910390fd5b60008160040160006101000a81548160ff021916908315150217905550817fbe310597c321fad847d33580c9b46dadb7757190ca5ca2103f82dfe63c4d75c960405160405180910390a25050565b60026000540361350b576040517f3ee5aeb500000000000000000000000000000000000000000000000000000000815260040160405180910390fd5b6002600081905550565b600060036000838152602001908152602001600020549050600060016002805490506135419190614a68565b90508082146135aa576000600282815481106135605761355f613d9d565b5b90600052602060002001549050806002848154811061358257613581613d9d565b5b9060005260206000200181905550826003600083815260200190815260200160002081905550505b60028054806135bc576135bb614be0565b5b600190038181906000526020600020016000905590556003600084815260200190815260200160002060009055505050565b600060066000848152602001908152602001600020905060005b818054905081101561377357600082828154811061362957613628613d9d565b5b906000526020600020015490508381036136435750613760565b60006005600083815260200190815260200160002090508060030160009054906101000a900460ff16613677575050613760565b60008160030160006101000a81548160ff02191690831515021790555060008160000160009054906101000a900473ffffffffffffffffffffffffffffffffffffffff1673ffffffffffffffffffffffffffffffffffffffff1682600201546040516136e2906141d7565b60006040518083038185875af1925050503d806000811461371f576040519150601f19603f3d011682016040523d82523d6000602084013e613724565b606091505b50509050801561375c57827f85f5ca6bbfb96986bf182e497ab2349ae652fda01d3a5cbfbf25952c8ea1758360405160405180910390a25b5050505b808061376b90613fbd565b915050613608565b50505050565b6001600081905550565b8280548282559060005260206000209081019282156137bf579160200282015b828111156137be5782518255916020019190600101906137a3565b5b5090506137cc91906137d0565b5090565b5b808211156137e95760008160009055506001016137d1565b5090565b600081519050919050565b600082825260208201905092915050565b6000819050602082019050919050565b6000819050919050565b61382c81613819565b82525050565b600061383e8383613823565b60208301905092915050565b6000602082019050919050565b6000613862826137ed565b61386c81856137f8565b935061387783613809565b8060005b838110156138a857815161388f8882613832565b975061389a8361384a565b92505060018101905061387b565b5085935050505092915050565b600060208201905081810360008301526138cf8184613857565b905092915050565b6138e081613819565b82525050565b60006020820190506138fb60008301846138d7565b92915050565b600080fd5b600080fd5b61391481613819565b811461391f57600080fd5b50565b6000813590506139318161390b565b92915050565b60006020828403121561394d5761394c613901565b5b600061395b84828501613922565b91505092915050565b600073ffffffffffffffffffffffffffffffffffffffff82169050919050565b600061398f82613964565b9050919050565b61399f81613984565b82525050565b60008115159050919050565b6139ba816139a5565b82525050565b60006060820190506139d56000830186613996565b6139e26020830185613996565b6139ef60408301846139b1565b949350505050565b6000819050919050565b6000613a1c613a17613a1284613964565b6139f7565b613964565b9050919050565b6000613a2e82613a01565b9050919050565b6000613a4082613a23565b9050919050565b613a5081613a35565b82525050565b6000602082019050613a6b6000830184613a47565b92915050565b6000606082019050613a866000830186613996565b613a9360208301856138d7565b613aa060408301846139b1565b949350505050565b6000608082019050613abd6000830187613996565b613aca60208301866138d7565b613ad760408301856138d7565b613ae460608301846139b1565b95945050505050565b600080fd5b600080fd5b600080fd5b60008083601f840112613b1257613b11613aed565b5b8235905067ffffffffffffffff811115613b2f57613b2e613af2565b5b602083019150836020820283011115613b4b57613b4a613af7565b5b9250929050565b613b5b81613984565b8114613b6657600080fd5b50565b600081359050613b7881613b52565b92915050565b600080600080600060608688031215613b9a57613b99613901565b5b600086013567ffffffffffffffff811115613bb857613bb7613906565b5b613bc488828901613afc565b9550955050602086013567ffffffffffffffff811115613be757613be6613906565b5b613bf388828901613afc565b93509350506040613c0688828901613b69565b9150509295509295909350565b60008060408385031215613c2a57613c29613901565b5b6000613c3885828601613922565b9250506020613c4985828601613922565b9150509250929050565b600060a082019050613c686000830188613996565b613c756020830187613996565b8181036040830152613c878186613857565b90508181036060830152613c9b8185613857565b9050613caa60808301846139b1565b9695505050505050565b600082825260208201905092915050565b7f4f6665727461206e6f2061637469766100000000000000000000000000000000600082015250565b6000613cfb601083613cb4565b9150613d0682613cc5565b602082019050919050565b60006020820190508181036000830152613d2a81613cee565b9050919050565b7f4e6f206572657320656c2064657374696e61746172696f000000000000000000600082015250565b6000613d67601783613cb4565b9150613d7282613d31565b602082019050919050565b60006020820190508181036000830152613d9681613d5a565b9050919050565b7f4e487b7100000000000000000000000000000000000000000000000000000000600052603260045260246000fd5b600081519050613ddb81613b52565b92915050565b600060208284031215613df757613df6613901565b5b6000613e0584828501613dcc565b91505092915050565b7f456c206f666572656e7465207961206e6f20706f736565206c61206361727461600082015250565b6000613e44602083613cb4565b9150613e4f82613e0e565b602082019050919050565b60006020820190508181036000830152613e7381613e37565b9050919050565b6000604082019050613e8f6000830185613996565b613e9c6020830184613996565b9392505050565b613eac816139a5565b8114613eb757600080fd5b50565b600081519050613ec981613ea3565b92915050565b600060208284031215613ee557613ee4613901565b5b6000613ef384828501613eba565b91505092915050565b7f456c206f666572656e7465206e6f206861206170726f6261646f206c6120636160008201527f7274610000000000000000000000000000000000000000000000000000000000602082015250565b6000613f58602383613cb4565b9150613f6382613efc565b604082019050919050565b60006020820190508181036000830152613f8781613f4b565b9050919050565b7f4e487b7100000000000000000000000000000000000000000000000000000000600052601160045260246000fd5b6000613fc882613819565b91507fffffffffffffffffffffffffffffffffffffffffffffffffffffffffffffffff8203613ffa57613ff9613f8e565b5b600182019050919050565b7f5961206e6f20706f73656573206c6120636172746120736f6c69636974616461600082015250565b600061403b602083613cb4565b915061404682614005565b602082019050919050565b6000602082019050818103600083015261406a8161402e565b9050919050565b7f4e6f20686173206170726f6261646f206c6120636172746120736f6c6963697460008201527f6164610000000000000000000000000000000000000000000000000000000000602082015250565b60006140cd602383613cb4565b91506140d882614071565b604082019050919050565b600060208201905081810360008301526140fc816140c0565b9050919050565b60006060820190506141186000830186613996565b6141256020830185613996565b61413260408301846138d7565b949350505050565b7f4e6f206572657320656c2070726f706965746172696f2064656c204e46540000600082015250565b6000614170601e83613cb4565b915061417b8261413a565b602082019050919050565b6000602082019050818103600083015261419f81614163565b9050919050565b600081905092915050565b50565b60006141c16000836141a6565b91506141cc826141b1565b600082019050919050565b60006141e2826141b4565b9150819050919050565b7f46616c6c6f20616c206465766f6c766572204554480000000000000000000000600082015250565b6000614222601583613cb4565b915061422d826141ec565b602082019050919050565b6000602082019050818103600083015261425181614215565b9050919050565b7f446562657320656e766961722045544800000000000000000000000000000000600082015250565b600061428e601083613cb4565b915061429982614258565b602082019050919050565b600060208201905081810360008301526142bd81614281565b9050919050565b7f4e6f20707565646573206f66657274617220706f722074752070726f70696f2060008201527f4e46540000000000000000000000000000000000000000000000000000000000602082015250565b6000614320602383613cb4565b915061432b826142c4565b604082019050919050565b6000602082019050818103600083015261434f81614313565b9050919050565b7f4e6f206572657320656c206f666572656e746500000000000000000000000000600082015250565b600061438c601383613cb4565b915061439782614356565b602082019050919050565b600060208201905081810360008301526143bb8161437f565b9050919050565b7f4465626573206f66726563657220616c206d656e6f7320756e61206361727461600082015250565b60006143f8602083613cb4565b9150614403826143c2565b602082019050919050565b60006020820190508181036000830152614427816143eb565b9050919050565b7f446562657320736f6c69636974617220616c206d656e6f7320756e612063617260008201527f7461000000000000000000000000000000000000000000000000000000000000602082015250565b600061448a602283613cb4565b91506144958261442e565b604082019050919050565b600060208201905081810360008301526144b98161447d565b9050919050565b7f4e6f2070756564657320696e74657263616d6269617220636f6e7469676f206d60008201527f69736d6f00000000000000000000000000000000000000000000000000000000602082015250565b600061451c602483613cb4565b9150614527826144c0565b604082019050919050565b6000602082019050818103600083015261454b8161450f565b9050919050565b7f44657374696e61746172696f20696e76616c69646f0000000000000000000000600082015250565b6000614588601583613cb4565b915061459382614552565b602082019050919050565b600060208201905081810360008301526145b78161457b565b9050919050565b7f4e6f20706f7365657320746f646173206c617320636172746173206f6672656360008201527f6964617300000000000000000000000000000000000000000000000000000000602082015250565b600061461a602483613cb4565b9150614625826145be565b604082019050919050565b600060208201905081810360008301526146498161460d565b9050919050565b7f456c2064657374696e61746172696f206e6f20706f73656520746f646173206c60008201527f61732063617274617320736f6c69636974616461730000000000000000000000602082015250565b60006146ac603583613cb4565b91506146b782614650565b604082019050919050565b600060208201905081810360008301526146db8161469f565b9050919050565b7f456c2070726563696f206465626520736572206d61796f722061203000000000600082015250565b6000614718601c83613cb4565b9150614723826146e2565b602082019050919050565b600060208201905081810360008301526147478161470b565b9050919050565b7f4e6f206572657320656c2070726f706965746172696f00000000000000000000600082015250565b6000614784601683613cb4565b915061478f8261474e565b602082019050919050565b600060208201905081810360008301526147b381614777565b9050919050565b7f456c206d61726b6574706c616365206e6f207469656e65206170726f6261636960008201527f6f6e000000000000000000000000000000000000000000000000000000000000602082015250565b6000614816602283613cb4565b9150614821826147ba565b604082019050919050565b6000602082019050818103600083015261484581614809565b9050919050565b7f59612065737461206c69737461646f0000000000000000000000000000000000600082015250565b6000614882600f83613cb4565b915061488d8261484c565b602082019050919050565b600060208201905081810360008301526148b181614875565b9050919050565b7f4e6f2065737461206c69737461646f0000000000000000000000000000000000600082015250565b60006148ee600f83613cb4565b91506148f9826148b8565b602082019050919050565b6000602082019050818103600083015261491d816148e1565b9050919050565b7f45544820696e737566696369656e746500000000000000000000000000000000600082015250565b600061495a601083613cb4565b915061496582614924565b602082019050919050565b600060208201905081810360008301526149898161494d565b9050919050565b7f4e6f2070756564657320636f6d707261722074752070726f70696f204e465400600082015250565b60006149c6601f83613cb4565b91506149d182614990565b602082019050919050565b600060208201905081810360008301526149f5816149b9565b9050919050565b7f46616c6c6f20616c20656e766961722045544820616c2076656e6465646f7200600082015250565b6000614a32601f83613cb4565b9150614a3d826149fc565b602082019050919050565b60006020820190508181036000830152614a6181614a25565b9050919050565b6000614a7382613819565b9150614a7e83613819565b9250828203905081811115614a9657614a95613f8e565b5b92915050565b7f46616c6c6f20616c206465766f6c7665722065786365736f0000000000000000600082015250565b6000614ad2601883613cb4565b9150614add82614a9c565b602082019050919050565b60006020820190508181036000830152614b0181614ac5565b9050919050565b7f46616c6c6f20616c20656e766961722045544800000000000000000000000000600082015250565b6000614b3e601383613cb4565b9150614b4982614b08565b602082019050919050565b60006020820190508181036000830152614b6d81614b31565b9050919050565b7f4e6f206572657320656c2076656e6465646f7200000000000000000000000000600082015250565b6000614baa601383613cb4565b9150614bb582614b74565b602082019050919050565b60006020820190508181036000830152614bd981614b9d565b9050919050565b7f4e487b7100000000000000000000000000000000000000000000000000000000600052603160045260246000fdfea26469706673582212209d34c598a7f39e909bc15c73bca19b943af29e2edc2a388e48bb052462bd7c8264736f6c63430008140033",
  "linkReferences": {},
  "deployedLinkReferences": {}
}