{
  "_format": "hh-sol-artifact-1",
  "contractName": "Marketplace",
  "sourceName": "contracts/Marketplace.sol",
  "abi": [
    {
      "inputs": [
        {
          "internalType": "address",
          "name": "_nftContrato",
          "type": "address"
        }
      ],
      "stateMutability": "nonpayable",
      "type": "constructor"
    },
    {
      "inputs": [],
      "name": "ReentrancyGuardReentrantCall",
      "type": "error"
    },
    {
      "anonymous": false,
      "inputs": [
        {
          "indexed": true,
          "internalType": "uint256",
          "name": "tokenId",
          "type": "uint256"
        },
        {
          "indexed": true,
          "internalType": "address",
          "name": "vendedor",
          "type": "address"
        }
      ],
      "name": "ListadoCancelado",
      "type": "event"
    },
    {
      "anonymous": false,
      "inputs": [
        {
          "indexed": true,
          "internalType": "uint256",
          "name": "tokenId",
          "type": "uint256"
        },
        {
          "indexed": true,
          "internalType": "address",
          "name": "vendedor",
          "type": "address"
        },
        {
          "indexed": false,
          "internalType": "uint256",
          "name": "precio",
          "type": "uint256"
        }
      ],
      "name": "NFTListado",
      "type": "event"
    },
    {
      "anonymous": false,
      "inputs": [
        {
          "indexed": true,
          "internalType": "uint256",
          "name": "tokenId",
          "type": "uint256"
        },
        {
          "indexed": true,
          "internalType": "address",
          "name": "vendedor",
          "type": "address"
        },
        {
          "indexed": true,
          "internalType": "address",
          "name": "comprador",
          "type": "address"
        },
        {
          "indexed": false,
          "internalType": "uint256",
          "name": "precio",
          "type": "uint256"
        }
      ],
      "name": "NFTVendido",
      "type": "event"
    },
    {
      "inputs": [
        {
          "internalType": "uint256",
          "name": "tokenId",
          "type": "uint256"
        }
      ],
      "name": "cancelarListado",
      "outputs": [],
      "stateMutability": "nonpayable",
      "type": "function"
    },
    {
      "inputs": [
        {
          "internalType": "uint256",
          "name": "tokenId",
          "type": "uint256"
        }
      ],
      "name": "comprarNFT",
      "outputs": [],
      "stateMutability": "payable",
      "type": "function"
    },
    {
      "inputs": [
        {
          "internalType": "uint256",
          "name": "",
          "type": "uint256"
        }
      ],
      "name": "listados",
      "outputs": [
        {
          "internalType": "address",
          "name": "vendedor",
          "type": "address"
        },
        {
          "internalType": "uint256",
          "name": "precio",
          "type": "uint256"
        },
        {
          "internalType": "bool",
          "name": "activo",
          "type": "bool"
        }
      ],
      "stateMutability": "view",
      "type": "function"
    },
    {
      "inputs": [
        {
          "internalType": "uint256",
          "name": "tokenId",
          "type": "uint256"
        },
        {
          "internalType": "uint256",
          "name": "precio",
          "type": "uint256"
        }
      ],
      "name": "listarNFT",
      "outputs": [],
      "stateMutability": "nonpayable",
      "type": "function"
    },
    {
      "inputs": [],
      "name": "nftContrato",
      "outputs": [
        {
          "internalType": "contract IERC721",
          "name": "",
          "type": "address"
        }
      ],
      "stateMutability": "view",
      "type": "function"
    },
    {
      "inputs": [
        {
          "internalType": "uint256",
          "name": "tokenId",
          "type": "uint256"
        }
      ],
      "name": "obtenerListado",
      "outputs": [
        {
          "internalType": "address",
          "name": "vendedor",
          "type": "address"
        },
        {
          "internalType": "uint256",
          "name": "precio",
          "type": "uint256"
        },
        {
          "internalType": "bool",
          "name": "activo",
          "type": "bool"
        }
      ],
      "stateMutability": "view",
      "type": "function"
    },
    {
      "inputs": [],
      "name": "obtenerTodosListados",
      "outputs": [
        {
          "internalType": "uint256[]",
          "name": "",
          "type": "uint256[]"
        }
      ],
      "stateMutability": "view",
      "type": "function"
    },
    {
      "inputs": [],
      "name": "totalListados",
      "outputs": [
        {
          "internalType": "uint256",
          "name": "",
          "type": "uint256"
        }
      ],
      "stateMutability": "view",
      "type": "function"
    }
  ],
  "bytecode": "0x60a06040523480156200001157600080fd5b5060405162001a9a38038062001a9a833981810160405281019062000037919062000156565b6001600081905550600073ffffffffffffffffffffffffffffffffffffffff168173ffffffffffffffffffffffffffffffffffffffff1603620000b1576040517f08c379a0000000000000000000000000000000000000000000000000000000008152600401620000a890620001e9565b60405180910390fd5b8073ffffffffffffffffffffffffffffffffffffffff1660808173ffffffffffffffffffffffffffffffffffffffff1681525050506200020b565b600080fd5b600073ffffffffffffffffffffffffffffffffffffffff82169050919050565b60006200011e82620000f1565b9050919050565b620001308162000111565b81146200013c57600080fd5b50565b600081519050620001508162000125565b92915050565b6000602082840312156200016f576200016e620000ec565b5b60006200017f848285016200013f565b91505092915050565b600082825260208201905092915050565b7f446972656363696f6e20696e76616c6964610000000000000000000000000000600082015250565b6000620001d160128362000188565b9150620001de8262000199565b602082019050919050565b600060208201905081810360008301526200020481620001c2565b9050919050565b608051611857620002436000396000818161024701528181610390015281816104970152818161054e01526109da01526118576000f3fe60806040526004361061007b5760003560e01c8063a26a29981161004e578063a26a299814610140578063bcbbe75314610169578063bda84a27146101a8578063ee7b23e9146101c45761007b565b80630f4f356a1461008057806330ea3f8f146100ab578063507a7430146100d657806358d084f414610115575b600080fd5b34801561008c57600080fd5b506100956101ed565b6040516100a29190610fa2565b60405180910390f35b3480156100b757600080fd5b506100c0610245565b6040516100cd9190611043565b60405180910390f35b3480156100e257600080fd5b506100fd60048036038101906100f8919061108f565b610269565b60405161010c93929190611107565b60405180910390f35b34801561012157600080fd5b5061012a610327565b604051610137919061113e565b60405180910390f35b34801561014c57600080fd5b5061016760048036038101906101629190611159565b610334565b005b34801561017557600080fd5b50610190600480360381019061018b919061108f565b6107e0565b60405161019f93929190611107565b60405180910390f35b6101c260048036038101906101bd919061108f565b610837565b005b3480156101d057600080fd5b506101eb60048036038101906101e6919061108f565b610c49565b005b6060600280548060200260200160405190810160405280929190818152602001828054801561023b57602002820191906000526020600020905b815481526020019060010190808311610227575b5050505050905090565b7f000000000000000000000000000000000000000000000000000000000000000081565b600080600080600160008681526020019081526020016000206040518060600160405290816000820160009054906101000a900473ffffffffffffffffffffffffffffffffffffffff1673ffffffffffffffffffffffffffffffffffffffff1673ffffffffffffffffffffffffffffffffffffffff168152602001600182015481526020016002820160009054906101000a900460ff1615151515815250509050806000015181602001518260400151935093509350509193909250565b6000600280549050905090565b60008111610377576040517f08c379a000000000000000000000000000000000000000000000000000000000815260040161036e906111f6565b60405180910390fd5b3373ffffffffffffffffffffffffffffffffffffffff167f000000000000000000000000000000000000000000000000000000000000000073ffffffffffffffffffffffffffffffffffffffff16636352211e846040518263ffffffff1660e01b81526004016103e7919061113e565b602060405180830381865afa158015610404573d6000803e3d6000fd5b505050506040513d601f19601f820116820180604052508101906104289190611242565b73ffffffffffffffffffffffffffffffffffffffff161461047e576040517f08c379a0000000000000000000000000000000000000000000000000000000008152600401610475906112bb565b60405180910390fd5b3073ffffffffffffffffffffffffffffffffffffffff167f000000000000000000000000000000000000000000000000000000000000000073ffffffffffffffffffffffffffffffffffffffff1663081812fc846040518263ffffffff1660e01b81526004016104ee919061113e565b602060405180830381865afa15801561050b573d6000803e3d6000fd5b505050506040513d601f19601f8201168201806040525081019061052f9190611242565b73ffffffffffffffffffffffffffffffffffffffff1614806105e957507f000000000000000000000000000000000000000000000000000000000000000073ffffffffffffffffffffffffffffffffffffffff1663e985e9c533306040518363ffffffff1660e01b81526004016105a79291906112db565b602060405180830381865afa1580156105c4573d6000803e3d6000fd5b505050506040513d601f19601f820116820180604052508101906105e89190611330565b5b610628576040517f08c379a000000000000000000000000000000000000000000000000000000000815260040161061f906113cf565b60405180910390fd5b6001600083815260200190815260200160002060020160009054906101000a900460ff161561068c576040517f08c379a00000000000000000000000000000000000000000000000000000000081526004016106839061143b565b60405180910390fd5b60405180606001604052803373ffffffffffffffffffffffffffffffffffffffff168152602001828152602001600115158152506001600084815260200190815260200160002060008201518160000160006101000a81548173ffffffffffffffffffffffffffffffffffffffff021916908373ffffffffffffffffffffffffffffffffffffffff1602179055506020820151816001015560408201518160020160006101000a81548160ff021916908315150217905550905050600280549050600360008481526020019081526020016000208190555060028290806001815401808255809150506001900390600052602060002001600090919091909150553373ffffffffffffffffffffffffffffffffffffffff16827f533273ad28288be95f71b85b0424ac7bdb3073a13fda6950c91278ca19e5e535836040516107d4919061113e565b60405180910390a35050565b60016020528060005260406000206000915090508060000160009054906101000a900473ffffffffffffffffffffffffffffffffffffffff16908060010154908060020160009054906101000a900460ff16905083565b61083f610db1565b60006001600083815260200190815260200160002090508060020160009054906101000a900460ff166108a7576040517f08c379a000000000000000000000000000000000000000000000000000000000815260040161089e906114a7565b60405180910390fd5b80600101543410156108ee576040517f08c379a00000000000000000000000000000000000000000000000000000000081526004016108e590611513565b60405180910390fd5b8060000160009054906101000a900473ffffffffffffffffffffffffffffffffffffffff1673ffffffffffffffffffffffffffffffffffffffff163373ffffffffffffffffffffffffffffffffffffffff1603610980576040517f08c379a00000000000000000000000000000000000000000000000000000000081526004016109779061157f565b60405180910390fd5b60008160000160009054906101000a900473ffffffffffffffffffffffffffffffffffffffff16905060008260010154905060008360020160006101000a81548160ff0219169083151502179055506109d884610df7565b7f000000000000000000000000000000000000000000000000000000000000000073ffffffffffffffffffffffffffffffffffffffff166323b872dd8333876040518463ffffffff1660e01b8152600401610a359392919061159f565b600060405180830381600087803b158015610a4f57600080fd5b505af1158015610a63573d6000803e3d6000fd5b5050505060008273ffffffffffffffffffffffffffffffffffffffff1682604051610a8d90611607565b60006040518083038185875af1925050503d8060008114610aca576040519150601f19603f3d011682016040523d82523d6000602084013e610acf565b606091505b5050905080610b13576040517f08c379a0000000000000000000000000000000000000000000000000000000008152600401610b0a90611668565b60405180910390fd5b81341115610bd45760003373ffffffffffffffffffffffffffffffffffffffff168334610b4091906116b7565b604051610b4c90611607565b60006040518083038185875af1925050503d8060008114610b89576040519150601f19603f3d011682016040523d82523d6000602084013e610b8e565b606091505b5050905080610bd2576040517f08c379a0000000000000000000000000000000000000000000000000000000008152600401610bc990611737565b60405180910390fd5b505b3373ffffffffffffffffffffffffffffffffffffffff168373ffffffffffffffffffffffffffffffffffffffff16867f54d56cd39f0c030ca2b0306eb7381ed8b172c3aefdc39e48179f65aa441c741085604051610c32919061113e565b60405180910390a450505050610c46610ed0565b50565b60006001600083815260200190815260200160002090508060020160009054906101000a900460ff16610cb1576040517f08c379a0000000000000000000000000000000000000000000000000000000008152600401610ca8906114a7565b60405180910390fd5b3373ffffffffffffffffffffffffffffffffffffffff168160000160009054906101000a900473ffffffffffffffffffffffffffffffffffffffff1673ffffffffffffffffffffffffffffffffffffffff1614610d43576040517f08c379a0000000000000000000000000000000000000000000000000000000008152600401610d3a906117a3565b60405180910390fd5b60008160020160006101000a81548160ff021916908315150217905550610d6982610df7565b3373ffffffffffffffffffffffffffffffffffffffff16827f8b7f70ca4739ac40f2b4c9e4a4c2306eb5545f5549ae28af8eb4ddab953c443c60405160405180910390a35050565b600260005403610ded576040517f3ee5aeb500000000000000000000000000000000000000000000000000000000815260040160405180910390fd5b6002600081905550565b60006003600083815260200190815260200160002054905060006001600280549050610e2391906116b7565b9050808214610e8c57600060028281548110610e4257610e416117c3565b5b906000526020600020015490508060028481548110610e6457610e636117c3565b5b9060005260206000200181905550826003600083815260200190815260200160002081905550505b6002805480610e9e57610e9d6117f2565b5b600190038181906000526020600020016000905590556003600084815260200190815260200160002060009055505050565b6001600081905550565b600081519050919050565b600082825260208201905092915050565b6000819050602082019050919050565b6000819050919050565b610f1981610f06565b82525050565b6000610f2b8383610f10565b60208301905092915050565b6000602082019050919050565b6000610f4f82610eda565b610f598185610ee5565b9350610f6483610ef6565b8060005b83811015610f95578151610f7c8882610f1f565b9750610f8783610f37565b925050600181019050610f68565b5085935050505092915050565b60006020820190508181036000830152610fbc8184610f44565b905092915050565b600073ffffffffffffffffffffffffffffffffffffffff82169050919050565b6000819050919050565b6000611009611004610fff84610fc4565b610fe4565b610fc4565b9050919050565b600061101b82610fee565b9050919050565b600061102d82611010565b9050919050565b61103d81611022565b82525050565b60006020820190506110586000830184611034565b92915050565b600080fd5b61106c81610f06565b811461107757600080fd5b50565b60008135905061108981611063565b92915050565b6000602082840312156110a5576110a461105e565b5b60006110b38482850161107a565b91505092915050565b60006110c782610fc4565b9050919050565b6110d7816110bc565b82525050565b6110e681610f06565b82525050565b60008115159050919050565b611101816110ec565b82525050565b600060608201905061111c60008301866110ce565b61112960208301856110dd565b61113660408301846110f8565b949350505050565b600060208201905061115360008301846110dd565b92915050565b600080604083850312156111705761116f61105e565b5b600061117e8582860161107a565b925050602061118f8582860161107a565b9150509250929050565b600082825260208201905092915050565b7f456c2070726563696f206465626520736572206d61796f722061203000000000600082015250565b60006111e0601c83611199565b91506111eb826111aa565b602082019050919050565b6000602082019050818103600083015261120f816111d3565b9050919050565b61121f816110bc565b811461122a57600080fd5b50565b60008151905061123c81611216565b92915050565b6000602082840312156112585761125761105e565b5b60006112668482850161122d565b91505092915050565b7f4e6f206572657320656c2070726f706965746172696f00000000000000000000600082015250565b60006112a5601683611199565b91506112b08261126f565b602082019050919050565b600060208201905081810360008301526112d481611298565b9050919050565b60006040820190506112f060008301856110ce565b6112fd60208301846110ce565b9392505050565b61130d816110ec565b811461131857600080fd5b50565b60008151905061132a81611304565b92915050565b6000602082840312156113465761134561105e565b5b60006113548482850161131b565b91505092915050565b7f456c206d61726b6574706c616365206e6f207469656e65206170726f6261636960008201527f6f6e000000000000000000000000000000000000000000000000000000000000602082015250565b60006113b9602283611199565b91506113c48261135d565b604082019050919050565b600060208201905081810360008301526113e8816113ac565b9050919050565b7f59612065737461206c69737461646f0000000000000000000000000000000000600082015250565b6000611425600f83611199565b9150611430826113ef565b602082019050919050565b6000602082019050818103600083015261145481611418565b9050919050565b7f4e6f2065737461206c69737461646f0000000000000000000000000000000000600082015250565b6000611491600f83611199565b915061149c8261145b565b602082019050919050565b600060208201905081810360008301526114c081611484565b9050919050565b7f45544820696e737566696369656e746500000000000000000000000000000000600082015250565b60006114fd601083611199565b9150611508826114c7565b602082019050919050565b6000602082019050818103600083015261152c816114f0565b9050919050565b7f4e6f2070756564657320636f6d707261722074752070726f70696f204e465400600082015250565b6000611569601f83611199565b915061157482611533565b602082019050919050565b600060208201905081810360008301526115988161155c565b9050919050565b60006060820190506115b460008301866110ce565b6115c160208301856110ce565b6115ce60408301846110dd565b949350505050565b600081905092915050565b50565b60006115f16000836115d6565b91506115fc826115e1565b600082019050919050565b6000611612826115e4565b9150819050919050565b7f46616c6c6f20616c20656e766961722045544820616c2076656e6465646f7200600082015250565b6000611652601f83611199565b915061165d8261161c565b602082019050919050565b6000602082019050818103600083015261168181611645565b9050919050565b7f4e487b7100000000000000000000000000000000000000000000000000000000600052601160045260246000fd5b60006116c282610f06565b91506116cd83610f06565b92508282039050818111156116e5576116e4611688565b5b92915050565b7f46616c6c6f20616c206465766f6c7665722065786365736f0000000000000000600082015250565b6000611721601883611199565b915061172c826116eb565b602082019050919050565b6000602082019050818103600083015261175081611714565b9050919050565b7f4e6f206572657320656c2076656e6465646f7200000000000000000000000000600082015250565b600061178d601383611199565b915061179882611757565b602082019050919050565b600060208201905081810360008301526117bc81611780565b9050919050565b7f4e487b7100000000000000000000000000000000000000000000000000000000600052603260045260246000fd5b7f4e487b7100000000000000000000000000000000000000000000000000000000600052603160045260246000fdfea26469706673582212203fd7449c90b5b8fcaa2eded881d74d18515887a903f4cd6cc5f2828d727e793b64736f6c63430008140033",
  "linkReferences": {},
  "deployedLinkReferences": {}
}